{
  "contracts/ArrowGameSecure.sol": {
    "ArrowGameSecure": {
      "abi": [
        {
          "inputs": [],
          "stateMutability": "nonpayable",
          "type": "constructor"
        },
        {
          "inputs": [
            {
              "internalType": "uint256",
              "name": "sent",
              "type": "uint256"
            },
            {
              "internalType": "uint256",
              "name": "maximum",
              "type": "uint256"
            }
          ],
          "name": "BetTooLarge",
          "type": "error"
        },
        {
          "inputs": [
            {
              "internalType": "uint256",
              "name": "sent",
              "type": "uint256"
            },
            {
              "internalType": "uint256",
              "name": "minimum",
              "type": "uint256"
            }
          ],
          "name": "BetTooSmall",
          "type": "error"
        },
        {
          "inputs": [],
          "name": "EnforcedPause",
          "type": "error"
        },
        {
          "inputs": [],
          "name": "ExpectedPause",
          "type": "error"
        },
        {
          "inputs": [
            {
              "internalType": "uint256",
              "name": "available",
              "type": "uint256"
            },
            {
              "internalType": "uint256",
              "name": "required",
              "type": "uint256"
            }
          ],
          "name": "InsufficientHouseBalance",
          "type": "error"
        },
        {
          "inputs": [],
          "name": "InvalidReveal",
          "type": "error"
        },
        {
          "inputs": [],
          "name": "NoPendingBet",
          "type": "error"
        },
        {
          "inputs": [
            {
              "internalType": "address",
              "name": "owner",
              "type": "address"
            }
          ],
          "name": "OwnableInvalidOwner",
          "type": "error"
        },
        {
          "inputs": [
            {
              "internalType": "address",
              "name": "account",
              "type": "address"
            }
          ],
          "name": "OwnableUnauthorizedAccount",
          "type": "error"
        },
        {
          "inputs": [],
          "name": "PendingBetExists",
          "type": "error"
        },
        {
          "inputs": [],
          "name": "ReentrancyGuardReentrantCall",
          "type": "error"
        },
        {
          "inputs": [
            {
              "internalType": "uint256",
              "name": "currentBlock",
              "type": "uint256"
            },
            {
              "internalType": "uint256",
              "name": "requiredBlock",
              "type": "uint256"
            }
          ],
          "name": "RevealTooEarly",
          "type": "error"
        },
        {
          "inputs": [
            {
              "internalType": "uint256",
              "name": "currentBlock",
              "type": "uint256"
            },
            {
              "internalType": "uint256",
              "name": "deadline",
              "type": "uint256"
            }
          ],
          "name": "RevealTooLate",
          "type": "error"
        },
        {
          "anonymous": false,
          "inputs": [
            {
              "indexed": true,
              "internalType": "address",
              "name": "player",
              "type": "address"
            },
            {
              "indexed": false,
              "internalType": "uint256",
              "name": "amount",
              "type": "uint256"
            },
            {
              "indexed": false,
              "internalType": "bytes32",
              "name": "commitHash",
              "type": "bytes32"
            }
          ],
          "name": "BetCommitted",
          "type": "event"
        },
        {
          "anonymous": false,
          "inputs": [
            {
              "indexed": true,
              "internalType": "address",
              "name": "player",
              "type": "address"
            },
            {
              "indexed": false,
              "internalType": "uint256",
              "name": "amount",
              "type": "uint256"
            },
            {
              "indexed": false,
              "internalType": "string",
              "name": "reason",
              "type": "string"
            }
          ],
          "name": "BetRefunded",
          "type": "event"
        },
        {
          "anonymous": false,
          "inputs": [
            {
              "indexed": true,
              "internalType": "address",
              "name": "player",
              "type": "address"
            },
            {
              "indexed": false,
              "internalType": "uint256",
              "name": "amount",
              "type": "uint256"
            },
            {
              "indexed": false,
              "internalType": "uint8",
              "name": "result",
              "type": "uint8"
            },
            {
              "indexed": false,
              "internalType": "uint256",
              "name": "payout",
              "type": "uint256"
            }
          ],
          "name": "BetRevealed",
          "type": "event"
        },
        {
          "anonymous": false,
          "inputs": [
            {
              "indexed": false,
              "internalType": "uint256",
              "name": "minBet",
              "type": "uint256"
            },
            {
              "indexed": false,
              "internalType": "uint256",
              "name": "maxBet",
              "type": "uint256"
            }
          ],
          "name": "ConfigUpdated",
          "type": "event"
        },
        {
          "anonymous": false,
          "inputs": [
            {
              "indexed": true,
              "internalType": "address",
              "name": "owner",
              "type": "address"
            },
            {
              "indexed": false,
              "internalType": "uint256",
              "name": "amount",
              "type": "uint256"
            }
          ],
          "name": "EmergencyWithdraw",
          "type": "event"
        },
        {
          "anonymous": false,
          "inputs": [
            {
              "indexed": true,
              "internalType": "address",
              "name": "funder",
              "type": "address"
            },
            {
              "indexed": false,
              "internalType": "uint256",
              "name": "amount",
              "type": "uint256"
            }
          ],
          "name": "GameFunded",
          "type": "event"
        },
        {
          "anonymous": false,
          "inputs": [
            {
              "indexed": true,
              "internalType": "address",
              "name": "owner",
              "type": "address"
            },
            {
              "indexed": false,
              "internalType": "uint256",
              "name": "amount",
              "type": "uint256"
            },
            {
              "indexed": false,
              "internalType": "uint256",
              "name": "remainingReserve",
              "type": "uint256"
            }
          ],
          "name": "HouseWithdraw",
          "type": "event"
        },
        {
          "anonymous": false,
          "inputs": [
            {
              "indexed": true,
              "internalType": "address",
              "name": "previousOwner",
              "type": "address"
            },
            {
              "indexed": true,
              "internalType": "address",
              "name": "newOwner",
              "type": "address"
            }
          ],
          "name": "OwnershipTransferred",
          "type": "event"
        },
        {
          "anonymous": false,
          "inputs": [
            {
              "indexed": false,
              "internalType": "address",
              "name": "account",
              "type": "address"
            }
          ],
          "name": "Paused",
          "type": "event"
        },
        {
          "anonymous": false,
          "inputs": [
            {
              "indexed": false,
              "internalType": "uint256",
              "name": "newReserve",
              "type": "uint256"
            }
          ],
          "name": "ReserveUpdated",
          "type": "event"
        },
        {
          "anonymous": false,
          "inputs": [
            {
              "indexed": false,
              "internalType": "address",
              "name": "account",
              "type": "address"
            }
          ],
          "name": "Unpaused",
          "type": "event"
        },
        {
          "inputs": [],
          "name": "HOUSE_EDGE",
          "outputs": [
            {
              "internalType": "uint256",
              "name": "",
              "type": "uint256"
            }
          ],
          "stateMutability": "view",
          "type": "function"
        },
        {
          "inputs": [],
          "name": "MAX_PAYOUT_MULTIPLIER",
          "outputs": [
            {
              "internalType": "uint256",
              "name": "",
              "type": "uint256"
            }
          ],
          "stateMutability": "view",
          "type": "function"
        },
        {
          "inputs": [],
          "name": "MIN_REVEAL_DELAY",
          "outputs": [
            {
              "internalType": "uint256",
              "name": "",
              "type": "uint256"
            }
          ],
          "stateMutability": "view",
          "type": "function"
        },
        {
          "inputs": [],
          "name": "REVEAL_TIMEOUT",
          "outputs": [
            {
              "internalType": "uint256",
              "name": "",
              "type": "uint256"
            }
          ],
          "stateMutability": "view",
          "type": "function"
        },
        {
          "inputs": [],
          "name": "STREAK_THRESHOLD",
          "outputs": [
            {
              "internalType": "uint256",
              "name": "",
              "type": "uint256"
            }
          ],
          "stateMutability": "view",
          "type": "function"
        },
        {
          "inputs": [
            {
              "internalType": "bytes32",
              "name": "commitHash",
              "type": "bytes32"
            }
          ],
          "name": "commitBet",
          "outputs": [],
          "stateMutability": "payable",
          "type": "function"
        },
        {
          "inputs": [],
          "name": "emergencyWithdraw",
          "outputs": [],
          "stateMutability": "nonpayable",
          "type": "function"
        },
        {
          "inputs": [],
          "name": "fundHouse",
          "outputs": [],
          "stateMutability": "payable",
          "type": "function"
        },
        {
          "inputs": [],
          "name": "getHouseBalance",
          "outputs": [
            {
              "internalType": "uint256",
              "name": "total",
              "type": "uint256"
            },
            {
              "internalType": "uint256",
              "name": "available",
              "type": "uint256"
            },
            {
              "internalType": "uint256",
              "name": "reserved",
              "type": "uint256"
            }
          ],
          "stateMutability": "view",
          "type": "function"
        },
        {
          "inputs": [
            {
              "internalType": "address",
              "name": "player",
              "type": "address"
            }
          ],
          "name": "getPendingBet",
          "outputs": [
            {
              "internalType": "uint256",
              "name": "amount",
              "type": "uint256"
            },
            {
              "internalType": "uint256",
              "name": "commitBlock",
              "type": "uint256"
            },
            {
              "internalType": "bool",
              "name": "canReveal",
              "type": "bool"
            },
            {
              "internalType": "bool",
              "name": "canRefund",
              "type": "bool"
            },
            {
              "internalType": "bool",
              "name": "resolved",
              "type": "bool"
            }
          ],
          "stateMutability": "view",
          "type": "function"
        },
        {
          "inputs": [
            {
              "internalType": "address",
              "name": "player",
              "type": "address"
            }
          ],
          "name": "getPlayerStats",
          "outputs": [
            {
              "internalType": "uint256",
              "name": "gamesPlayed",
              "type": "uint256"
            },
            {
              "internalType": "uint256",
              "name": "totalWon",
              "type": "uint256"
            },
            {
              "internalType": "uint256",
              "name": "totalWagered_",
              "type": "uint256"
            }
          ],
          "stateMutability": "view",
          "type": "function"
        },
        {
          "inputs": [],
          "name": "maxBet",
          "outputs": [
            {
              "internalType": "uint256",
              "name": "",
              "type": "uint256"
            }
          ],
          "stateMutability": "view",
          "type": "function"
        },
        {
          "inputs": [],
          "name": "minBet",
          "outputs": [
            {
              "internalType": "uint256",
              "name": "",
              "type": "uint256"
            }
          ],
          "stateMutability": "view",
          "type": "function"
        },
        {
          "inputs": [],
          "name": "owner",
          "outputs": [
            {
              "internalType": "address",
              "name": "",
              "type": "address"
            }
          ],
          "stateMutability": "view",
          "type": "function"
        },
        {
          "inputs": [],
          "name": "pause",
          "outputs": [],
          "stateMutability": "nonpayable",
          "type": "function"
        },
        {
          "inputs": [],
          "name": "paused",
          "outputs": [
            {
              "internalType": "bool",
              "name": "",
              "type": "bool"
            }
          ],
          "stateMutability": "view",
          "type": "function"
        },
        {
          "inputs": [
            {
              "internalType": "address",
              "name": "",
              "type": "address"
            }
          ],
          "name": "pendingBets",
          "outputs": [
            {
              "internalType": "uint256",
              "name": "amount",
              "type": "uint256"
            },
            {
              "internalType": "uint256",
              "name": "commitBlock",
              "type": "uint256"
            },
            {
              "internalType": "bytes32",
              "name": "commitHash",
              "type": "bytes32"
            },
            {
              "internalType": "bool",
              "name": "resolved",
              "type": "bool"
            }
          ],
          "stateMutability": "view",
          "type": "function"
        },
        {
          "inputs": [
            {
              "internalType": "address",
              "name": "",
              "type": "address"
            }
          ],
          "name": "playerConsecutiveWins",
          "outputs": [
            {
              "internalType": "uint256",
              "name": "",
              "type": "uint256"
            }
          ],
          "stateMutability": "view",
          "type": "function"
        },
        {
          "inputs": [
            {
              "internalType": "address",
              "name": "",
              "type": "address"
            }
          ],
          "name": "playerGamesPlayed",
          "outputs": [
            {
              "internalType": "uint256",
              "name": "",
              "type": "uint256"
            }
          ],
          "stateMutability": "view",
          "type": "function"
        },
        {
          "inputs": [
            {
              "internalType": "address",
              "name": "",
              "type": "address"
            }
          ],
          "name": "playerTotalWagered",
          "outputs": [
            {
              "internalType": "uint256",
              "name": "",
              "type": "uint256"
            }
          ],
          "stateMutability": "view",
          "type": "function"
        },
        {
          "inputs": [
            {
              "internalType": "address",
              "name": "",
              "type": "address"
            }
          ],
          "name": "playerTotalWon",
          "outputs": [
            {
              "internalType": "uint256",
              "name": "",
              "type": "uint256"
            }
          ],
          "stateMutability": "view",
          "type": "function"
        },
        {
          "inputs": [],
          "name": "quickBet",
          "outputs": [],
          "stateMutability": "payable",
          "type": "function"
        },
        {
          "inputs": [],
          "name": "refundExpiredBet",
          "outputs": [],
          "stateMutability": "nonpayable",
          "type": "function"
        },
        {
          "inputs": [],
          "name": "renounceOwnership",
          "outputs": [],
          "stateMutability": "nonpayable",
          "type": "function"
        },
        {
          "inputs": [],
          "name": "reserveBalance",
          "outputs": [
            {
              "internalType": "uint256",
              "name": "",
              "type": "uint256"
            }
          ],
          "stateMutability": "view",
          "type": "function"
        },
        {
          "inputs": [
            {
              "internalType": "bytes32",
              "name": "secret",
              "type": "bytes32"
            }
          ],
          "name": "revealBet",
          "outputs": [],
          "stateMutability": "nonpayable",
          "type": "function"
        },
        {
          "inputs": [],
          "name": "totalGamesPlayed",
          "outputs": [
            {
              "internalType": "uint256",
              "name": "",
              "type": "uint256"
            }
          ],
          "stateMutability": "view",
          "type": "function"
        },
        {
          "inputs": [],
          "name": "totalPayouts",
          "outputs": [
            {
              "internalType": "uint256",
              "name": "",
              "type": "uint256"
            }
          ],
          "stateMutability": "view",
          "type": "function"
        },
        {
          "inputs": [],
          "name": "totalWagered",
          "outputs": [
            {
              "internalType": "uint256",
              "name": "",
              "type": "uint256"
            }
          ],
          "stateMutability": "view",
          "type": "function"
        },
        {
          "inputs": [
            {
              "internalType": "address",
              "name": "newOwner",
              "type": "address"
            }
          ],
          "name": "transferOwnership",
          "outputs": [],
          "stateMutability": "nonpayable",
          "type": "function"
        },
        {
          "inputs": [],
          "name": "unpause",
          "outputs": [],
          "stateMutability": "nonpayable",
          "type": "function"
        },
        {
          "inputs": [
            {
              "internalType": "uint256",
              "name": "_minBet",
              "type": "uint256"
            },
            {
              "internalType": "uint256",
              "name": "_maxBet",
              "type": "uint256"
            }
          ],
          "name": "updateBetLimits",
          "outputs": [],
          "stateMutability": "nonpayable",
          "type": "function"
        },
        {
          "inputs": [
            {
              "internalType": "uint256",
              "name": "amount",
              "type": "uint256"
            }
          ],
          "name": "withdrawHouse",
          "outputs": [],
          "stateMutability": "nonpayable",
          "type": "function"
        },
        {
          "stateMutability": "payable",
          "type": "receive"
        }
      ],
      "evm": {
        "bytecode": {
          "linkReferences": {},
          "object": "60806040526601c6bf526340006003556611c37937e080006004553480156200002757600080fd5b5033600073ffffffffffffffffffffffffffffffffffffffff168173ffffffffffffffffffffffffffffffffffffffff16036200009e5760006040517f1e4fbdf7000000000000000000000000000000000000000000000000000000008152600401620000959190620001ce565b60405180910390fd5b620000af81620000c560201b60201c565b50600180819055506000600581905550620001eb565b60008060009054906101000a900473ffffffffffffffffffffffffffffffffffffffff169050816000806101000a81548173ffffffffffffffffffffffffffffffffffffffff021916908373ffffffffffffffffffffffffffffffffffffffff1602179055508173ffffffffffffffffffffffffffffffffffffffff168173ffffffffffffffffffffffffffffffffffffffff167f8be0079c531659141344cd1fd0a4f28419497f9722a3daafe3b4186f6b6457e060405160405180910390a35050565b600073ffffffffffffffffffffffffffffffffffffffff82169050919050565b6000620001b68262000189565b9050919050565b620001c881620001a9565b82525050565b6000602082019050620001e56000830184620001bd565b92915050565b6131f680620001fb6000396000f3fe6080604052600436106101f25760003560e01c80638456cb591161010d578063a10954fe116100a0578063c8c1fcaa1161006f578063c8c1fcaa146106be578063db2e21bc146106fb578063e534f65214610712578063f2fde38b1461074f578063f65463721461077857610247565b8063a10954fe146105f9578063a43b90f214610624578063b13f52e014610661578063c61a25d4146106a257610247565b80638da5cb5b116100dc5780638da5cb5b1461053b5780638daaaa2f146105665780638ed2b47e146105915780639619367d146105ce57610247565b80638456cb59146104a55780638713277b146104bc578063888eeea6146104e55780638a14f12c1461051057610247565b80634c8530ce116101855780635c975abb116101545780635c975abb1461044f5780636afbb01b1461047a578063715018a614610484578063722f4a871461049b57610247565b80634c8530ce146103a35780634fd66eae146103ce57806356b4540f1461040d5780635c4921291461042457610247565b80633d6ae3a7116101c15780633d6ae3a7146102f65780633f4ba83a146103215780634089b1701461033857806344b0b7881461036357610247565b8063034d3ec21461024c57806305a8d5691461027557806323218411146102a25780632e5b2168146102cb57610247565b36610247573373ffffffffffffffffffffffffffffffffffffffff167f5c963fd7fde519af29d56159e6e3e18db4e5d3e4716c39c87958cf9e4862ed583460405161023d919061259e565b60405180910390a2005b600080fd5b34801561025857600080fd5b50610273600480360381019061026e91906125ea565b6107a3565b005b34801561028157600080fd5b5061028a6108c5565b6040516102999392919061262a565b60405180910390f35b3480156102ae57600080fd5b506102c960048036038101906102c49190612661565b6108f4565b005b3480156102d757600080fd5b506102e0610a5b565b6040516102ed919061259e565b60405180910390f35b34801561030257600080fd5b5061030b610a61565b604051610318919061259e565b60405180910390f35b34801561032d57600080fd5b50610336610a67565b005b34801561034457600080fd5b5061034d610a79565b60405161035a919061259e565b60405180910390f35b34801561036f57600080fd5b5061038a600480360381019061038591906126ec565b610a7f565b60405161039a949392919061274d565b60405180910390f35b3480156103af57600080fd5b506103b8610abc565b6040516103c5919061259e565b60405180910390f35b3480156103da57600080fd5b506103f560048036038101906103f091906126ec565b610ac1565b6040516104049392919061262a565b60405180910390f35b34801561041957600080fd5b50610422610b93565b005b34801561043057600080fd5b50610439610e0e565b604051610446919061259e565b60405180910390f35b34801561045b57600080fd5b50610464610e14565b6040516104719190612792565b60405180910390f35b610482610e2b565b005b34801561049057600080fd5b50610499610ebe565b005b6104a3610ed2565b005b3480156104b157600080fd5b506104ba61156e565b005b3480156104c857600080fd5b506104e360048036038101906104de91906127d9565b611580565b005b3480156104f157600080fd5b506104fa611c28565b604051610507919061259e565b60405180910390f35b34801561051c57600080fd5b50610525611c2d565b604051610532919061259e565b60405180910390f35b34801561054757600080fd5b50610550611c33565b60405161055d9190612815565b60405180910390f35b34801561057257600080fd5b5061057b611c5c565b604051610588919061259e565b60405180910390f35b34801561059d57600080fd5b506105b860048036038101906105b391906126ec565b611c61565b6040516105c5919061259e565b60405180910390f35b3480156105da57600080fd5b506105e3611c79565b6040516105f0919061259e565b60405180910390f35b34801561060557600080fd5b5061060e611c7f565b60405161061b919061259e565b60405180910390f35b34801561063057600080fd5b5061064b600480360381019061064691906126ec565b611c85565b604051610658919061259e565b60405180910390f35b34801561066d57600080fd5b50610688600480360381019061068391906126ec565b611c9d565b604051610699959493929190612830565b60405180910390f35b6106bc60048036038101906106b791906127d9565b611d92565b005b3480156106ca57600080fd5b506106e560048036038101906106e091906126ec565b61209c565b6040516106f2919061259e565b60405180910390f35b34801561070757600080fd5b506107106120b4565b005b34801561071e57600080fd5b50610739600480360381019061073491906126ec565b6121f9565b604051610746919061259e565b60405180910390f35b34801561075b57600080fd5b50610776600480360381019061077191906126ec565b612211565b005b34801561078457600080fd5b5061078d612297565b60405161079a919061259e565b60405180910390f35b6107ab61229c565b600082116107ee576040517f08c379a00000000000000000000000000000000000000000000000000000000081526004016107e5906128e0565b60405180910390fd5b808210610830576040517f08c379a00000000000000000000000000000000000000000000000000000000081526004016108279061294c565b60405180910390fd5b662386f26fc1000081111561087a576040517f08c379a0000000000000000000000000000000000000000000000000000000008152600401610871906129b8565b60405180910390fd5b81600381905550806004819055507f0936b3616d5072fa8f7381ef8e7c35d39bed9ecfb2184e908a56027ad5c0b6bc82826040516108b99291906129d8565b60405180910390a15050565b600080600047925060055490508083116108e05760006108ed565b80836108ec9190612a30565b5b9150909192565b6108fc61229c565b60006005544761090c9190612a30565b905080821115610951576040517f08c379a000000000000000000000000000000000000000000000000000000000815260040161094890612ab0565b60405180910390fd5b600061095b611c33565b73ffffffffffffffffffffffffffffffffffffffff168360405161097e90612b01565b60006040518083038185875af1925050503d80600081146109bb576040519150601f19603f3d011682016040523d82523d6000602084013e6109c0565b606091505b5050905080610a04576040517f08c379a00000000000000000000000000000000000000000000000000000000081526004016109fb90612b62565b60405180910390fd5b3373ffffffffffffffffffffffffffffffffffffffff167fc1ae3c9b226d59664936fce829386f650f894b9351eec61063245c521161a47384600554604051610a4e9291906129d8565b60405180910390a2505050565b60045481565b61010081565b610a6f61229c565b610a77612323565b565b60075481565b600d6020528060005260406000206000915090508060000154908060010154908060020154908060030160009054906101000a900460ff16905084565b600281565b6000806000600960008573ffffffffffffffffffffffffffffffffffffffff1673ffffffffffffffffffffffffffffffffffffffff16815260200190815260200160002054600a60008673ffffffffffffffffffffffffffffffffffffffff1673ffffffffffffffffffffffffffffffffffffffff16815260200190815260200160002054600b60008773ffffffffffffffffffffffffffffffffffffffff1673ffffffffffffffffffffffffffffffffffffffff168152602001908152602001600020549250925092509193909250565b610b9b612386565b6000600d60003373ffffffffffffffffffffffffffffffffffffffff1673ffffffffffffffffffffffffffffffffffffffff1681526020019081526020016000209050600081600001541480610bff57508060030160009054906101000a900460ff165b15610c36576040517f9d46544500000000000000000000000000000000000000000000000000000000815260040160405180910390fd5b6101008160010154610c489190612b82565b4311610caa574360016101008360010154610c639190612b82565b610c6d9190612b82565b6040517fc167e8fa000000000000000000000000000000000000000000000000000000008152600401610ca19291906129d8565b60405180910390fd5b60018160030160006101000a81548160ff0219169083151502179055506000816000015490506000606460be83610ce19190612bb6565b610ceb9190612c27565b90508060056000828254610cff9190612a30565b9250508190555060003373ffffffffffffffffffffffffffffffffffffffff1683604051610d2c90612b01565b60006040518083038185875af1925050503d8060008114610d69576040519150601f19603f3d011682016040523d82523d6000602084013e610d6e565b606091505b5050905080610db2576040517f08c379a0000000000000000000000000000000000000000000000000000000008152600401610da990612ca4565b60405180910390fd5b3373ffffffffffffffffffffffffffffffffffffffff167f39381f757671e194c7c71915e8906307bae612dc6a68af4ff70e8ba61919813f84604051610df89190612d10565b60405180910390a250505050610e0c6123cc565b565b60065481565b6000600260009054906101000a900460ff16905090565b60003411610e6e576040517f08c379a0000000000000000000000000000000000000000000000000000000008152600401610e6590612d8a565b60405180910390fd5b3373ffffffffffffffffffffffffffffffffffffffff167f5c963fd7fde519af29d56159e6e3e18db4e5d3e4716c39c87958cf9e4862ed5834604051610eb4919061259e565b60405180910390a2565b610ec661229c565b610ed060006123d5565b565b610eda612386565b610ee2612499565b3273ffffffffffffffffffffffffffffffffffffffff163373ffffffffffffffffffffffffffffffffffffffff1614610f50576040517f08c379a0000000000000000000000000000000000000000000000000000000008152600401610f4790612df6565b60405180910390fd5b600354341015610f9b57346003546040517fac4d5cf8000000000000000000000000000000000000000000000000000000008152600401610f929291906129d8565b60405180910390fd5b600454341115610fe657346004546040517f69da332c000000000000000000000000000000000000000000000000000000008152600401610fdd9291906129d8565b60405180910390fd5b6000606460be34610ff79190612bb6565b6110019190612c27565b9050600034476110119190612a30565b90508181101561111d5760003373ffffffffffffffffffffffffffffffffffffffff163460405161104190612b01565b60006040518083038185875af1925050503d806000811461107e576040519150601f19603f3d011682016040523d82523d6000602084013e611083565b606091505b50509050806110c7576040517f08c379a00000000000000000000000000000000000000000000000000000000081526004016110be90612ca4565b60405180910390fd5b3373ffffffffffffffffffffffffffffffffffffffff167f39381f757671e194c7c71915e8906307bae612dc6a68af4ff70e8ba61919813f3460405161110d9190612e62565b60405180910390a2505050611564565b600060644442336006546001436111349190612a30565b40604051602001611149959493929190612f1a565b6040516020818303038152906040528051906020012060001c61116c9190612f79565b90506000600c60003373ffffffffffffffffffffffffffffffffffffffff1673ffffffffffffffffffffffffffffffffffffffff1681526020019081526020016000205490506000600a9050600060239050600283106111cf5760059150601490505b600080838610156112535760029150606460be346111ed9190612bb6565b6111f79190612c27565b9050600c60003373ffffffffffffffffffffffffffffffffffffffff1673ffffffffffffffffffffffffffffffffffffffff168152602001908152602001600020600081548092919061124990612faa565b9190505550611307565b828610156112b8576001915060023461126c9190612c27565b90506000600c60003373ffffffffffffffffffffffffffffffffffffffff1673ffffffffffffffffffffffffffffffffffffffff16815260200190815260200160002081905550611306565b60009150600090506000600c60003373ffffffffffffffffffffffffffffffffffffffff1673ffffffffffffffffffffffffffffffffffffffff168152602001908152602001600020819055505b5b6006600081548092919061131a90612faa565b919050555034600860008282546113319190612b82565b92505081905550600960003373ffffffffffffffffffffffffffffffffffffffff1673ffffffffffffffffffffffffffffffffffffffff168152602001908152602001600020600081548092919061138890612faa565b919050555034600b60003373ffffffffffffffffffffffffffffffffffffffff1673ffffffffffffffffffffffffffffffffffffffff16815260200190815260200160002060008282546113dc9190612b82565b9250508190555060008111156115095780600760008282546113fe9190612b82565b9250508190555080600a60003373ffffffffffffffffffffffffffffffffffffffff1673ffffffffffffffffffffffffffffffffffffffff16815260200190815260200160002060008282546114549190612b82565b9250508190555060003373ffffffffffffffffffffffffffffffffffffffff168260405161148190612b01565b60006040518083038185875af1925050503d80600081146114be576040519150601f19603f3d011682016040523d82523d6000602084013e6114c3565b606091505b5050905080611507576040517f08c379a00000000000000000000000000000000000000000000000000000000081526004016114fe9061303e565b60405180910390fd5b505b3373ffffffffffffffffffffffffffffffffffffffff167ff5bcda99d24ae05ced738a386eec191fd64e9def75392eb5f4cba1205923bb7c3484846040516115539392919061307a565b60405180910390a250505050505050505b61156c6123cc565b565b61157661229c565b61157e6124da565b565b611588612386565b611590612499565b6000600d60003373ffffffffffffffffffffffffffffffffffffffff1673ffffffffffffffffffffffffffffffffffffffff16815260200190815260200160002090506000816000015414806115f457508060030160009054906101000a900460ff165b1561162b576040517f9d46544500000000000000000000000000000000000000000000000000000000815260040160405180910390fd5b6001816001015461163c9190612b82565b431161169c574360018083600101546116559190612b82565b61165f9190612b82565b6040517fc167e8fa0000000000000000000000000000000000000000000000000000000081526004016116939291906129d8565b60405180910390fd5b61010081600101546116ae9190612b82565b431115611705574361010082600101546116c89190612b82565b6040517f64175dad0000000000000000000000000000000000000000000000000000000081526004016116fc9291906129d8565b60405180910390fd5b6000823360405160200161171a9291906130b1565b6040516020818303038152906040528051906020012090508160020154811461176f576040517f9ea6d12700000000000000000000000000000000000000000000000000000000815260040160405180910390fd5b60018260030160006101000a81548160ff0219169083151502179055506000826000015490506000606460be836117a69190612bb6565b6117b09190612c27565b905080600560008282546117c49190612a30565b925050819055506000600185600101546117de9190612b82565b40905060006064878333896001015460405160200161180094939291906130dd565b6040516020818303038152906040528051906020012060001c6118239190612f79565b90506000600c60003373ffffffffffffffffffffffffffffffffffffffff1673ffffffffffffffffffffffffffffffffffffffff1681526020019081526020016000205490506000600a9050600060239050600283106118865760059150601490505b6000808386101561190a5760029150606460be8a6118a49190612bb6565b6118ae9190612c27565b9050600c60003373ffffffffffffffffffffffffffffffffffffffff1673ffffffffffffffffffffffffffffffffffffffff168152602001908152602001600020600081548092919061190090612faa565b91905055506119be565b8286101561196f57600191506002896119239190612c27565b90506000600c60003373ffffffffffffffffffffffffffffffffffffffff1673ffffffffffffffffffffffffffffffffffffffff168152602001908152602001600020819055506119bd565b60009150600090506000600c60003373ffffffffffffffffffffffffffffffffffffffff1673ffffffffffffffffffffffffffffffffffffffff168152602001908152602001600020819055505b5b600660008154809291906119d190612faa565b919050555088600860008282546119e89190612b82565b92505081905550600960003373ffffffffffffffffffffffffffffffffffffffff1673ffffffffffffffffffffffffffffffffffffffff1681526020019081526020016000206000815480929190611a3f90612faa565b919050555088600b60003373ffffffffffffffffffffffffffffffffffffffff1673ffffffffffffffffffffffffffffffffffffffff1681526020019081526020016000206000828254611a939190612b82565b925050819055506000811115611bc0578060076000828254611ab59190612b82565b9250508190555080600a60003373ffffffffffffffffffffffffffffffffffffffff1673ffffffffffffffffffffffffffffffffffffffff1681526020019081526020016000206000828254611b0b9190612b82565b9250508190555060003373ffffffffffffffffffffffffffffffffffffffff1682604051611b3890612b01565b60006040518083038185875af1925050503d8060008114611b75576040519150601f19603f3d011682016040523d82523d6000602084013e611b7a565b606091505b5050905080611bbe576040517f08c379a0000000000000000000000000000000000000000000000000000000008152600401611bb59061303e565b60405180910390fd5b505b3373ffffffffffffffffffffffffffffffffffffffff167ff5bcda99d24ae05ced738a386eec191fd64e9def75392eb5f4cba1205923bb7c8a8484604051611c0a9392919061307a565b60405180910390a25050505050505050505050611c256123cc565b50565b600181565b60085481565b60008060009054906101000a900473ffffffffffffffffffffffffffffffffffffffff16905090565b600581565b600a6020528060005260406000206000915090505481565b60035481565b60055481565b600c6020528060005260406000206000915090505481565b600080600080600080600d60008873ffffffffffffffffffffffffffffffffffffffff1673ffffffffffffffffffffffffffffffffffffffff1681526020019081526020016000206040518060800160405290816000820154815260200160018201548152602001600282015481526020016003820160009054906101000a900460ff16151515158152505090508060000151816020015160018360200151611d469190612b82565b43118015611d6557506101008360200151611d619190612b82565b4311155b6101008460200151611d779190612b82565b43118460600151955095509550955095505091939590929450565b611d9a612386565b611da2612499565b600354341015611ded57346003546040517fac4d5cf8000000000000000000000000000000000000000000000000000000008152600401611de49291906129d8565b60405180910390fd5b600454341115611e3857346004546040517f69da332c000000000000000000000000000000000000000000000000000000008152600401611e2f9291906129d8565b60405180910390fd5b6000600d60003373ffffffffffffffffffffffffffffffffffffffff1673ffffffffffffffffffffffffffffffffffffffff16815260200190815260200160002060000154118015611ed75750600d60003373ffffffffffffffffffffffffffffffffffffffff1673ffffffffffffffffffffffffffffffffffffffff16815260200190815260200160002060030160009054906101000a900460ff16155b15611f0e576040517f97bcd0a000000000000000000000000000000000000000000000000000000000815260040160405180910390fd5b6000606460be34611f1f9190612bb6565b611f299190612c27565b905060003447611f399190612a30565b905081811015611f825780826040517fa54b6dcf000000000000000000000000000000000000000000000000000000008152600401611f799291906129d8565b60405180910390fd5b604051806080016040528034815260200143815260200184815260200160001515815250600d60003373ffffffffffffffffffffffffffffffffffffffff1673ffffffffffffffffffffffffffffffffffffffff16815260200190815260200160002060008201518160000155602082015181600101556040820151816002015560608201518160030160006101000a81548160ff02191690831515021790555090505081600560008282546120389190612b82565b925050819055503373ffffffffffffffffffffffffffffffffffffffff167f08e8ecce9ba6ca1ed63a78aa1d2e9f4099167054afeaa7bae09164774f02640f348560405161208792919061312b565b60405180910390a250506120996123cc565b50565b60096020528060005260406000206000915090505481565b6120bc61229c565b6120c461253d565b6000479050600060055482116120da57816120e9565b600554826120e89190612a30565b5b9050600060058190555060006120fd611c33565b73ffffffffffffffffffffffffffffffffffffffff168260405161212090612b01565b60006040518083038185875af1925050503d806000811461215d576040519150601f19603f3d011682016040523d82523d6000602084013e612162565b606091505b50509050806121a6576040517f08c379a000000000000000000000000000000000000000000000000000000000815260040161219d906131a0565b60405180910390fd5b3373ffffffffffffffffffffffffffffffffffffffff167f5fafa99d0643513820be26656b45130b01e1c03062e1266bf36f88cbd3bd9695836040516121ec919061259e565b60405180910390a2505050565b600b6020528060005260406000206000915090505481565b61221961229c565b600073ffffffffffffffffffffffffffffffffffffffff168173ffffffffffffffffffffffffffffffffffffffff160361228b5760006040517f1e4fbdf70000000000000000000000000000000000000000000000000000000081526004016122829190612815565b60405180910390fd5b612294816123d5565b50565b60be81565b6122a461257d565b73ffffffffffffffffffffffffffffffffffffffff166122c2611c33565b73ffffffffffffffffffffffffffffffffffffffff1614612321576122e561257d565b6040517f118cdaa70000000000000000000000000000000000000000000000000000000081526004016123189190612815565b60405180910390fd5b565b61232b61253d565b6000600260006101000a81548160ff0219169083151502179055507f5db9ee0a495bf2e6ff9c91a7834c1ba4fdd244a5e8aa4e537bd38aeae4b073aa61236f61257d565b60405161237c9190612815565b60405180910390a1565b6002600154036123c2576040517f3ee5aeb500000000000000000000000000000000000000000000000000000000815260040160405180910390fd5b6002600181905550565b60018081905550565b60008060009054906101000a900473ffffffffffffffffffffffffffffffffffffffff169050816000806101000a81548173ffffffffffffffffffffffffffffffffffffffff021916908373ffffffffffffffffffffffffffffffffffffffff1602179055508173ffffffffffffffffffffffffffffffffffffffff168173ffffffffffffffffffffffffffffffffffffffff167f8be0079c531659141344cd1fd0a4f28419497f9722a3daafe3b4186f6b6457e060405160405180910390a35050565b6124a1610e14565b156124d8576040517fd93c066500000000000000000000000000000000000000000000000000000000815260040160405180910390fd5b565b6124e2612499565b6001600260006101000a81548160ff0219169083151502179055507f62e78cea01bee320cd4e420270b5ea74000d11b0c9f74754ebdbfc544b05a25861252661257d565b6040516125339190612815565b60405180910390a1565b612545610e14565b61257b576040517f8dfc202b00000000000000000000000000000000000000000000000000000000815260040160405180910390fd5b565b600033905090565b6000819050919050565b61259881612585565b82525050565b60006020820190506125b3600083018461258f565b92915050565b600080fd5b6125c781612585565b81146125d257600080fd5b50565b6000813590506125e4816125be565b92915050565b60008060408385031215612601576126006125b9565b5b600061260f858286016125d5565b9250506020612620858286016125d5565b9150509250929050565b600060608201905061263f600083018661258f565b61264c602083018561258f565b612659604083018461258f565b949350505050565b600060208284031215612677576126766125b9565b5b6000612685848285016125d5565b91505092915050565b600073ffffffffffffffffffffffffffffffffffffffff82169050919050565b60006126b98261268e565b9050919050565b6126c9816126ae565b81146126d457600080fd5b50565b6000813590506126e6816126c0565b92915050565b600060208284031215612702576127016125b9565b5b6000612710848285016126d7565b91505092915050565b6000819050919050565b61272c81612719565b82525050565b60008115159050919050565b61274781612732565b82525050565b6000608082019050612762600083018761258f565b61276f602083018661258f565b61277c6040830185612723565b612789606083018461273e565b95945050505050565b60006020820190506127a7600083018461273e565b92915050565b6127b681612719565b81146127c157600080fd5b50565b6000813590506127d3816127ad565b92915050565b6000602082840312156127ef576127ee6125b9565b5b60006127fd848285016127c4565b91505092915050565b61280f816126ae565b82525050565b600060208201905061282a6000830184612806565b92915050565b600060a082019050612845600083018861258f565b612852602083018761258f565b61285f604083018661273e565b61286c606083018561273e565b612879608083018461273e565b9695505050505050565b600082825260208201905092915050565b7f4d696e20626574206d75737420626520706f7369746976650000000000000000600082015250565b60006128ca601883612883565b91506128d582612894565b602082019050919050565b600060208201905081810360008301526128f9816128bd565b9050919050565b7f496e76616c6964206265742072616e6765000000000000000000000000000000600082015250565b6000612936601183612883565b915061294182612900565b602082019050919050565b6000602082019050818103600083015261296581612929565b9050919050565b7f4d61782062657420746f6f206869676800000000000000000000000000000000600082015250565b60006129a2601083612883565b91506129ad8261296c565b602082019050919050565b600060208201905081810360008301526129d181612995565b9050919050565b60006040820190506129ed600083018561258f565b6129fa602083018461258f565b9392505050565b7f4e487b7100000000000000000000000000000000000000000000000000000000600052601160045260246000fd5b6000612a3b82612585565b9150612a4683612585565b9250828203905081811115612a5e57612a5d612a01565b5b92915050565b7f43616e6e6f742077697468647261772072657365727665642066756e64730000600082015250565b6000612a9a601e83612883565b9150612aa582612a64565b602082019050919050565b60006020820190508181036000830152612ac981612a8d565b9050919050565b600081905092915050565b50565b6000612aeb600083612ad0565b9150612af682612adb565b600082019050919050565b6000612b0c82612ade565b9150819050919050565b7f5769746864726177616c206661696c6564000000000000000000000000000000600082015250565b6000612b4c601183612883565b9150612b5782612b16565b602082019050919050565b60006020820190508181036000830152612b7b81612b3f565b9050919050565b6000612b8d82612585565b9150612b9883612585565b9250828201905080821115612bb057612baf612a01565b5b92915050565b6000612bc182612585565b9150612bcc83612585565b9250828202612bda81612585565b91508282048414831517612bf157612bf0612a01565b5b5092915050565b7f4e487b7100000000000000000000000000000000000000000000000000000000600052601260045260246000fd5b6000612c3282612585565b9150612c3d83612585565b925082612c4d57612c4c612bf8565b5b828204905092915050565b7f526566756e64206661696c656400000000000000000000000000000000000000600082015250565b6000612c8e600d83612883565b9150612c9982612c58565b602082019050919050565b60006020820190508181036000830152612cbd81612c81565b9050919050565b7f52657665616c2074696d656f7574000000000000000000000000000000000000600082015250565b6000612cfa600e83612883565b9150612d0582612cc4565b602082019050919050565b6000604082019050612d25600083018461258f565b8181036020830152612d3681612ced565b905092915050565b7f4d7573742073656e642043454c4f000000000000000000000000000000000000600082015250565b6000612d74600e83612883565b9150612d7f82612d3e565b602082019050919050565b60006020820190508181036000830152612da381612d67565b9050919050565b7f4e6f20636f6e74726163742063616c6c73000000000000000000000000000000600082015250565b6000612de0601183612883565b9150612deb82612daa565b602082019050919050565b60006020820190508181036000830152612e0f81612dd3565b9050919050565b7f496e73756666696369656e7420686f7573652062616c616e6365000000000000600082015250565b6000612e4c601a83612883565b9150612e5782612e16565b602082019050919050565b6000604082019050612e77600083018461258f565b8181036020830152612e8881612e3f565b905092915050565b6000819050919050565b612eab612ea682612585565b612e90565b82525050565b60008160601b9050919050565b6000612ec982612eb1565b9050919050565b6000612edb82612ebe565b9050919050565b612ef3612eee826126ae565b612ed0565b82525050565b6000819050919050565b612f14612f0f82612719565b612ef9565b82525050565b6000612f268288612e9a565b602082019150612f368287612e9a565b602082019150612f468286612ee2565b601482019150612f568285612e9a565b602082019150612f668284612f03565b6020820191508190509695505050505050565b6000612f8482612585565b9150612f8f83612585565b925082612f9f57612f9e612bf8565b5b828206905092915050565b6000612fb582612585565b91507fffffffffffffffffffffffffffffffffffffffffffffffffffffffffffffffff8203612fe757612fe6612a01565b5b600182019050919050565b7f5061796f7574206661696c656400000000000000000000000000000000000000600082015250565b6000613028600d83612883565b915061303382612ff2565b602082019050919050565b600060208201905081810360008301526130578161301b565b9050919050565b600060ff82169050919050565b6130748161305e565b82525050565b600060608201905061308f600083018661258f565b61309c602083018561306b565b6130a9604083018461258f565b949350505050565b60006130bd8285612f03565b6020820191506130cd8284612ee2565b6014820191508190509392505050565b60006130e98287612f03565b6020820191506130f98286612f03565b6020820191506131098285612ee2565b6014820191506131198284612e9a565b60208201915081905095945050505050565b6000604082019050613140600083018561258f565b61314d6020830184612723565b9392505050565b7f456d657267656e6379207769746864726177616c206661696c65640000000000600082015250565b600061318a601b83612883565b915061319582613154565b602082019050919050565b600060208201905081810360008301526131b98161317d565b905091905056fea2646970667358221220b262cdaa528ff2478e5507da9a2cd7fb638a4959765d003f91f76a1715e5e03a64736f6c63430008180033",
          "opcodes": "PUSH1 0x80 PUSH1 0x40 MSTORE PUSH7 0x1C6BF52634000 PUSH1 0x3 SSTORE PUSH7 0x11C37937E08000 PUSH1 0x4 SSTORE CALLVALUE DUP1 ISZERO PUSH3 0x27 JUMPI PUSH1 0x0 DUP1 REVERT JUMPDEST POP CALLER PUSH1 0x0 PUSH20 0xFFFFFFFFFFFFFFFFFFFFFFFFFFFFFFFFFFFFFFFF AND DUP2 PUSH20 0xFFFFFFFFFFFFFFFFFFFFFFFFFFFFFFFFFFFFFFFF AND SUB PUSH3 0x9E JUMPI PUSH1 0x0 PUSH1 0x40 MLOAD PUSH32 0x1E4FBDF700000000000000000000000000000000000000000000000000000000 DUP2 MSTORE PUSH1 0x4 ADD PUSH3 0x95 SWAP2 SWAP1 PUSH3 0x1CE JUMP JUMPDEST PUSH1 0x40 MLOAD DUP1 SWAP2 SUB SWAP1 REVERT JUMPDEST PUSH3 0xAF DUP2 PUSH3 0xC5 PUSH1 0x20 SHL PUSH1 0x20 SHR JUMP JUMPDEST POP PUSH1 0x1 DUP1 DUP2 SWAP1 SSTORE POP PUSH1 0x0 PUSH1 0x5 DUP2 SWAP1 SSTORE POP PUSH3 0x1EB JUMP JUMPDEST PUSH1 0x0 DUP1 PUSH1 0x0 SWAP1 SLOAD SWAP1 PUSH2 0x100 EXP SWAP1 DIV PUSH20 0xFFFFFFFFFFFFFFFFFFFFFFFFFFFFFFFFFFFFFFFF AND SWAP1 POP DUP2 PUSH1 0x0 DUP1 PUSH2 0x100 EXP DUP2 SLOAD DUP2 PUSH20 0xFFFFFFFFFFFFFFFFFFFFFFFFFFFFFFFFFFFFFFFF MUL NOT AND SWAP1 DUP4 PUSH20 0xFFFFFFFFFFFFFFFFFFFFFFFFFFFFFFFFFFFFFFFF AND MUL OR SWAP1 SSTORE POP DUP2 PUSH20 0xFFFFFFFFFFFFFFFFFFFFFFFFFFFFFFFFFFFFFFFF AND DUP2 PUSH20 0xFFFFFFFFFFFFFFFFFFFFFFFFFFFFFFFFFFFFFFFF AND PUSH32 0x8BE0079C531659141344CD1FD0A4F28419497F9722A3DAAFE3B4186F6B6457E0 PUSH1 0x40 MLOAD PUSH1 0x40 MLOAD DUP1 SWAP2 SUB SWAP1 LOG3 POP POP JUMP JUMPDEST PUSH1 0x0 PUSH20 0xFFFFFFFFFFFFFFFFFFFFFFFFFFFFFFFFFFFFFFFF DUP3 AND SWAP1 POP SWAP2 SWAP1 POP JUMP JUMPDEST PUSH1 0x0 PUSH3 0x1B6 DUP3 PUSH3 0x189 JUMP JUMPDEST SWAP1 POP SWAP2 SWAP1 POP JUMP JUMPDEST PUSH3 0x1C8 DUP2 PUSH3 0x1A9 JUMP JUMPDEST DUP3 MSTORE POP POP JUMP JUMPDEST PUSH1 0x0 PUSH1 0x20 DUP3 ADD SWAP1 POP PUSH3 0x1E5 PUSH1 0x0 DUP4 ADD DUP5 PUSH3 0x1BD JUMP JUMPDEST SWAP3 SWAP2 POP POP JUMP JUMPDEST PUSH2 0x31F6 DUP1 PUSH3 0x1FB PUSH1 0x0 CODECOPY PUSH1 0x0 RETURN INVALID PUSH1 0x80 PUSH1 0x40 MSTORE PUSH1 0x4 CALLDATASIZE LT PUSH2 0x1F2 JUMPI PUSH1 0x0 CALLDATALOAD PUSH1 0xE0 SHR DUP1 PUSH4 0x8456CB59 GT PUSH2 0x10D JUMPI DUP1 PUSH4 0xA10954FE GT PUSH2 0xA0 JUMPI DUP1 PUSH4 0xC8C1FCAA GT PUSH2 0x6F JUMPI DUP1 PUSH4 0xC8C1FCAA EQ PUSH2 0x6BE JUMPI DUP1 PUSH4 0xDB2E21BC EQ PUSH2 0x6FB JUMPI DUP1 PUSH4 0xE534F652 EQ PUSH2 0x712 JUMPI DUP1 PUSH4 0xF2FDE38B EQ PUSH2 0x74F JUMPI DUP1 PUSH4 0xF6546372 EQ PUSH2 0x778 JUMPI PUSH2 0x247 JUMP JUMPDEST DUP1 PUSH4 0xA10954FE EQ PUSH2 0x5F9 JUMPI DUP1 PUSH4 0xA43B90F2 EQ PUSH2 0x624 JUMPI DUP1 PUSH4 0xB13F52E0 EQ PUSH2 0x661 JUMPI DUP1 PUSH4 0xC61A25D4 EQ PUSH2 0x6A2 JUMPI PUSH2 0x247 JUMP JUMPDEST DUP1 PUSH4 0x8DA5CB5B GT PUSH2 0xDC JUMPI DUP1 PUSH4 0x8DA5CB5B EQ PUSH2 0x53B JUMPI DUP1 PUSH4 0x8DAAAA2F EQ PUSH2 0x566 JUMPI DUP1 PUSH4 0x8ED2B47E EQ PUSH2 0x591 JUMPI DUP1 PUSH4 0x9619367D EQ PUSH2 0x5CE JUMPI PUSH2 0x247 JUMP JUMPDEST DUP1 PUSH4 0x8456CB59 EQ PUSH2 0x4A5 JUMPI DUP1 PUSH4 0x8713277B EQ PUSH2 0x4BC JUMPI DUP1 PUSH4 0x888EEEA6 EQ PUSH2 0x4E5 JUMPI DUP1 PUSH4 0x8A14F12C EQ PUSH2 0x510 JUMPI PUSH2 0x247 JUMP JUMPDEST DUP1 PUSH4 0x4C8530CE GT PUSH2 0x185 JUMPI DUP1 PUSH4 0x5C975ABB GT PUSH2 0x154 JUMPI DUP1 PUSH4 0x5C975ABB EQ PUSH2 0x44F JUMPI DUP1 PUSH4 0x6AFBB01B EQ PUSH2 0x47A JUMPI DUP1 PUSH4 0x715018A6 EQ PUSH2 0x484 JUMPI DUP1 PUSH4 0x722F4A87 EQ PUSH2 0x49B JUMPI PUSH2 0x247 JUMP JUMPDEST DUP1 PUSH4 0x4C8530CE EQ PUSH2 0x3A3 JUMPI DUP1 PUSH4 0x4FD66EAE EQ PUSH2 0x3CE JUMPI DUP1 PUSH4 0x56B4540F EQ PUSH2 0x40D JUMPI DUP1 PUSH4 0x5C492129 EQ PUSH2 0x424 JUMPI PUSH2 0x247 JUMP JUMPDEST DUP1 PUSH4 0x3D6AE3A7 GT PUSH2 0x1C1 JUMPI DUP1 PUSH4 0x3D6AE3A7 EQ PUSH2 0x2F6 JUMPI DUP1 PUSH4 0x3F4BA83A EQ PUSH2 0x321 JUMPI DUP1 PUSH4 0x4089B170 EQ PUSH2 0x338 JUMPI DUP1 PUSH4 0x44B0B788 EQ PUSH2 0x363 JUMPI PUSH2 0x247 JUMP JUMPDEST DUP1 PUSH4 0x34D3EC2 EQ PUSH2 0x24C JUMPI DUP1 PUSH4 0x5A8D569 EQ PUSH2 0x275 JUMPI DUP1 PUSH4 0x23218411 EQ PUSH2 0x2A2 JUMPI DUP1 PUSH4 0x2E5B2168 EQ PUSH2 0x2CB JUMPI PUSH2 0x247 JUMP JUMPDEST CALLDATASIZE PUSH2 0x247 JUMPI CALLER PUSH20 0xFFFFFFFFFFFFFFFFFFFFFFFFFFFFFFFFFFFFFFFF AND PUSH32 0x5C963FD7FDE519AF29D56159E6E3E18DB4E5D3E4716C39C87958CF9E4862ED58 CALLVALUE PUSH1 0x40 MLOAD PUSH2 0x23D SWAP2 SWAP1 PUSH2 0x259E JUMP JUMPDEST PUSH1 0x40 MLOAD DUP1 SWAP2 SUB SWAP1 LOG2 STOP JUMPDEST PUSH1 0x0 DUP1 REVERT JUMPDEST CALLVALUE DUP1 ISZERO PUSH2 0x258 JUMPI PUSH1 0x0 DUP1 REVERT JUMPDEST POP PUSH2 0x273 PUSH1 0x4 DUP1 CALLDATASIZE SUB DUP2 ADD SWAP1 PUSH2 0x26E SWAP2 SWAP1 PUSH2 0x25EA JUMP JUMPDEST PUSH2 0x7A3 JUMP JUMPDEST STOP JUMPDEST CALLVALUE DUP1 ISZERO PUSH2 0x281 JUMPI PUSH1 0x0 DUP1 REVERT JUMPDEST POP PUSH2 0x28A PUSH2 0x8C5 JUMP JUMPDEST PUSH1 0x40 MLOAD PUSH2 0x299 SWAP4 SWAP3 SWAP2 SWAP1 PUSH2 0x262A JUMP JUMPDEST PUSH1 0x40 MLOAD DUP1 SWAP2 SUB SWAP1 RETURN JUMPDEST CALLVALUE DUP1 ISZERO PUSH2 0x2AE JUMPI PUSH1 0x0 DUP1 REVERT JUMPDEST POP PUSH2 0x2C9 PUSH1 0x4 DUP1 CALLDATASIZE SUB DUP2 ADD SWAP1 PUSH2 0x2C4 SWAP2 SWAP1 PUSH2 0x2661 JUMP JUMPDEST PUSH2 0x8F4 JUMP JUMPDEST STOP JUMPDEST CALLVALUE DUP1 ISZERO PUSH2 0x2D7 JUMPI PUSH1 0x0 DUP1 REVERT JUMPDEST POP PUSH2 0x2E0 PUSH2 0xA5B JUMP JUMPDEST PUSH1 0x40 MLOAD PUSH2 0x2ED SWAP2 SWAP1 PUSH2 0x259E JUMP JUMPDEST PUSH1 0x40 MLOAD DUP1 SWAP2 SUB SWAP1 RETURN JUMPDEST CALLVALUE DUP1 ISZERO PUSH2 0x302 JUMPI PUSH1 0x0 DUP1 REVERT JUMPDEST POP PUSH2 0x30B PUSH2 0xA61 JUMP JUMPDEST PUSH1 0x40 MLOAD PUSH2 0x318 SWAP2 SWAP1 PUSH2 0x259E JUMP JUMPDEST PUSH1 0x40 MLOAD DUP1 SWAP2 SUB SWAP1 RETURN JUMPDEST CALLVALUE DUP1 ISZERO PUSH2 0x32D JUMPI PUSH1 0x0 DUP1 REVERT JUMPDEST POP PUSH2 0x336 PUSH2 0xA67 JUMP JUMPDEST STOP JUMPDEST CALLVALUE DUP1 ISZERO PUSH2 0x344 JUMPI PUSH1 0x0 DUP1 REVERT JUMPDEST POP PUSH2 0x34D PUSH2 0xA79 JUMP JUMPDEST PUSH1 0x40 MLOAD PUSH2 0x35A SWAP2 SWAP1 PUSH2 0x259E JUMP JUMPDEST PUSH1 0x40 MLOAD DUP1 SWAP2 SUB SWAP1 RETURN JUMPDEST CALLVALUE DUP1 ISZERO PUSH2 0x36F JUMPI PUSH1 0x0 DUP1 REVERT JUMPDEST POP PUSH2 0x38A PUSH1 0x4 DUP1 CALLDATASIZE SUB DUP2 ADD SWAP1 PUSH2 0x385 SWAP2 SWAP1 PUSH2 0x26EC JUMP JUMPDEST PUSH2 0xA7F JUMP JUMPDEST PUSH1 0x40 MLOAD PUSH2 0x39A SWAP5 SWAP4 SWAP3 SWAP2 SWAP1 PUSH2 0x274D JUMP JUMPDEST PUSH1 0x40 MLOAD DUP1 SWAP2 SUB SWAP1 RETURN JUMPDEST CALLVALUE DUP1 ISZERO PUSH2 0x3AF JUMPI PUSH1 0x0 DUP1 REVERT JUMPDEST POP PUSH2 0x3B8 PUSH2 0xABC JUMP JUMPDEST PUSH1 0x40 MLOAD PUSH2 0x3C5 SWAP2 SWAP1 PUSH2 0x259E JUMP JUMPDEST PUSH1 0x40 MLOAD DUP1 SWAP2 SUB SWAP1 RETURN JUMPDEST CALLVALUE DUP1 ISZERO PUSH2 0x3DA JUMPI PUSH1 0x0 DUP1 REVERT JUMPDEST POP PUSH2 0x3F5 PUSH1 0x4 DUP1 CALLDATASIZE SUB DUP2 ADD SWAP1 PUSH2 0x3F0 SWAP2 SWAP1 PUSH2 0x26EC JUMP JUMPDEST PUSH2 0xAC1 JUMP JUMPDEST PUSH1 0x40 MLOAD PUSH2 0x404 SWAP4 SWAP3 SWAP2 SWAP1 PUSH2 0x262A JUMP JUMPDEST PUSH1 0x40 MLOAD DUP1 SWAP2 SUB SWAP1 RETURN JUMPDEST CALLVALUE DUP1 ISZERO PUSH2 0x419 JUMPI PUSH1 0x0 DUP1 REVERT JUMPDEST POP PUSH2 0x422 PUSH2 0xB93 JUMP JUMPDEST STOP JUMPDEST CALLVALUE DUP1 ISZERO PUSH2 0x430 JUMPI PUSH1 0x0 DUP1 REVERT JUMPDEST POP PUSH2 0x439 PUSH2 0xE0E JUMP JUMPDEST PUSH1 0x40 MLOAD PUSH2 0x446 SWAP2 SWAP1 PUSH2 0x259E JUMP JUMPDEST PUSH1 0x40 MLOAD DUP1 SWAP2 SUB SWAP1 RETURN JUMPDEST CALLVALUE DUP1 ISZERO PUSH2 0x45B JUMPI PUSH1 0x0 DUP1 REVERT JUMPDEST POP PUSH2 0x464 PUSH2 0xE14 JUMP JUMPDEST PUSH1 0x40 MLOAD PUSH2 0x471 SWAP2 SWAP1 PUSH2 0x2792 JUMP JUMPDEST PUSH1 0x40 MLOAD DUP1 SWAP2 SUB SWAP1 RETURN JUMPDEST PUSH2 0x482 PUSH2 0xE2B JUMP JUMPDEST STOP JUMPDEST CALLVALUE DUP1 ISZERO PUSH2 0x490 JUMPI PUSH1 0x0 DUP1 REVERT JUMPDEST POP PUSH2 0x499 PUSH2 0xEBE JUMP JUMPDEST STOP JUMPDEST PUSH2 0x4A3 PUSH2 0xED2 JUMP JUMPDEST STOP JUMPDEST CALLVALUE DUP1 ISZERO PUSH2 0x4B1 JUMPI PUSH1 0x0 DUP1 REVERT JUMPDEST POP PUSH2 0x4BA PUSH2 0x156E JUMP JUMPDEST STOP JUMPDEST CALLVALUE DUP1 ISZERO PUSH2 0x4C8 JUMPI PUSH1 0x0 DUP1 REVERT JUMPDEST POP PUSH2 0x4E3 PUSH1 0x4 DUP1 CALLDATASIZE SUB DUP2 ADD SWAP1 PUSH2 0x4DE SWAP2 SWAP1 PUSH2 0x27D9 JUMP JUMPDEST PUSH2 0x1580 JUMP JUMPDEST STOP JUMPDEST CALLVALUE DUP1 ISZERO PUSH2 0x4F1 JUMPI PUSH1 0x0 DUP1 REVERT JUMPDEST POP PUSH2 0x4FA PUSH2 0x1C28 JUMP JUMPDEST PUSH1 0x40 MLOAD PUSH2 0x507 SWAP2 SWAP1 PUSH2 0x259E JUMP JUMPDEST PUSH1 0x40 MLOAD DUP1 SWAP2 SUB SWAP1 RETURN JUMPDEST CALLVALUE DUP1 ISZERO PUSH2 0x51C JUMPI PUSH1 0x0 DUP1 REVERT JUMPDEST POP PUSH2 0x525 PUSH2 0x1C2D JUMP JUMPDEST PUSH1 0x40 MLOAD PUSH2 0x532 SWAP2 SWAP1 PUSH2 0x259E JUMP JUMPDEST PUSH1 0x40 MLOAD DUP1 SWAP2 SUB SWAP1 RETURN JUMPDEST CALLVALUE DUP1 ISZERO PUSH2 0x547 JUMPI PUSH1 0x0 DUP1 REVERT JUMPDEST POP PUSH2 0x550 PUSH2 0x1C33 JUMP JUMPDEST PUSH1 0x40 MLOAD PUSH2 0x55D SWAP2 SWAP1 PUSH2 0x2815 JUMP JUMPDEST PUSH1 0x40 MLOAD DUP1 SWAP2 SUB SWAP1 RETURN JUMPDEST CALLVALUE DUP1 ISZERO PUSH2 0x572 JUMPI PUSH1 0x0 DUP1 REVERT JUMPDEST POP PUSH2 0x57B PUSH2 0x1C5C JUMP JUMPDEST PUSH1 0x40 MLOAD PUSH2 0x588 SWAP2 SWAP1 PUSH2 0x259E JUMP JUMPDEST PUSH1 0x40 MLOAD DUP1 SWAP2 SUB SWAP1 RETURN JUMPDEST CALLVALUE DUP1 ISZERO PUSH2 0x59D JUMPI PUSH1 0x0 DUP1 REVERT JUMPDEST POP PUSH2 0x5B8 PUSH1 0x4 DUP1 CALLDATASIZE SUB DUP2 ADD SWAP1 PUSH2 0x5B3 SWAP2 SWAP1 PUSH2 0x26EC JUMP JUMPDEST PUSH2 0x1C61 JUMP JUMPDEST PUSH1 0x40 MLOAD PUSH2 0x5C5 SWAP2 SWAP1 PUSH2 0x259E JUMP JUMPDEST PUSH1 0x40 MLOAD DUP1 SWAP2 SUB SWAP1 RETURN JUMPDEST CALLVALUE DUP1 ISZERO PUSH2 0x5DA JUMPI PUSH1 0x0 DUP1 REVERT JUMPDEST POP PUSH2 0x5E3 PUSH2 0x1C79 JUMP JUMPDEST PUSH1 0x40 MLOAD PUSH2 0x5F0 SWAP2 SWAP1 PUSH2 0x259E JUMP JUMPDEST PUSH1 0x40 MLOAD DUP1 SWAP2 SUB SWAP1 RETURN JUMPDEST CALLVALUE DUP1 ISZERO PUSH2 0x605 JUMPI PUSH1 0x0 DUP1 REVERT JUMPDEST POP PUSH2 0x60E PUSH2 0x1C7F JUMP JUMPDEST PUSH1 0x40 MLOAD PUSH2 0x61B SWAP2 SWAP1 PUSH2 0x259E JUMP JUMPDEST PUSH1 0x40 MLOAD DUP1 SWAP2 SUB SWAP1 RETURN JUMPDEST CALLVALUE DUP1 ISZERO PUSH2 0x630 JUMPI PUSH1 0x0 DUP1 REVERT JUMPDEST POP PUSH2 0x64B PUSH1 0x4 DUP1 CALLDATASIZE SUB DUP2 ADD SWAP1 PUSH2 0x646 SWAP2 SWAP1 PUSH2 0x26EC JUMP JUMPDEST PUSH2 0x1C85 JUMP JUMPDEST PUSH1 0x40 MLOAD PUSH2 0x658 SWAP2 SWAP1 PUSH2 0x259E JUMP JUMPDEST PUSH1 0x40 MLOAD DUP1 SWAP2 SUB SWAP1 RETURN JUMPDEST CALLVALUE DUP1 ISZERO PUSH2 0x66D JUMPI PUSH1 0x0 DUP1 REVERT JUMPDEST POP PUSH2 0x688 PUSH1 0x4 DUP1 CALLDATASIZE SUB DUP2 ADD SWAP1 PUSH2 0x683 SWAP2 SWAP1 PUSH2 0x26EC JUMP JUMPDEST PUSH2 0x1C9D JUMP JUMPDEST PUSH1 0x40 MLOAD PUSH2 0x699 SWAP6 SWAP5 SWAP4 SWAP3 SWAP2 SWAP1 PUSH2 0x2830 JUMP JUMPDEST PUSH1 0x40 MLOAD DUP1 SWAP2 SUB SWAP1 RETURN JUMPDEST PUSH2 0x6BC PUSH1 0x4 DUP1 CALLDATASIZE SUB DUP2 ADD SWAP1 PUSH2 0x6B7 SWAP2 SWAP1 PUSH2 0x27D9 JUMP JUMPDEST PUSH2 0x1D92 JUMP JUMPDEST STOP JUMPDEST CALLVALUE DUP1 ISZERO PUSH2 0x6CA JUMPI PUSH1 0x0 DUP1 REVERT JUMPDEST POP PUSH2 0x6E5 PUSH1 0x4 DUP1 CALLDATASIZE SUB DUP2 ADD SWAP1 PUSH2 0x6E0 SWAP2 SWAP1 PUSH2 0x26EC JUMP JUMPDEST PUSH2 0x209C JUMP JUMPDEST PUSH1 0x40 MLOAD PUSH2 0x6F2 SWAP2 SWAP1 PUSH2 0x259E JUMP JUMPDEST PUSH1 0x40 MLOAD DUP1 SWAP2 SUB SWAP1 RETURN JUMPDEST CALLVALUE DUP1 ISZERO PUSH2 0x707 JUMPI PUSH1 0x0 DUP1 REVERT JUMPDEST POP PUSH2 0x710 PUSH2 0x20B4 JUMP JUMPDEST STOP JUMPDEST CALLVALUE DUP1 ISZERO PUSH2 0x71E JUMPI PUSH1 0x0 DUP1 REVERT JUMPDEST POP PUSH2 0x739 PUSH1 0x4 DUP1 CALLDATASIZE SUB DUP2 ADD SWAP1 PUSH2 0x734 SWAP2 SWAP1 PUSH2 0x26EC JUMP JUMPDEST PUSH2 0x21F9 JUMP JUMPDEST PUSH1 0x40 MLOAD PUSH2 0x746 SWAP2 SWAP1 PUSH2 0x259E JUMP JUMPDEST PUSH1 0x40 MLOAD DUP1 SWAP2 SUB SWAP1 RETURN JUMPDEST CALLVALUE DUP1 ISZERO PUSH2 0x75B JUMPI PUSH1 0x0 DUP1 REVERT JUMPDEST POP PUSH2 0x776 PUSH1 0x4 DUP1 CALLDATASIZE SUB DUP2 ADD SWAP1 PUSH2 0x771 SWAP2 SWAP1 PUSH2 0x26EC JUMP JUMPDEST PUSH2 0x2211 JUMP JUMPDEST STOP JUMPDEST CALLVALUE DUP1 ISZERO PUSH2 0x784 JUMPI PUSH1 0x0 DUP1 REVERT JUMPDEST POP PUSH2 0x78D PUSH2 0x2297 JUMP JUMPDEST PUSH1 0x40 MLOAD PUSH2 0x79A SWAP2 SWAP1 PUSH2 0x259E JUMP JUMPDEST PUSH1 0x40 MLOAD DUP1 SWAP2 SUB SWAP1 RETURN JUMPDEST PUSH2 0x7AB PUSH2 0x229C JUMP JUMPDEST PUSH1 0x0 DUP3 GT PUSH2 0x7EE JUMPI PUSH1 0x40 MLOAD PUSH32 0x8C379A000000000000000000000000000000000000000000000000000000000 DUP2 MSTORE PUSH1 0x4 ADD PUSH2 0x7E5 SWAP1 PUSH2 0x28E0 JUMP JUMPDEST PUSH1 0x40 MLOAD DUP1 SWAP2 SUB SWAP1 REVERT JUMPDEST DUP1 DUP3 LT PUSH2 0x830 JUMPI PUSH1 0x40 MLOAD PUSH32 0x8C379A000000000000000000000000000000000000000000000000000000000 DUP2 MSTORE PUSH1 0x4 ADD PUSH2 0x827 SWAP1 PUSH2 0x294C JUMP JUMPDEST PUSH1 0x40 MLOAD DUP1 SWAP2 SUB SWAP1 REVERT JUMPDEST PUSH7 0x2386F26FC10000 DUP2 GT ISZERO PUSH2 0x87A JUMPI PUSH1 0x40 MLOAD PUSH32 0x8C379A000000000000000000000000000000000000000000000000000000000 DUP2 MSTORE PUSH1 0x4 ADD PUSH2 0x871 SWAP1 PUSH2 0x29B8 JUMP JUMPDEST PUSH1 0x40 MLOAD DUP1 SWAP2 SUB SWAP1 REVERT JUMPDEST DUP2 PUSH1 0x3 DUP2 SWAP1 SSTORE POP DUP1 PUSH1 0x4 DUP2 SWAP1 SSTORE POP PUSH32 0x936B3616D5072FA8F7381EF8E7C35D39BED9ECFB2184E908A56027AD5C0B6BC DUP3 DUP3 PUSH1 0x40 MLOAD PUSH2 0x8B9 SWAP3 SWAP2 SWAP1 PUSH2 0x29D8 JUMP JUMPDEST PUSH1 0x40 MLOAD DUP1 SWAP2 SUB SWAP1 LOG1 POP POP JUMP JUMPDEST PUSH1 0x0 DUP1 PUSH1 0x0 SELFBALANCE SWAP3 POP PUSH1 0x5 SLOAD SWAP1 POP DUP1 DUP4 GT PUSH2 0x8E0 JUMPI PUSH1 0x0 PUSH2 0x8ED JUMP JUMPDEST DUP1 DUP4 PUSH2 0x8EC SWAP2 SWAP1 PUSH2 0x2A30 JUMP JUMPDEST JUMPDEST SWAP2 POP SWAP1 SWAP2 SWAP3 JUMP JUMPDEST PUSH2 0x8FC PUSH2 0x229C JUMP JUMPDEST PUSH1 0x0 PUSH1 0x5 SLOAD SELFBALANCE PUSH2 0x90C SWAP2 SWAP1 PUSH2 0x2A30 JUMP JUMPDEST SWAP1 POP DUP1 DUP3 GT ISZERO PUSH2 0x951 JUMPI PUSH1 0x40 MLOAD PUSH32 0x8C379A000000000000000000000000000000000000000000000000000000000 DUP2 MSTORE PUSH1 0x4 ADD PUSH2 0x948 SWAP1 PUSH2 0x2AB0 JUMP JUMPDEST PUSH1 0x40 MLOAD DUP1 SWAP2 SUB SWAP1 REVERT JUMPDEST PUSH1 0x0 PUSH2 0x95B PUSH2 0x1C33 JUMP JUMPDEST PUSH20 0xFFFFFFFFFFFFFFFFFFFFFFFFFFFFFFFFFFFFFFFF AND DUP4 PUSH1 0x40 MLOAD PUSH2 0x97E SWAP1 PUSH2 0x2B01 JUMP JUMPDEST PUSH1 0x0 PUSH1 0x40 MLOAD DUP1 DUP4 SUB DUP2 DUP6 DUP8 GAS CALL SWAP3 POP POP POP RETURNDATASIZE DUP1 PUSH1 0x0 DUP2 EQ PUSH2 0x9BB JUMPI PUSH1 0x40 MLOAD SWAP2 POP PUSH1 0x1F NOT PUSH1 0x3F RETURNDATASIZE ADD AND DUP3 ADD PUSH1 0x40 MSTORE RETURNDATASIZE DUP3 MSTORE RETURNDATASIZE PUSH1 0x0 PUSH1 0x20 DUP5 ADD RETURNDATACOPY PUSH2 0x9C0 JUMP JUMPDEST PUSH1 0x60 SWAP2 POP JUMPDEST POP POP SWAP1 POP DUP1 PUSH2 0xA04 JUMPI PUSH1 0x40 MLOAD PUSH32 0x8C379A000000000000000000000000000000000000000000000000000000000 DUP2 MSTORE PUSH1 0x4 ADD PUSH2 0x9FB SWAP1 PUSH2 0x2B62 JUMP JUMPDEST PUSH1 0x40 MLOAD DUP1 SWAP2 SUB SWAP1 REVERT JUMPDEST CALLER PUSH20 0xFFFFFFFFFFFFFFFFFFFFFFFFFFFFFFFFFFFFFFFF AND PUSH32 0xC1AE3C9B226D59664936FCE829386F650F894B9351EEC61063245C521161A473 DUP5 PUSH1 0x5 SLOAD PUSH1 0x40 MLOAD PUSH2 0xA4E SWAP3 SWAP2 SWAP1 PUSH2 0x29D8 JUMP JUMPDEST PUSH1 0x40 MLOAD DUP1 SWAP2 SUB SWAP1 LOG2 POP POP POP JUMP JUMPDEST PUSH1 0x4 SLOAD DUP2 JUMP JUMPDEST PUSH2 0x100 DUP2 JUMP JUMPDEST PUSH2 0xA6F PUSH2 0x229C JUMP JUMPDEST PUSH2 0xA77 PUSH2 0x2323 JUMP JUMPDEST JUMP JUMPDEST PUSH1 0x7 SLOAD DUP2 JUMP JUMPDEST PUSH1 0xD PUSH1 0x20 MSTORE DUP1 PUSH1 0x0 MSTORE PUSH1 0x40 PUSH1 0x0 KECCAK256 PUSH1 0x0 SWAP2 POP SWAP1 POP DUP1 PUSH1 0x0 ADD SLOAD SWAP1 DUP1 PUSH1 0x1 ADD SLOAD SWAP1 DUP1 PUSH1 0x2 ADD SLOAD SWAP1 DUP1 PUSH1 0x3 ADD PUSH1 0x0 SWAP1 SLOAD SWAP1 PUSH2 0x100 EXP SWAP1 DIV PUSH1 0xFF AND SWAP1 POP DUP5 JUMP JUMPDEST PUSH1 0x2 DUP2 JUMP JUMPDEST PUSH1 0x0 DUP1 PUSH1 0x0 PUSH1 0x9 PUSH1 0x0 DUP6 PUSH20 0xFFFFFFFFFFFFFFFFFFFFFFFFFFFFFFFFFFFFFFFF AND PUSH20 0xFFFFFFFFFFFFFFFFFFFFFFFFFFFFFFFFFFFFFFFF AND DUP2 MSTORE PUSH1 0x20 ADD SWAP1 DUP2 MSTORE PUSH1 0x20 ADD PUSH1 0x0 KECCAK256 SLOAD PUSH1 0xA PUSH1 0x0 DUP7 PUSH20 0xFFFFFFFFFFFFFFFFFFFFFFFFFFFFFFFFFFFFFFFF AND PUSH20 0xFFFFFFFFFFFFFFFFFFFFFFFFFFFFFFFFFFFFFFFF AND DUP2 MSTORE PUSH1 0x20 ADD SWAP1 DUP2 MSTORE PUSH1 0x20 ADD PUSH1 0x0 KECCAK256 SLOAD PUSH1 0xB PUSH1 0x0 DUP8 PUSH20 0xFFFFFFFFFFFFFFFFFFFFFFFFFFFFFFFFFFFFFFFF AND PUSH20 0xFFFFFFFFFFFFFFFFFFFFFFFFFFFFFFFFFFFFFFFF AND DUP2 MSTORE PUSH1 0x20 ADD SWAP1 DUP2 MSTORE PUSH1 0x20 ADD PUSH1 0x0 KECCAK256 SLOAD SWAP3 POP SWAP3 POP SWAP3 POP SWAP2 SWAP4 SWAP1 SWAP3 POP JUMP JUMPDEST PUSH2 0xB9B PUSH2 0x2386 JUMP JUMPDEST PUSH1 0x0 PUSH1 0xD PUSH1 0x0 CALLER PUSH20 0xFFFFFFFFFFFFFFFFFFFFFFFFFFFFFFFFFFFFFFFF AND PUSH20 0xFFFFFFFFFFFFFFFFFFFFFFFFFFFFFFFFFFFFFFFF AND DUP2 MSTORE PUSH1 0x20 ADD SWAP1 DUP2 MSTORE PUSH1 0x20 ADD PUSH1 0x0 KECCAK256 SWAP1 POP PUSH1 0x0 DUP2 PUSH1 0x0 ADD SLOAD EQ DUP1 PUSH2 0xBFF JUMPI POP DUP1 PUSH1 0x3 ADD PUSH1 0x0 SWAP1 SLOAD SWAP1 PUSH2 0x100 EXP SWAP1 DIV PUSH1 0xFF AND JUMPDEST ISZERO PUSH2 0xC36 JUMPI PUSH1 0x40 MLOAD PUSH32 0x9D46544500000000000000000000000000000000000000000000000000000000 DUP2 MSTORE PUSH1 0x4 ADD PUSH1 0x40 MLOAD DUP1 SWAP2 SUB SWAP1 REVERT JUMPDEST PUSH2 0x100 DUP2 PUSH1 0x1 ADD SLOAD PUSH2 0xC48 SWAP2 SWAP1 PUSH2 0x2B82 JUMP JUMPDEST NUMBER GT PUSH2 0xCAA JUMPI NUMBER PUSH1 0x1 PUSH2 0x100 DUP4 PUSH1 0x1 ADD SLOAD PUSH2 0xC63 SWAP2 SWAP1 PUSH2 0x2B82 JUMP JUMPDEST PUSH2 0xC6D SWAP2 SWAP1 PUSH2 0x2B82 JUMP JUMPDEST PUSH1 0x40 MLOAD PUSH32 0xC167E8FA00000000000000000000000000000000000000000000000000000000 DUP2 MSTORE PUSH1 0x4 ADD PUSH2 0xCA1 SWAP3 SWAP2 SWAP1 PUSH2 0x29D8 JUMP JUMPDEST PUSH1 0x40 MLOAD DUP1 SWAP2 SUB SWAP1 REVERT JUMPDEST PUSH1 0x1 DUP2 PUSH1 0x3 ADD PUSH1 0x0 PUSH2 0x100 EXP DUP2 SLOAD DUP2 PUSH1 0xFF MUL NOT AND SWAP1 DUP4 ISZERO ISZERO MUL OR SWAP1 SSTORE POP PUSH1 0x0 DUP2 PUSH1 0x0 ADD SLOAD SWAP1 POP PUSH1 0x0 PUSH1 0x64 PUSH1 0xBE DUP4 PUSH2 0xCE1 SWAP2 SWAP1 PUSH2 0x2BB6 JUMP JUMPDEST PUSH2 0xCEB SWAP2 SWAP1 PUSH2 0x2C27 JUMP JUMPDEST SWAP1 POP DUP1 PUSH1 0x5 PUSH1 0x0 DUP3 DUP3 SLOAD PUSH2 0xCFF SWAP2 SWAP1 PUSH2 0x2A30 JUMP JUMPDEST SWAP3 POP POP DUP2 SWAP1 SSTORE POP PUSH1 0x0 CALLER PUSH20 0xFFFFFFFFFFFFFFFFFFFFFFFFFFFFFFFFFFFFFFFF AND DUP4 PUSH1 0x40 MLOAD PUSH2 0xD2C SWAP1 PUSH2 0x2B01 JUMP JUMPDEST PUSH1 0x0 PUSH1 0x40 MLOAD DUP1 DUP4 SUB DUP2 DUP6 DUP8 GAS CALL SWAP3 POP POP POP RETURNDATASIZE DUP1 PUSH1 0x0 DUP2 EQ PUSH2 0xD69 JUMPI PUSH1 0x40 MLOAD SWAP2 POP PUSH1 0x1F NOT PUSH1 0x3F RETURNDATASIZE ADD AND DUP3 ADD PUSH1 0x40 MSTORE RETURNDATASIZE DUP3 MSTORE RETURNDATASIZE PUSH1 0x0 PUSH1 0x20 DUP5 ADD RETURNDATACOPY PUSH2 0xD6E JUMP JUMPDEST PUSH1 0x60 SWAP2 POP JUMPDEST POP POP SWAP1 POP DUP1 PUSH2 0xDB2 JUMPI PUSH1 0x40 MLOAD PUSH32 0x8C379A000000000000000000000000000000000000000000000000000000000 DUP2 MSTORE PUSH1 0x4 ADD PUSH2 0xDA9 SWAP1 PUSH2 0x2CA4 JUMP JUMPDEST PUSH1 0x40 MLOAD DUP1 SWAP2 SUB SWAP1 REVERT JUMPDEST CALLER PUSH20 0xFFFFFFFFFFFFFFFFFFFFFFFFFFFFFFFFFFFFFFFF AND PUSH32 0x39381F757671E194C7C71915E8906307BAE612DC6A68AF4FF70E8BA61919813F DUP5 PUSH1 0x40 MLOAD PUSH2 0xDF8 SWAP2 SWAP1 PUSH2 0x2D10 JUMP JUMPDEST PUSH1 0x40 MLOAD DUP1 SWAP2 SUB SWAP1 LOG2 POP POP POP POP PUSH2 0xE0C PUSH2 0x23CC JUMP JUMPDEST JUMP JUMPDEST PUSH1 0x6 SLOAD DUP2 JUMP JUMPDEST PUSH1 0x0 PUSH1 0x2 PUSH1 0x0 SWAP1 SLOAD SWAP1 PUSH2 0x100 EXP SWAP1 DIV PUSH1 0xFF AND SWAP1 POP SWAP1 JUMP JUMPDEST PUSH1 0x0 CALLVALUE GT PUSH2 0xE6E JUMPI PUSH1 0x40 MLOAD PUSH32 0x8C379A000000000000000000000000000000000000000000000000000000000 DUP2 MSTORE PUSH1 0x4 ADD PUSH2 0xE65 SWAP1 PUSH2 0x2D8A JUMP JUMPDEST PUSH1 0x40 MLOAD DUP1 SWAP2 SUB SWAP1 REVERT JUMPDEST CALLER PUSH20 0xFFFFFFFFFFFFFFFFFFFFFFFFFFFFFFFFFFFFFFFF AND PUSH32 0x5C963FD7FDE519AF29D56159E6E3E18DB4E5D3E4716C39C87958CF9E4862ED58 CALLVALUE PUSH1 0x40 MLOAD PUSH2 0xEB4 SWAP2 SWAP1 PUSH2 0x259E JUMP JUMPDEST PUSH1 0x40 MLOAD DUP1 SWAP2 SUB SWAP1 LOG2 JUMP JUMPDEST PUSH2 0xEC6 PUSH2 0x229C JUMP JUMPDEST PUSH2 0xED0 PUSH1 0x0 PUSH2 0x23D5 JUMP JUMPDEST JUMP JUMPDEST PUSH2 0xEDA PUSH2 0x2386 JUMP JUMPDEST PUSH2 0xEE2 PUSH2 0x2499 JUMP JUMPDEST ORIGIN PUSH20 0xFFFFFFFFFFFFFFFFFFFFFFFFFFFFFFFFFFFFFFFF AND CALLER PUSH20 0xFFFFFFFFFFFFFFFFFFFFFFFFFFFFFFFFFFFFFFFF AND EQ PUSH2 0xF50 JUMPI PUSH1 0x40 MLOAD PUSH32 0x8C379A000000000000000000000000000000000000000000000000000000000 DUP2 MSTORE PUSH1 0x4 ADD PUSH2 0xF47 SWAP1 PUSH2 0x2DF6 JUMP JUMPDEST PUSH1 0x40 MLOAD DUP1 SWAP2 SUB SWAP1 REVERT JUMPDEST PUSH1 0x3 SLOAD CALLVALUE LT ISZERO PUSH2 0xF9B JUMPI CALLVALUE PUSH1 0x3 SLOAD PUSH1 0x40 MLOAD PUSH32 0xAC4D5CF800000000000000000000000000000000000000000000000000000000 DUP2 MSTORE PUSH1 0x4 ADD PUSH2 0xF92 SWAP3 SWAP2 SWAP1 PUSH2 0x29D8 JUMP JUMPDEST PUSH1 0x40 MLOAD DUP1 SWAP2 SUB SWAP1 REVERT JUMPDEST PUSH1 0x4 SLOAD CALLVALUE GT ISZERO PUSH2 0xFE6 JUMPI CALLVALUE PUSH1 0x4 SLOAD PUSH1 0x40 MLOAD PUSH32 0x69DA332C00000000000000000000000000000000000000000000000000000000 DUP2 MSTORE PUSH1 0x4 ADD PUSH2 0xFDD SWAP3 SWAP2 SWAP1 PUSH2 0x29D8 JUMP JUMPDEST PUSH1 0x40 MLOAD DUP1 SWAP2 SUB SWAP1 REVERT JUMPDEST PUSH1 0x0 PUSH1 0x64 PUSH1 0xBE CALLVALUE PUSH2 0xFF7 SWAP2 SWAP1 PUSH2 0x2BB6 JUMP JUMPDEST PUSH2 0x1001 SWAP2 SWAP1 PUSH2 0x2C27 JUMP JUMPDEST SWAP1 POP PUSH1 0x0 CALLVALUE SELFBALANCE PUSH2 0x1011 SWAP2 SWAP1 PUSH2 0x2A30 JUMP JUMPDEST SWAP1 POP DUP2 DUP2 LT ISZERO PUSH2 0x111D JUMPI PUSH1 0x0 CALLER PUSH20 0xFFFFFFFFFFFFFFFFFFFFFFFFFFFFFFFFFFFFFFFF AND CALLVALUE PUSH1 0x40 MLOAD PUSH2 0x1041 SWAP1 PUSH2 0x2B01 JUMP JUMPDEST PUSH1 0x0 PUSH1 0x40 MLOAD DUP1 DUP4 SUB DUP2 DUP6 DUP8 GAS CALL SWAP3 POP POP POP RETURNDATASIZE DUP1 PUSH1 0x0 DUP2 EQ PUSH2 0x107E JUMPI PUSH1 0x40 MLOAD SWAP2 POP PUSH1 0x1F NOT PUSH1 0x3F RETURNDATASIZE ADD AND DUP3 ADD PUSH1 0x40 MSTORE RETURNDATASIZE DUP3 MSTORE RETURNDATASIZE PUSH1 0x0 PUSH1 0x20 DUP5 ADD RETURNDATACOPY PUSH2 0x1083 JUMP JUMPDEST PUSH1 0x60 SWAP2 POP JUMPDEST POP POP SWAP1 POP DUP1 PUSH2 0x10C7 JUMPI PUSH1 0x40 MLOAD PUSH32 0x8C379A000000000000000000000000000000000000000000000000000000000 DUP2 MSTORE PUSH1 0x4 ADD PUSH2 0x10BE SWAP1 PUSH2 0x2CA4 JUMP JUMPDEST PUSH1 0x40 MLOAD DUP1 SWAP2 SUB SWAP1 REVERT JUMPDEST CALLER PUSH20 0xFFFFFFFFFFFFFFFFFFFFFFFFFFFFFFFFFFFFFFFF AND PUSH32 0x39381F757671E194C7C71915E8906307BAE612DC6A68AF4FF70E8BA61919813F CALLVALUE PUSH1 0x40 MLOAD PUSH2 0x110D SWAP2 SWAP1 PUSH2 0x2E62 JUMP JUMPDEST PUSH1 0x40 MLOAD DUP1 SWAP2 SUB SWAP1 LOG2 POP POP POP PUSH2 0x1564 JUMP JUMPDEST PUSH1 0x0 PUSH1 0x64 PREVRANDAO TIMESTAMP CALLER PUSH1 0x6 SLOAD PUSH1 0x1 NUMBER PUSH2 0x1134 SWAP2 SWAP1 PUSH2 0x2A30 JUMP JUMPDEST BLOCKHASH PUSH1 0x40 MLOAD PUSH1 0x20 ADD PUSH2 0x1149 SWAP6 SWAP5 SWAP4 SWAP3 SWAP2 SWAP1 PUSH2 0x2F1A JUMP JUMPDEST PUSH1 0x40 MLOAD PUSH1 0x20 DUP2 DUP4 SUB SUB DUP2 MSTORE SWAP1 PUSH1 0x40 MSTORE DUP1 MLOAD SWAP1 PUSH1 0x20 ADD KECCAK256 PUSH1 0x0 SHR PUSH2 0x116C SWAP2 SWAP1 PUSH2 0x2F79 JUMP JUMPDEST SWAP1 POP PUSH1 0x0 PUSH1 0xC PUSH1 0x0 CALLER PUSH20 0xFFFFFFFFFFFFFFFFFFFFFFFFFFFFFFFFFFFFFFFF AND PUSH20 0xFFFFFFFFFFFFFFFFFFFFFFFFFFFFFFFFFFFFFFFF AND DUP2 MSTORE PUSH1 0x20 ADD SWAP1 DUP2 MSTORE PUSH1 0x20 ADD PUSH1 0x0 KECCAK256 SLOAD SWAP1 POP PUSH1 0x0 PUSH1 0xA SWAP1 POP PUSH1 0x0 PUSH1 0x23 SWAP1 POP PUSH1 0x2 DUP4 LT PUSH2 0x11CF JUMPI PUSH1 0x5 SWAP2 POP PUSH1 0x14 SWAP1 POP JUMPDEST PUSH1 0x0 DUP1 DUP4 DUP7 LT ISZERO PUSH2 0x1253 JUMPI PUSH1 0x2 SWAP2 POP PUSH1 0x64 PUSH1 0xBE CALLVALUE PUSH2 0x11ED SWAP2 SWAP1 PUSH2 0x2BB6 JUMP JUMPDEST PUSH2 0x11F7 SWAP2 SWAP1 PUSH2 0x2C27 JUMP JUMPDEST SWAP1 POP PUSH1 0xC PUSH1 0x0 CALLER PUSH20 0xFFFFFFFFFFFFFFFFFFFFFFFFFFFFFFFFFFFFFFFF AND PUSH20 0xFFFFFFFFFFFFFFFFFFFFFFFFFFFFFFFFFFFFFFFF AND DUP2 MSTORE PUSH1 0x20 ADD SWAP1 DUP2 MSTORE PUSH1 0x20 ADD PUSH1 0x0 KECCAK256 PUSH1 0x0 DUP2 SLOAD DUP1 SWAP3 SWAP2 SWAP1 PUSH2 0x1249 SWAP1 PUSH2 0x2FAA JUMP JUMPDEST SWAP2 SWAP1 POP SSTORE POP PUSH2 0x1307 JUMP JUMPDEST DUP3 DUP7 LT ISZERO PUSH2 0x12B8 JUMPI PUSH1 0x1 SWAP2 POP PUSH1 0x2 CALLVALUE PUSH2 0x126C SWAP2 SWAP1 PUSH2 0x2C27 JUMP JUMPDEST SWAP1 POP PUSH1 0x0 PUSH1 0xC PUSH1 0x0 CALLER PUSH20 0xFFFFFFFFFFFFFFFFFFFFFFFFFFFFFFFFFFFFFFFF AND PUSH20 0xFFFFFFFFFFFFFFFFFFFFFFFFFFFFFFFFFFFFFFFF AND DUP2 MSTORE PUSH1 0x20 ADD SWAP1 DUP2 MSTORE PUSH1 0x20 ADD PUSH1 0x0 KECCAK256 DUP2 SWAP1 SSTORE POP PUSH2 0x1306 JUMP JUMPDEST PUSH1 0x0 SWAP2 POP PUSH1 0x0 SWAP1 POP PUSH1 0x0 PUSH1 0xC PUSH1 0x0 CALLER PUSH20 0xFFFFFFFFFFFFFFFFFFFFFFFFFFFFFFFFFFFFFFFF AND PUSH20 0xFFFFFFFFFFFFFFFFFFFFFFFFFFFFFFFFFFFFFFFF AND DUP2 MSTORE PUSH1 0x20 ADD SWAP1 DUP2 MSTORE PUSH1 0x20 ADD PUSH1 0x0 KECCAK256 DUP2 SWAP1 SSTORE POP JUMPDEST JUMPDEST PUSH1 0x6 PUSH1 0x0 DUP2 SLOAD DUP1 SWAP3 SWAP2 SWAP1 PUSH2 0x131A SWAP1 PUSH2 0x2FAA JUMP JUMPDEST SWAP2 SWAP1 POP SSTORE POP CALLVALUE PUSH1 0x8 PUSH1 0x0 DUP3 DUP3 SLOAD PUSH2 0x1331 SWAP2 SWAP1 PUSH2 0x2B82 JUMP JUMPDEST SWAP3 POP POP DUP2 SWAP1 SSTORE POP PUSH1 0x9 PUSH1 0x0 CALLER PUSH20 0xFFFFFFFFFFFFFFFFFFFFFFFFFFFFFFFFFFFFFFFF AND PUSH20 0xFFFFFFFFFFFFFFFFFFFFFFFFFFFFFFFFFFFFFFFF AND DUP2 MSTORE PUSH1 0x20 ADD SWAP1 DUP2 MSTORE PUSH1 0x20 ADD PUSH1 0x0 KECCAK256 PUSH1 0x0 DUP2 SLOAD DUP1 SWAP3 SWAP2 SWAP1 PUSH2 0x1388 SWAP1 PUSH2 0x2FAA JUMP JUMPDEST SWAP2 SWAP1 POP SSTORE POP CALLVALUE PUSH1 0xB PUSH1 0x0 CALLER PUSH20 0xFFFFFFFFFFFFFFFFFFFFFFFFFFFFFFFFFFFFFFFF AND PUSH20 0xFFFFFFFFFFFFFFFFFFFFFFFFFFFFFFFFFFFFFFFF AND DUP2 MSTORE PUSH1 0x20 ADD SWAP1 DUP2 MSTORE PUSH1 0x20 ADD PUSH1 0x0 KECCAK256 PUSH1 0x0 DUP3 DUP3 SLOAD PUSH2 0x13DC SWAP2 SWAP1 PUSH2 0x2B82 JUMP JUMPDEST SWAP3 POP POP DUP2 SWAP1 SSTORE POP PUSH1 0x0 DUP2 GT ISZERO PUSH2 0x1509 JUMPI DUP1 PUSH1 0x7 PUSH1 0x0 DUP3 DUP3 SLOAD PUSH2 0x13FE SWAP2 SWAP1 PUSH2 0x2B82 JUMP JUMPDEST SWAP3 POP POP DUP2 SWAP1 SSTORE POP DUP1 PUSH1 0xA PUSH1 0x0 CALLER PUSH20 0xFFFFFFFFFFFFFFFFFFFFFFFFFFFFFFFFFFFFFFFF AND PUSH20 0xFFFFFFFFFFFFFFFFFFFFFFFFFFFFFFFFFFFFFFFF AND DUP2 MSTORE PUSH1 0x20 ADD SWAP1 DUP2 MSTORE PUSH1 0x20 ADD PUSH1 0x0 KECCAK256 PUSH1 0x0 DUP3 DUP3 SLOAD PUSH2 0x1454 SWAP2 SWAP1 PUSH2 0x2B82 JUMP JUMPDEST SWAP3 POP POP DUP2 SWAP1 SSTORE POP PUSH1 0x0 CALLER PUSH20 0xFFFFFFFFFFFFFFFFFFFFFFFFFFFFFFFFFFFFFFFF AND DUP3 PUSH1 0x40 MLOAD PUSH2 0x1481 SWAP1 PUSH2 0x2B01 JUMP JUMPDEST PUSH1 0x0 PUSH1 0x40 MLOAD DUP1 DUP4 SUB DUP2 DUP6 DUP8 GAS CALL SWAP3 POP POP POP RETURNDATASIZE DUP1 PUSH1 0x0 DUP2 EQ PUSH2 0x14BE JUMPI PUSH1 0x40 MLOAD SWAP2 POP PUSH1 0x1F NOT PUSH1 0x3F RETURNDATASIZE ADD AND DUP3 ADD PUSH1 0x40 MSTORE RETURNDATASIZE DUP3 MSTORE RETURNDATASIZE PUSH1 0x0 PUSH1 0x20 DUP5 ADD RETURNDATACOPY PUSH2 0x14C3 JUMP JUMPDEST PUSH1 0x60 SWAP2 POP JUMPDEST POP POP SWAP1 POP DUP1 PUSH2 0x1507 JUMPI PUSH1 0x40 MLOAD PUSH32 0x8C379A000000000000000000000000000000000000000000000000000000000 DUP2 MSTORE PUSH1 0x4 ADD PUSH2 0x14FE SWAP1 PUSH2 0x303E JUMP JUMPDEST PUSH1 0x40 MLOAD DUP1 SWAP2 SUB SWAP1 REVERT JUMPDEST POP JUMPDEST CALLER PUSH20 0xFFFFFFFFFFFFFFFFFFFFFFFFFFFFFFFFFFFFFFFF AND PUSH32 0xF5BCDA99D24AE05CED738A386EEC191FD64E9DEF75392EB5F4CBA1205923BB7C CALLVALUE DUP5 DUP5 PUSH1 0x40 MLOAD PUSH2 0x1553 SWAP4 SWAP3 SWAP2 SWAP1 PUSH2 0x307A JUMP JUMPDEST PUSH1 0x40 MLOAD DUP1 SWAP2 SUB SWAP1 LOG2 POP POP POP POP POP POP POP POP JUMPDEST PUSH2 0x156C PUSH2 0x23CC JUMP JUMPDEST JUMP JUMPDEST PUSH2 0x1576 PUSH2 0x229C JUMP JUMPDEST PUSH2 0x157E PUSH2 0x24DA JUMP JUMPDEST JUMP JUMPDEST PUSH2 0x1588 PUSH2 0x2386 JUMP JUMPDEST PUSH2 0x1590 PUSH2 0x2499 JUMP JUMPDEST PUSH1 0x0 PUSH1 0xD PUSH1 0x0 CALLER PUSH20 0xFFFFFFFFFFFFFFFFFFFFFFFFFFFFFFFFFFFFFFFF AND PUSH20 0xFFFFFFFFFFFFFFFFFFFFFFFFFFFFFFFFFFFFFFFF AND DUP2 MSTORE PUSH1 0x20 ADD SWAP1 DUP2 MSTORE PUSH1 0x20 ADD PUSH1 0x0 KECCAK256 SWAP1 POP PUSH1 0x0 DUP2 PUSH1 0x0 ADD SLOAD EQ DUP1 PUSH2 0x15F4 JUMPI POP DUP1 PUSH1 0x3 ADD PUSH1 0x0 SWAP1 SLOAD SWAP1 PUSH2 0x100 EXP SWAP1 DIV PUSH1 0xFF AND JUMPDEST ISZERO PUSH2 0x162B JUMPI PUSH1 0x40 MLOAD PUSH32 0x9D46544500000000000000000000000000000000000000000000000000000000 DUP2 MSTORE PUSH1 0x4 ADD PUSH1 0x40 MLOAD DUP1 SWAP2 SUB SWAP1 REVERT JUMPDEST PUSH1 0x1 DUP2 PUSH1 0x1 ADD SLOAD PUSH2 0x163C SWAP2 SWAP1 PUSH2 0x2B82 JUMP JUMPDEST NUMBER GT PUSH2 0x169C JUMPI NUMBER PUSH1 0x1 DUP1 DUP4 PUSH1 0x1 ADD SLOAD PUSH2 0x1655 SWAP2 SWAP1 PUSH2 0x2B82 JUMP JUMPDEST PUSH2 0x165F SWAP2 SWAP1 PUSH2 0x2B82 JUMP JUMPDEST PUSH1 0x40 MLOAD PUSH32 0xC167E8FA00000000000000000000000000000000000000000000000000000000 DUP2 MSTORE PUSH1 0x4 ADD PUSH2 0x1693 SWAP3 SWAP2 SWAP1 PUSH2 0x29D8 JUMP JUMPDEST PUSH1 0x40 MLOAD DUP1 SWAP2 SUB SWAP1 REVERT JUMPDEST PUSH2 0x100 DUP2 PUSH1 0x1 ADD SLOAD PUSH2 0x16AE SWAP2 SWAP1 PUSH2 0x2B82 JUMP JUMPDEST NUMBER GT ISZERO PUSH2 0x1705 JUMPI NUMBER PUSH2 0x100 DUP3 PUSH1 0x1 ADD SLOAD PUSH2 0x16C8 SWAP2 SWAP1 PUSH2 0x2B82 JUMP JUMPDEST PUSH1 0x40 MLOAD PUSH32 0x64175DAD00000000000000000000000000000000000000000000000000000000 DUP2 MSTORE PUSH1 0x4 ADD PUSH2 0x16FC SWAP3 SWAP2 SWAP1 PUSH2 0x29D8 JUMP JUMPDEST PUSH1 0x40 MLOAD DUP1 SWAP2 SUB SWAP1 REVERT JUMPDEST PUSH1 0x0 DUP3 CALLER PUSH1 0x40 MLOAD PUSH1 0x20 ADD PUSH2 0x171A SWAP3 SWAP2 SWAP1 PUSH2 0x30B1 JUMP JUMPDEST PUSH1 0x40 MLOAD PUSH1 0x20 DUP2 DUP4 SUB SUB DUP2 MSTORE SWAP1 PUSH1 0x40 MSTORE DUP1 MLOAD SWAP1 PUSH1 0x20 ADD KECCAK256 SWAP1 POP DUP2 PUSH1 0x2 ADD SLOAD DUP2 EQ PUSH2 0x176F JUMPI PUSH1 0x40 MLOAD PUSH32 0x9EA6D12700000000000000000000000000000000000000000000000000000000 DUP2 MSTORE PUSH1 0x4 ADD PUSH1 0x40 MLOAD DUP1 SWAP2 SUB SWAP1 REVERT JUMPDEST PUSH1 0x1 DUP3 PUSH1 0x3 ADD PUSH1 0x0 PUSH2 0x100 EXP DUP2 SLOAD DUP2 PUSH1 0xFF MUL NOT AND SWAP1 DUP4 ISZERO ISZERO MUL OR SWAP1 SSTORE POP PUSH1 0x0 DUP3 PUSH1 0x0 ADD SLOAD SWAP1 POP PUSH1 0x0 PUSH1 0x64 PUSH1 0xBE DUP4 PUSH2 0x17A6 SWAP2 SWAP1 PUSH2 0x2BB6 JUMP JUMPDEST PUSH2 0x17B0 SWAP2 SWAP1 PUSH2 0x2C27 JUMP JUMPDEST SWAP1 POP DUP1 PUSH1 0x5 PUSH1 0x0 DUP3 DUP3 SLOAD PUSH2 0x17C4 SWAP2 SWAP1 PUSH2 0x2A30 JUMP JUMPDEST SWAP3 POP POP DUP2 SWAP1 SSTORE POP PUSH1 0x0 PUSH1 0x1 DUP6 PUSH1 0x1 ADD SLOAD PUSH2 0x17DE SWAP2 SWAP1 PUSH2 0x2B82 JUMP JUMPDEST BLOCKHASH SWAP1 POP PUSH1 0x0 PUSH1 0x64 DUP8 DUP4 CALLER DUP10 PUSH1 0x1 ADD SLOAD PUSH1 0x40 MLOAD PUSH1 0x20 ADD PUSH2 0x1800 SWAP5 SWAP4 SWAP3 SWAP2 SWAP1 PUSH2 0x30DD JUMP JUMPDEST PUSH1 0x40 MLOAD PUSH1 0x20 DUP2 DUP4 SUB SUB DUP2 MSTORE SWAP1 PUSH1 0x40 MSTORE DUP1 MLOAD SWAP1 PUSH1 0x20 ADD KECCAK256 PUSH1 0x0 SHR PUSH2 0x1823 SWAP2 SWAP1 PUSH2 0x2F79 JUMP JUMPDEST SWAP1 POP PUSH1 0x0 PUSH1 0xC PUSH1 0x0 CALLER PUSH20 0xFFFFFFFFFFFFFFFFFFFFFFFFFFFFFFFFFFFFFFFF AND PUSH20 0xFFFFFFFFFFFFFFFFFFFFFFFFFFFFFFFFFFFFFFFF AND DUP2 MSTORE PUSH1 0x20 ADD SWAP1 DUP2 MSTORE PUSH1 0x20 ADD PUSH1 0x0 KECCAK256 SLOAD SWAP1 POP PUSH1 0x0 PUSH1 0xA SWAP1 POP PUSH1 0x0 PUSH1 0x23 SWAP1 POP PUSH1 0x2 DUP4 LT PUSH2 0x1886 JUMPI PUSH1 0x5 SWAP2 POP PUSH1 0x14 SWAP1 POP JUMPDEST PUSH1 0x0 DUP1 DUP4 DUP7 LT ISZERO PUSH2 0x190A JUMPI PUSH1 0x2 SWAP2 POP PUSH1 0x64 PUSH1 0xBE DUP11 PUSH2 0x18A4 SWAP2 SWAP1 PUSH2 0x2BB6 JUMP JUMPDEST PUSH2 0x18AE SWAP2 SWAP1 PUSH2 0x2C27 JUMP JUMPDEST SWAP1 POP PUSH1 0xC PUSH1 0x0 CALLER PUSH20 0xFFFFFFFFFFFFFFFFFFFFFFFFFFFFFFFFFFFFFFFF AND PUSH20 0xFFFFFFFFFFFFFFFFFFFFFFFFFFFFFFFFFFFFFFFF AND DUP2 MSTORE PUSH1 0x20 ADD SWAP1 DUP2 MSTORE PUSH1 0x20 ADD PUSH1 0x0 KECCAK256 PUSH1 0x0 DUP2 SLOAD DUP1 SWAP3 SWAP2 SWAP1 PUSH2 0x1900 SWAP1 PUSH2 0x2FAA JUMP JUMPDEST SWAP2 SWAP1 POP SSTORE POP PUSH2 0x19BE JUMP JUMPDEST DUP3 DUP7 LT ISZERO PUSH2 0x196F JUMPI PUSH1 0x1 SWAP2 POP PUSH1 0x2 DUP10 PUSH2 0x1923 SWAP2 SWAP1 PUSH2 0x2C27 JUMP JUMPDEST SWAP1 POP PUSH1 0x0 PUSH1 0xC PUSH1 0x0 CALLER PUSH20 0xFFFFFFFFFFFFFFFFFFFFFFFFFFFFFFFFFFFFFFFF AND PUSH20 0xFFFFFFFFFFFFFFFFFFFFFFFFFFFFFFFFFFFFFFFF AND DUP2 MSTORE PUSH1 0x20 ADD SWAP1 DUP2 MSTORE PUSH1 0x20 ADD PUSH1 0x0 KECCAK256 DUP2 SWAP1 SSTORE POP PUSH2 0x19BD JUMP JUMPDEST PUSH1 0x0 SWAP2 POP PUSH1 0x0 SWAP1 POP PUSH1 0x0 PUSH1 0xC PUSH1 0x0 CALLER PUSH20 0xFFFFFFFFFFFFFFFFFFFFFFFFFFFFFFFFFFFFFFFF AND PUSH20 0xFFFFFFFFFFFFFFFFFFFFFFFFFFFFFFFFFFFFFFFF AND DUP2 MSTORE PUSH1 0x20 ADD SWAP1 DUP2 MSTORE PUSH1 0x20 ADD PUSH1 0x0 KECCAK256 DUP2 SWAP1 SSTORE POP JUMPDEST JUMPDEST PUSH1 0x6 PUSH1 0x0 DUP2 SLOAD DUP1 SWAP3 SWAP2 SWAP1 PUSH2 0x19D1 SWAP1 PUSH2 0x2FAA JUMP JUMPDEST SWAP2 SWAP1 POP SSTORE POP DUP9 PUSH1 0x8 PUSH1 0x0 DUP3 DUP3 SLOAD PUSH2 0x19E8 SWAP2 SWAP1 PUSH2 0x2B82 JUMP JUMPDEST SWAP3 POP POP DUP2 SWAP1 SSTORE POP PUSH1 0x9 PUSH1 0x0 CALLER PUSH20 0xFFFFFFFFFFFFFFFFFFFFFFFFFFFFFFFFFFFFFFFF AND PUSH20 0xFFFFFFFFFFFFFFFFFFFFFFFFFFFFFFFFFFFFFFFF AND DUP2 MSTORE PUSH1 0x20 ADD SWAP1 DUP2 MSTORE PUSH1 0x20 ADD PUSH1 0x0 KECCAK256 PUSH1 0x0 DUP2 SLOAD DUP1 SWAP3 SWAP2 SWAP1 PUSH2 0x1A3F SWAP1 PUSH2 0x2FAA JUMP JUMPDEST SWAP2 SWAP1 POP SSTORE POP DUP9 PUSH1 0xB PUSH1 0x0 CALLER PUSH20 0xFFFFFFFFFFFFFFFFFFFFFFFFFFFFFFFFFFFFFFFF AND PUSH20 0xFFFFFFFFFFFFFFFFFFFFFFFFFFFFFFFFFFFFFFFF AND DUP2 MSTORE PUSH1 0x20 ADD SWAP1 DUP2 MSTORE PUSH1 0x20 ADD PUSH1 0x0 KECCAK256 PUSH1 0x0 DUP3 DUP3 SLOAD PUSH2 0x1A93 SWAP2 SWAP1 PUSH2 0x2B82 JUMP JUMPDEST SWAP3 POP POP DUP2 SWAP1 SSTORE POP PUSH1 0x0 DUP2 GT ISZERO PUSH2 0x1BC0 JUMPI DUP1 PUSH1 0x7 PUSH1 0x0 DUP3 DUP3 SLOAD PUSH2 0x1AB5 SWAP2 SWAP1 PUSH2 0x2B82 JUMP JUMPDEST SWAP3 POP POP DUP2 SWAP1 SSTORE POP DUP1 PUSH1 0xA PUSH1 0x0 CALLER PUSH20 0xFFFFFFFFFFFFFFFFFFFFFFFFFFFFFFFFFFFFFFFF AND PUSH20 0xFFFFFFFFFFFFFFFFFFFFFFFFFFFFFFFFFFFFFFFF AND DUP2 MSTORE PUSH1 0x20 ADD SWAP1 DUP2 MSTORE PUSH1 0x20 ADD PUSH1 0x0 KECCAK256 PUSH1 0x0 DUP3 DUP3 SLOAD PUSH2 0x1B0B SWAP2 SWAP1 PUSH2 0x2B82 JUMP JUMPDEST SWAP3 POP POP DUP2 SWAP1 SSTORE POP PUSH1 0x0 CALLER PUSH20 0xFFFFFFFFFFFFFFFFFFFFFFFFFFFFFFFFFFFFFFFF AND DUP3 PUSH1 0x40 MLOAD PUSH2 0x1B38 SWAP1 PUSH2 0x2B01 JUMP JUMPDEST PUSH1 0x0 PUSH1 0x40 MLOAD DUP1 DUP4 SUB DUP2 DUP6 DUP8 GAS CALL SWAP3 POP POP POP RETURNDATASIZE DUP1 PUSH1 0x0 DUP2 EQ PUSH2 0x1B75 JUMPI PUSH1 0x40 MLOAD SWAP2 POP PUSH1 0x1F NOT PUSH1 0x3F RETURNDATASIZE ADD AND DUP3 ADD PUSH1 0x40 MSTORE RETURNDATASIZE DUP3 MSTORE RETURNDATASIZE PUSH1 0x0 PUSH1 0x20 DUP5 ADD RETURNDATACOPY PUSH2 0x1B7A JUMP JUMPDEST PUSH1 0x60 SWAP2 POP JUMPDEST POP POP SWAP1 POP DUP1 PUSH2 0x1BBE JUMPI PUSH1 0x40 MLOAD PUSH32 0x8C379A000000000000000000000000000000000000000000000000000000000 DUP2 MSTORE PUSH1 0x4 ADD PUSH2 0x1BB5 SWAP1 PUSH2 0x303E JUMP JUMPDEST PUSH1 0x40 MLOAD DUP1 SWAP2 SUB SWAP1 REVERT JUMPDEST POP JUMPDEST CALLER PUSH20 0xFFFFFFFFFFFFFFFFFFFFFFFFFFFFFFFFFFFFFFFF AND PUSH32 0xF5BCDA99D24AE05CED738A386EEC191FD64E9DEF75392EB5F4CBA1205923BB7C DUP11 DUP5 DUP5 PUSH1 0x40 MLOAD PUSH2 0x1C0A SWAP4 SWAP3 SWAP2 SWAP1 PUSH2 0x307A JUMP JUMPDEST PUSH1 0x40 MLOAD DUP1 SWAP2 SUB SWAP1 LOG2 POP POP POP POP POP POP POP POP POP POP POP PUSH2 0x1C25 PUSH2 0x23CC JUMP JUMPDEST POP JUMP JUMPDEST PUSH1 0x1 DUP2 JUMP JUMPDEST PUSH1 0x8 SLOAD DUP2 JUMP JUMPDEST PUSH1 0x0 DUP1 PUSH1 0x0 SWAP1 SLOAD SWAP1 PUSH2 0x100 EXP SWAP1 DIV PUSH20 0xFFFFFFFFFFFFFFFFFFFFFFFFFFFFFFFFFFFFFFFF AND SWAP1 POP SWAP1 JUMP JUMPDEST PUSH1 0x5 DUP2 JUMP JUMPDEST PUSH1 0xA PUSH1 0x20 MSTORE DUP1 PUSH1 0x0 MSTORE PUSH1 0x40 PUSH1 0x0 KECCAK256 PUSH1 0x0 SWAP2 POP SWAP1 POP SLOAD DUP2 JUMP JUMPDEST PUSH1 0x3 SLOAD DUP2 JUMP JUMPDEST PUSH1 0x5 SLOAD DUP2 JUMP JUMPDEST PUSH1 0xC PUSH1 0x20 MSTORE DUP1 PUSH1 0x0 MSTORE PUSH1 0x40 PUSH1 0x0 KECCAK256 PUSH1 0x0 SWAP2 POP SWAP1 POP SLOAD DUP2 JUMP JUMPDEST PUSH1 0x0 DUP1 PUSH1 0x0 DUP1 PUSH1 0x0 DUP1 PUSH1 0xD PUSH1 0x0 DUP9 PUSH20 0xFFFFFFFFFFFFFFFFFFFFFFFFFFFFFFFFFFFFFFFF AND PUSH20 0xFFFFFFFFFFFFFFFFFFFFFFFFFFFFFFFFFFFFFFFF AND DUP2 MSTORE PUSH1 0x20 ADD SWAP1 DUP2 MSTORE PUSH1 0x20 ADD PUSH1 0x0 KECCAK256 PUSH1 0x40 MLOAD DUP1 PUSH1 0x80 ADD PUSH1 0x40 MSTORE SWAP1 DUP2 PUSH1 0x0 DUP3 ADD SLOAD DUP2 MSTORE PUSH1 0x20 ADD PUSH1 0x1 DUP3 ADD SLOAD DUP2 MSTORE PUSH1 0x20 ADD PUSH1 0x2 DUP3 ADD SLOAD DUP2 MSTORE PUSH1 0x20 ADD PUSH1 0x3 DUP3 ADD PUSH1 0x0 SWAP1 SLOAD SWAP1 PUSH2 0x100 EXP SWAP1 DIV PUSH1 0xFF AND ISZERO ISZERO ISZERO ISZERO DUP2 MSTORE POP POP SWAP1 POP DUP1 PUSH1 0x0 ADD MLOAD DUP2 PUSH1 0x20 ADD MLOAD PUSH1 0x1 DUP4 PUSH1 0x20 ADD MLOAD PUSH2 0x1D46 SWAP2 SWAP1 PUSH2 0x2B82 JUMP JUMPDEST NUMBER GT DUP1 ISZERO PUSH2 0x1D65 JUMPI POP PUSH2 0x100 DUP4 PUSH1 0x20 ADD MLOAD PUSH2 0x1D61 SWAP2 SWAP1 PUSH2 0x2B82 JUMP JUMPDEST NUMBER GT ISZERO JUMPDEST PUSH2 0x100 DUP5 PUSH1 0x20 ADD MLOAD PUSH2 0x1D77 SWAP2 SWAP1 PUSH2 0x2B82 JUMP JUMPDEST NUMBER GT DUP5 PUSH1 0x60 ADD MLOAD SWAP6 POP SWAP6 POP SWAP6 POP SWAP6 POP SWAP6 POP POP SWAP2 SWAP4 SWAP6 SWAP1 SWAP3 SWAP5 POP JUMP JUMPDEST PUSH2 0x1D9A PUSH2 0x2386 JUMP JUMPDEST PUSH2 0x1DA2 PUSH2 0x2499 JUMP JUMPDEST PUSH1 0x3 SLOAD CALLVALUE LT ISZERO PUSH2 0x1DED JUMPI CALLVALUE PUSH1 0x3 SLOAD PUSH1 0x40 MLOAD PUSH32 0xAC4D5CF800000000000000000000000000000000000000000000000000000000 DUP2 MSTORE PUSH1 0x4 ADD PUSH2 0x1DE4 SWAP3 SWAP2 SWAP1 PUSH2 0x29D8 JUMP JUMPDEST PUSH1 0x40 MLOAD DUP1 SWAP2 SUB SWAP1 REVERT JUMPDEST PUSH1 0x4 SLOAD CALLVALUE GT ISZERO PUSH2 0x1E38 JUMPI CALLVALUE PUSH1 0x4 SLOAD PUSH1 0x40 MLOAD PUSH32 0x69DA332C00000000000000000000000000000000000000000000000000000000 DUP2 MSTORE PUSH1 0x4 ADD PUSH2 0x1E2F SWAP3 SWAP2 SWAP1 PUSH2 0x29D8 JUMP JUMPDEST PUSH1 0x40 MLOAD DUP1 SWAP2 SUB SWAP1 REVERT JUMPDEST PUSH1 0x0 PUSH1 0xD PUSH1 0x0 CALLER PUSH20 0xFFFFFFFFFFFFFFFFFFFFFFFFFFFFFFFFFFFFFFFF AND PUSH20 0xFFFFFFFFFFFFFFFFFFFFFFFFFFFFFFFFFFFFFFFF AND DUP2 MSTORE PUSH1 0x20 ADD SWAP1 DUP2 MSTORE PUSH1 0x20 ADD PUSH1 0x0 KECCAK256 PUSH1 0x0 ADD SLOAD GT DUP1 ISZERO PUSH2 0x1ED7 JUMPI POP PUSH1 0xD PUSH1 0x0 CALLER PUSH20 0xFFFFFFFFFFFFFFFFFFFFFFFFFFFFFFFFFFFFFFFF AND PUSH20 0xFFFFFFFFFFFFFFFFFFFFFFFFFFFFFFFFFFFFFFFF AND DUP2 MSTORE PUSH1 0x20 ADD SWAP1 DUP2 MSTORE PUSH1 0x20 ADD PUSH1 0x0 KECCAK256 PUSH1 0x3 ADD PUSH1 0x0 SWAP1 SLOAD SWAP1 PUSH2 0x100 EXP SWAP1 DIV PUSH1 0xFF AND ISZERO JUMPDEST ISZERO PUSH2 0x1F0E JUMPI PUSH1 0x40 MLOAD PUSH32 0x97BCD0A000000000000000000000000000000000000000000000000000000000 DUP2 MSTORE PUSH1 0x4 ADD PUSH1 0x40 MLOAD DUP1 SWAP2 SUB SWAP1 REVERT JUMPDEST PUSH1 0x0 PUSH1 0x64 PUSH1 0xBE CALLVALUE PUSH2 0x1F1F SWAP2 SWAP1 PUSH2 0x2BB6 JUMP JUMPDEST PUSH2 0x1F29 SWAP2 SWAP1 PUSH2 0x2C27 JUMP JUMPDEST SWAP1 POP PUSH1 0x0 CALLVALUE SELFBALANCE PUSH2 0x1F39 SWAP2 SWAP1 PUSH2 0x2A30 JUMP JUMPDEST SWAP1 POP DUP2 DUP2 LT ISZERO PUSH2 0x1F82 JUMPI DUP1 DUP3 PUSH1 0x40 MLOAD PUSH32 0xA54B6DCF00000000000000000000000000000000000000000000000000000000 DUP2 MSTORE PUSH1 0x4 ADD PUSH2 0x1F79 SWAP3 SWAP2 SWAP1 PUSH2 0x29D8 JUMP JUMPDEST PUSH1 0x40 MLOAD DUP1 SWAP2 SUB SWAP1 REVERT JUMPDEST PUSH1 0x40 MLOAD DUP1 PUSH1 0x80 ADD PUSH1 0x40 MSTORE DUP1 CALLVALUE DUP2 MSTORE PUSH1 0x20 ADD NUMBER DUP2 MSTORE PUSH1 0x20 ADD DUP5 DUP2 MSTORE PUSH1 0x20 ADD PUSH1 0x0 ISZERO ISZERO DUP2 MSTORE POP PUSH1 0xD PUSH1 0x0 CALLER PUSH20 0xFFFFFFFFFFFFFFFFFFFFFFFFFFFFFFFFFFFFFFFF AND PUSH20 0xFFFFFFFFFFFFFFFFFFFFFFFFFFFFFFFFFFFFFFFF AND DUP2 MSTORE PUSH1 0x20 ADD SWAP1 DUP2 MSTORE PUSH1 0x20 ADD PUSH1 0x0 KECCAK256 PUSH1 0x0 DUP3 ADD MLOAD DUP2 PUSH1 0x0 ADD SSTORE PUSH1 0x20 DUP3 ADD MLOAD DUP2 PUSH1 0x1 ADD SSTORE PUSH1 0x40 DUP3 ADD MLOAD DUP2 PUSH1 0x2 ADD SSTORE PUSH1 0x60 DUP3 ADD MLOAD DUP2 PUSH1 0x3 ADD PUSH1 0x0 PUSH2 0x100 EXP DUP2 SLOAD DUP2 PUSH1 0xFF MUL NOT AND SWAP1 DUP4 ISZERO ISZERO MUL OR SWAP1 SSTORE POP SWAP1 POP POP DUP2 PUSH1 0x5 PUSH1 0x0 DUP3 DUP3 SLOAD PUSH2 0x2038 SWAP2 SWAP1 PUSH2 0x2B82 JUMP JUMPDEST SWAP3 POP POP DUP2 SWAP1 SSTORE POP CALLER PUSH20 0xFFFFFFFFFFFFFFFFFFFFFFFFFFFFFFFFFFFFFFFF AND PUSH32 0x8E8ECCE9BA6CA1ED63A78AA1D2E9F4099167054AFEAA7BAE09164774F02640F CALLVALUE DUP6 PUSH1 0x40 MLOAD PUSH2 0x2087 SWAP3 SWAP2 SWAP1 PUSH2 0x312B JUMP JUMPDEST PUSH1 0x40 MLOAD DUP1 SWAP2 SUB SWAP1 LOG2 POP POP PUSH2 0x2099 PUSH2 0x23CC JUMP JUMPDEST POP JUMP JUMPDEST PUSH1 0x9 PUSH1 0x20 MSTORE DUP1 PUSH1 0x0 MSTORE PUSH1 0x40 PUSH1 0x0 KECCAK256 PUSH1 0x0 SWAP2 POP SWAP1 POP SLOAD DUP2 JUMP JUMPDEST PUSH2 0x20BC PUSH2 0x229C JUMP JUMPDEST PUSH2 0x20C4 PUSH2 0x253D JUMP JUMPDEST PUSH1 0x0 SELFBALANCE SWAP1 POP PUSH1 0x0 PUSH1 0x5 SLOAD DUP3 GT PUSH2 0x20DA JUMPI DUP2 PUSH2 0x20E9 JUMP JUMPDEST PUSH1 0x5 SLOAD DUP3 PUSH2 0x20E8 SWAP2 SWAP1 PUSH2 0x2A30 JUMP JUMPDEST JUMPDEST SWAP1 POP PUSH1 0x0 PUSH1 0x5 DUP2 SWAP1 SSTORE POP PUSH1 0x0 PUSH2 0x20FD PUSH2 0x1C33 JUMP JUMPDEST PUSH20 0xFFFFFFFFFFFFFFFFFFFFFFFFFFFFFFFFFFFFFFFF AND DUP3 PUSH1 0x40 MLOAD PUSH2 0x2120 SWAP1 PUSH2 0x2B01 JUMP JUMPDEST PUSH1 0x0 PUSH1 0x40 MLOAD DUP1 DUP4 SUB DUP2 DUP6 DUP8 GAS CALL SWAP3 POP POP POP RETURNDATASIZE DUP1 PUSH1 0x0 DUP2 EQ PUSH2 0x215D JUMPI PUSH1 0x40 MLOAD SWAP2 POP PUSH1 0x1F NOT PUSH1 0x3F RETURNDATASIZE ADD AND DUP3 ADD PUSH1 0x40 MSTORE RETURNDATASIZE DUP3 MSTORE RETURNDATASIZE PUSH1 0x0 PUSH1 0x20 DUP5 ADD RETURNDATACOPY PUSH2 0x2162 JUMP JUMPDEST PUSH1 0x60 SWAP2 POP JUMPDEST POP POP SWAP1 POP DUP1 PUSH2 0x21A6 JUMPI PUSH1 0x40 MLOAD PUSH32 0x8C379A000000000000000000000000000000000000000000000000000000000 DUP2 MSTORE PUSH1 0x4 ADD PUSH2 0x219D SWAP1 PUSH2 0x31A0 JUMP JUMPDEST PUSH1 0x40 MLOAD DUP1 SWAP2 SUB SWAP1 REVERT JUMPDEST CALLER PUSH20 0xFFFFFFFFFFFFFFFFFFFFFFFFFFFFFFFFFFFFFFFF AND PUSH32 0x5FAFA99D0643513820BE26656B45130B01E1C03062E1266BF36F88CBD3BD9695 DUP4 PUSH1 0x40 MLOAD PUSH2 0x21EC SWAP2 SWAP1 PUSH2 0x259E JUMP JUMPDEST PUSH1 0x40 MLOAD DUP1 SWAP2 SUB SWAP1 LOG2 POP POP POP JUMP JUMPDEST PUSH1 0xB PUSH1 0x20 MSTORE DUP1 PUSH1 0x0 MSTORE PUSH1 0x40 PUSH1 0x0 KECCAK256 PUSH1 0x0 SWAP2 POP SWAP1 POP SLOAD DUP2 JUMP JUMPDEST PUSH2 0x2219 PUSH2 0x229C JUMP JUMPDEST PUSH1 0x0 PUSH20 0xFFFFFFFFFFFFFFFFFFFFFFFFFFFFFFFFFFFFFFFF AND DUP2 PUSH20 0xFFFFFFFFFFFFFFFFFFFFFFFFFFFFFFFFFFFFFFFF AND SUB PUSH2 0x228B JUMPI PUSH1 0x0 PUSH1 0x40 MLOAD PUSH32 0x1E4FBDF700000000000000000000000000000000000000000000000000000000 DUP2 MSTORE PUSH1 0x4 ADD PUSH2 0x2282 SWAP2 SWAP1 PUSH2 0x2815 JUMP JUMPDEST PUSH1 0x40 MLOAD DUP1 SWAP2 SUB SWAP1 REVERT JUMPDEST PUSH2 0x2294 DUP2 PUSH2 0x23D5 JUMP JUMPDEST POP JUMP JUMPDEST PUSH1 0xBE DUP2 JUMP JUMPDEST PUSH2 0x22A4 PUSH2 0x257D JUMP JUMPDEST PUSH20 0xFFFFFFFFFFFFFFFFFFFFFFFFFFFFFFFFFFFFFFFF AND PUSH2 0x22C2 PUSH2 0x1C33 JUMP JUMPDEST PUSH20 0xFFFFFFFFFFFFFFFFFFFFFFFFFFFFFFFFFFFFFFFF AND EQ PUSH2 0x2321 JUMPI PUSH2 0x22E5 PUSH2 0x257D JUMP JUMPDEST PUSH1 0x40 MLOAD PUSH32 0x118CDAA700000000000000000000000000000000000000000000000000000000 DUP2 MSTORE PUSH1 0x4 ADD PUSH2 0x2318 SWAP2 SWAP1 PUSH2 0x2815 JUMP JUMPDEST PUSH1 0x40 MLOAD DUP1 SWAP2 SUB SWAP1 REVERT JUMPDEST JUMP JUMPDEST PUSH2 0x232B PUSH2 0x253D JUMP JUMPDEST PUSH1 0x0 PUSH1 0x2 PUSH1 0x0 PUSH2 0x100 EXP DUP2 SLOAD DUP2 PUSH1 0xFF MUL NOT AND SWAP1 DUP4 ISZERO ISZERO MUL OR SWAP1 SSTORE POP PUSH32 0x5DB9EE0A495BF2E6FF9C91A7834C1BA4FDD244A5E8AA4E537BD38AEAE4B073AA PUSH2 0x236F PUSH2 0x257D JUMP JUMPDEST PUSH1 0x40 MLOAD PUSH2 0x237C SWAP2 SWAP1 PUSH2 0x2815 JUMP JUMPDEST PUSH1 0x40 MLOAD DUP1 SWAP2 SUB SWAP1 LOG1 JUMP JUMPDEST PUSH1 0x2 PUSH1 0x1 SLOAD SUB PUSH2 0x23C2 JUMPI PUSH1 0x40 MLOAD PUSH32 0x3EE5AEB500000000000000000000000000000000000000000000000000000000 DUP2 MSTORE PUSH1 0x4 ADD PUSH1 0x40 MLOAD DUP1 SWAP2 SUB SWAP1 REVERT JUMPDEST PUSH1 0x2 PUSH1 0x1 DUP2 SWAP1 SSTORE POP JUMP JUMPDEST PUSH1 0x1 DUP1 DUP2 SWAP1 SSTORE POP JUMP JUMPDEST PUSH1 0x0 DUP1 PUSH1 0x0 SWAP1 SLOAD SWAP1 PUSH2 0x100 EXP SWAP1 DIV PUSH20 0xFFFFFFFFFFFFFFFFFFFFFFFFFFFFFFFFFFFFFFFF AND SWAP1 POP DUP2 PUSH1 0x0 DUP1 PUSH2 0x100 EXP DUP2 SLOAD DUP2 PUSH20 0xFFFFFFFFFFFFFFFFFFFFFFFFFFFFFFFFFFFFFFFF MUL NOT AND SWAP1 DUP4 PUSH20 0xFFFFFFFFFFFFFFFFFFFFFFFFFFFFFFFFFFFFFFFF AND MUL OR SWAP1 SSTORE POP DUP2 PUSH20 0xFFFFFFFFFFFFFFFFFFFFFFFFFFFFFFFFFFFFFFFF AND DUP2 PUSH20 0xFFFFFFFFFFFFFFFFFFFFFFFFFFFFFFFFFFFFFFFF AND PUSH32 0x8BE0079C531659141344CD1FD0A4F28419497F9722A3DAAFE3B4186F6B6457E0 PUSH1 0x40 MLOAD PUSH1 0x40 MLOAD DUP1 SWAP2 SUB SWAP1 LOG3 POP POP JUMP JUMPDEST PUSH2 0x24A1 PUSH2 0xE14 JUMP JUMPDEST ISZERO PUSH2 0x24D8 JUMPI PUSH1 0x40 MLOAD PUSH32 0xD93C066500000000000000000000000000000000000000000000000000000000 DUP2 MSTORE PUSH1 0x4 ADD PUSH1 0x40 MLOAD DUP1 SWAP2 SUB SWAP1 REVERT JUMPDEST JUMP JUMPDEST PUSH2 0x24E2 PUSH2 0x2499 JUMP JUMPDEST PUSH1 0x1 PUSH1 0x2 PUSH1 0x0 PUSH2 0x100 EXP DUP2 SLOAD DUP2 PUSH1 0xFF MUL NOT AND SWAP1 DUP4 ISZERO ISZERO MUL OR SWAP1 SSTORE POP PUSH32 0x62E78CEA01BEE320CD4E420270B5EA74000D11B0C9F74754EBDBFC544B05A258 PUSH2 0x2526 PUSH2 0x257D JUMP JUMPDEST PUSH1 0x40 MLOAD PUSH2 0x2533 SWAP2 SWAP1 PUSH2 0x2815 JUMP JUMPDEST PUSH1 0x40 MLOAD DUP1 SWAP2 SUB SWAP1 LOG1 JUMP JUMPDEST PUSH2 0x2545 PUSH2 0xE14 JUMP JUMPDEST PUSH2 0x257B JUMPI PUSH1 0x40 MLOAD PUSH32 0x8DFC202B00000000000000000000000000000000000000000000000000000000 DUP2 MSTORE PUSH1 0x4 ADD PUSH1 0x40 MLOAD DUP1 SWAP2 SUB SWAP1 REVERT JUMPDEST JUMP JUMPDEST PUSH1 0x0 CALLER SWAP1 POP SWAP1 JUMP JUMPDEST PUSH1 0x0 DUP2 SWAP1 POP SWAP2 SWAP1 POP JUMP JUMPDEST PUSH2 0x2598 DUP2 PUSH2 0x2585 JUMP JUMPDEST DUP3 MSTORE POP POP JUMP JUMPDEST PUSH1 0x0 PUSH1 0x20 DUP3 ADD SWAP1 POP PUSH2 0x25B3 PUSH1 0x0 DUP4 ADD DUP5 PUSH2 0x258F JUMP JUMPDEST SWAP3 SWAP2 POP POP JUMP JUMPDEST PUSH1 0x0 DUP1 REVERT JUMPDEST PUSH2 0x25C7 DUP2 PUSH2 0x2585 JUMP JUMPDEST DUP2 EQ PUSH2 0x25D2 JUMPI PUSH1 0x0 DUP1 REVERT JUMPDEST POP JUMP JUMPDEST PUSH1 0x0 DUP2 CALLDATALOAD SWAP1 POP PUSH2 0x25E4 DUP2 PUSH2 0x25BE JUMP JUMPDEST SWAP3 SWAP2 POP POP JUMP JUMPDEST PUSH1 0x0 DUP1 PUSH1 0x40 DUP4 DUP6 SUB SLT ISZERO PUSH2 0x2601 JUMPI PUSH2 0x2600 PUSH2 0x25B9 JUMP JUMPDEST JUMPDEST PUSH1 0x0 PUSH2 0x260F DUP6 DUP3 DUP7 ADD PUSH2 0x25D5 JUMP JUMPDEST SWAP3 POP POP PUSH1 0x20 PUSH2 0x2620 DUP6 DUP3 DUP7 ADD PUSH2 0x25D5 JUMP JUMPDEST SWAP2 POP POP SWAP3 POP SWAP3 SWAP1 POP JUMP JUMPDEST PUSH1 0x0 PUSH1 0x60 DUP3 ADD SWAP1 POP PUSH2 0x263F PUSH1 0x0 DUP4 ADD DUP7 PUSH2 0x258F JUMP JUMPDEST PUSH2 0x264C PUSH1 0x20 DUP4 ADD DUP6 PUSH2 0x258F JUMP JUMPDEST PUSH2 0x2659 PUSH1 0x40 DUP4 ADD DUP5 PUSH2 0x258F JUMP JUMPDEST SWAP5 SWAP4 POP POP POP POP JUMP JUMPDEST PUSH1 0x0 PUSH1 0x20 DUP3 DUP5 SUB SLT ISZERO PUSH2 0x2677 JUMPI PUSH2 0x2676 PUSH2 0x25B9 JUMP JUMPDEST JUMPDEST PUSH1 0x0 PUSH2 0x2685 DUP5 DUP3 DUP6 ADD PUSH2 0x25D5 JUMP JUMPDEST SWAP2 POP POP SWAP3 SWAP2 POP POP JUMP JUMPDEST PUSH1 0x0 PUSH20 0xFFFFFFFFFFFFFFFFFFFFFFFFFFFFFFFFFFFFFFFF DUP3 AND SWAP1 POP SWAP2 SWAP1 POP JUMP JUMPDEST PUSH1 0x0 PUSH2 0x26B9 DUP3 PUSH2 0x268E JUMP JUMPDEST SWAP1 POP SWAP2 SWAP1 POP JUMP JUMPDEST PUSH2 0x26C9 DUP2 PUSH2 0x26AE JUMP JUMPDEST DUP2 EQ PUSH2 0x26D4 JUMPI PUSH1 0x0 DUP1 REVERT JUMPDEST POP JUMP JUMPDEST PUSH1 0x0 DUP2 CALLDATALOAD SWAP1 POP PUSH2 0x26E6 DUP2 PUSH2 0x26C0 JUMP JUMPDEST SWAP3 SWAP2 POP POP JUMP JUMPDEST PUSH1 0x0 PUSH1 0x20 DUP3 DUP5 SUB SLT ISZERO PUSH2 0x2702 JUMPI PUSH2 0x2701 PUSH2 0x25B9 JUMP JUMPDEST JUMPDEST PUSH1 0x0 PUSH2 0x2710 DUP5 DUP3 DUP6 ADD PUSH2 0x26D7 JUMP JUMPDEST SWAP2 POP POP SWAP3 SWAP2 POP POP JUMP JUMPDEST PUSH1 0x0 DUP2 SWAP1 POP SWAP2 SWAP1 POP JUMP JUMPDEST PUSH2 0x272C DUP2 PUSH2 0x2719 JUMP JUMPDEST DUP3 MSTORE POP POP JUMP JUMPDEST PUSH1 0x0 DUP2 ISZERO ISZERO SWAP1 POP SWAP2 SWAP1 POP JUMP JUMPDEST PUSH2 0x2747 DUP2 PUSH2 0x2732 JUMP JUMPDEST DUP3 MSTORE POP POP JUMP JUMPDEST PUSH1 0x0 PUSH1 0x80 DUP3 ADD SWAP1 POP PUSH2 0x2762 PUSH1 0x0 DUP4 ADD DUP8 PUSH2 0x258F JUMP JUMPDEST PUSH2 0x276F PUSH1 0x20 DUP4 ADD DUP7 PUSH2 0x258F JUMP JUMPDEST PUSH2 0x277C PUSH1 0x40 DUP4 ADD DUP6 PUSH2 0x2723 JUMP JUMPDEST PUSH2 0x2789 PUSH1 0x60 DUP4 ADD DUP5 PUSH2 0x273E JUMP JUMPDEST SWAP6 SWAP5 POP POP POP POP POP JUMP JUMPDEST PUSH1 0x0 PUSH1 0x20 DUP3 ADD SWAP1 POP PUSH2 0x27A7 PUSH1 0x0 DUP4 ADD DUP5 PUSH2 0x273E JUMP JUMPDEST SWAP3 SWAP2 POP POP JUMP JUMPDEST PUSH2 0x27B6 DUP2 PUSH2 0x2719 JUMP JUMPDEST DUP2 EQ PUSH2 0x27C1 JUMPI PUSH1 0x0 DUP1 REVERT JUMPDEST POP JUMP JUMPDEST PUSH1 0x0 DUP2 CALLDATALOAD SWAP1 POP PUSH2 0x27D3 DUP2 PUSH2 0x27AD JUMP JUMPDEST SWAP3 SWAP2 POP POP JUMP JUMPDEST PUSH1 0x0 PUSH1 0x20 DUP3 DUP5 SUB SLT ISZERO PUSH2 0x27EF JUMPI PUSH2 0x27EE PUSH2 0x25B9 JUMP JUMPDEST JUMPDEST PUSH1 0x0 PUSH2 0x27FD DUP5 DUP3 DUP6 ADD PUSH2 0x27C4 JUMP JUMPDEST SWAP2 POP POP SWAP3 SWAP2 POP POP JUMP JUMPDEST PUSH2 0x280F DUP2 PUSH2 0x26AE JUMP JUMPDEST DUP3 MSTORE POP POP JUMP JUMPDEST PUSH1 0x0 PUSH1 0x20 DUP3 ADD SWAP1 POP PUSH2 0x282A PUSH1 0x0 DUP4 ADD DUP5 PUSH2 0x2806 JUMP JUMPDEST SWAP3 SWAP2 POP POP JUMP JUMPDEST PUSH1 0x0 PUSH1 0xA0 DUP3 ADD SWAP1 POP PUSH2 0x2845 PUSH1 0x0 DUP4 ADD DUP9 PUSH2 0x258F JUMP JUMPDEST PUSH2 0x2852 PUSH1 0x20 DUP4 ADD DUP8 PUSH2 0x258F JUMP JUMPDEST PUSH2 0x285F PUSH1 0x40 DUP4 ADD DUP7 PUSH2 0x273E JUMP JUMPDEST PUSH2 0x286C PUSH1 0x60 DUP4 ADD DUP6 PUSH2 0x273E JUMP JUMPDEST PUSH2 0x2879 PUSH1 0x80 DUP4 ADD DUP5 PUSH2 0x273E JUMP JUMPDEST SWAP7 SWAP6 POP POP POP POP POP POP JUMP JUMPDEST PUSH1 0x0 DUP3 DUP3 MSTORE PUSH1 0x20 DUP3 ADD SWAP1 POP SWAP3 SWAP2 POP POP JUMP JUMPDEST PUSH32 0x4D696E20626574206D75737420626520706F7369746976650000000000000000 PUSH1 0x0 DUP3 ADD MSTORE POP JUMP JUMPDEST PUSH1 0x0 PUSH2 0x28CA PUSH1 0x18 DUP4 PUSH2 0x2883 JUMP JUMPDEST SWAP2 POP PUSH2 0x28D5 DUP3 PUSH2 0x2894 JUMP JUMPDEST PUSH1 0x20 DUP3 ADD SWAP1 POP SWAP2 SWAP1 POP JUMP JUMPDEST PUSH1 0x0 PUSH1 0x20 DUP3 ADD SWAP1 POP DUP2 DUP2 SUB PUSH1 0x0 DUP4 ADD MSTORE PUSH2 0x28F9 DUP2 PUSH2 0x28BD JUMP JUMPDEST SWAP1 POP SWAP2 SWAP1 POP JUMP JUMPDEST PUSH32 0x496E76616C6964206265742072616E6765000000000000000000000000000000 PUSH1 0x0 DUP3 ADD MSTORE POP JUMP JUMPDEST PUSH1 0x0 PUSH2 0x2936 PUSH1 0x11 DUP4 PUSH2 0x2883 JUMP JUMPDEST SWAP2 POP PUSH2 0x2941 DUP3 PUSH2 0x2900 JUMP JUMPDEST PUSH1 0x20 DUP3 ADD SWAP1 POP SWAP2 SWAP1 POP JUMP JUMPDEST PUSH1 0x0 PUSH1 0x20 DUP3 ADD SWAP1 POP DUP2 DUP2 SUB PUSH1 0x0 DUP4 ADD MSTORE PUSH2 0x2965 DUP2 PUSH2 0x2929 JUMP JUMPDEST SWAP1 POP SWAP2 SWAP1 POP JUMP JUMPDEST PUSH32 0x4D61782062657420746F6F206869676800000000000000000000000000000000 PUSH1 0x0 DUP3 ADD MSTORE POP JUMP JUMPDEST PUSH1 0x0 PUSH2 0x29A2 PUSH1 0x10 DUP4 PUSH2 0x2883 JUMP JUMPDEST SWAP2 POP PUSH2 0x29AD DUP3 PUSH2 0x296C JUMP JUMPDEST PUSH1 0x20 DUP3 ADD SWAP1 POP SWAP2 SWAP1 POP JUMP JUMPDEST PUSH1 0x0 PUSH1 0x20 DUP3 ADD SWAP1 POP DUP2 DUP2 SUB PUSH1 0x0 DUP4 ADD MSTORE PUSH2 0x29D1 DUP2 PUSH2 0x2995 JUMP JUMPDEST SWAP1 POP SWAP2 SWAP1 POP JUMP JUMPDEST PUSH1 0x0 PUSH1 0x40 DUP3 ADD SWAP1 POP PUSH2 0x29ED PUSH1 0x0 DUP4 ADD DUP6 PUSH2 0x258F JUMP JUMPDEST PUSH2 0x29FA PUSH1 0x20 DUP4 ADD DUP5 PUSH2 0x258F JUMP JUMPDEST SWAP4 SWAP3 POP POP POP JUMP JUMPDEST PUSH32 0x4E487B7100000000000000000000000000000000000000000000000000000000 PUSH1 0x0 MSTORE PUSH1 0x11 PUSH1 0x4 MSTORE PUSH1 0x24 PUSH1 0x0 REVERT JUMPDEST PUSH1 0x0 PUSH2 0x2A3B DUP3 PUSH2 0x2585 JUMP JUMPDEST SWAP2 POP PUSH2 0x2A46 DUP4 PUSH2 0x2585 JUMP JUMPDEST SWAP3 POP DUP3 DUP3 SUB SWAP1 POP DUP2 DUP2 GT ISZERO PUSH2 0x2A5E JUMPI PUSH2 0x2A5D PUSH2 0x2A01 JUMP JUMPDEST JUMPDEST SWAP3 SWAP2 POP POP JUMP JUMPDEST PUSH32 0x43616E6E6F742077697468647261772072657365727665642066756E64730000 PUSH1 0x0 DUP3 ADD MSTORE POP JUMP JUMPDEST PUSH1 0x0 PUSH2 0x2A9A PUSH1 0x1E DUP4 PUSH2 0x2883 JUMP JUMPDEST SWAP2 POP PUSH2 0x2AA5 DUP3 PUSH2 0x2A64 JUMP JUMPDEST PUSH1 0x20 DUP3 ADD SWAP1 POP SWAP2 SWAP1 POP JUMP JUMPDEST PUSH1 0x0 PUSH1 0x20 DUP3 ADD SWAP1 POP DUP2 DUP2 SUB PUSH1 0x0 DUP4 ADD MSTORE PUSH2 0x2AC9 DUP2 PUSH2 0x2A8D JUMP JUMPDEST SWAP1 POP SWAP2 SWAP1 POP JUMP JUMPDEST PUSH1 0x0 DUP2 SWAP1 POP SWAP3 SWAP2 POP POP JUMP JUMPDEST POP JUMP JUMPDEST PUSH1 0x0 PUSH2 0x2AEB PUSH1 0x0 DUP4 PUSH2 0x2AD0 JUMP JUMPDEST SWAP2 POP PUSH2 0x2AF6 DUP3 PUSH2 0x2ADB JUMP JUMPDEST PUSH1 0x0 DUP3 ADD SWAP1 POP SWAP2 SWAP1 POP JUMP JUMPDEST PUSH1 0x0 PUSH2 0x2B0C DUP3 PUSH2 0x2ADE JUMP JUMPDEST SWAP2 POP DUP2 SWAP1 POP SWAP2 SWAP1 POP JUMP JUMPDEST PUSH32 0x5769746864726177616C206661696C6564000000000000000000000000000000 PUSH1 0x0 DUP3 ADD MSTORE POP JUMP JUMPDEST PUSH1 0x0 PUSH2 0x2B4C PUSH1 0x11 DUP4 PUSH2 0x2883 JUMP JUMPDEST SWAP2 POP PUSH2 0x2B57 DUP3 PUSH2 0x2B16 JUMP JUMPDEST PUSH1 0x20 DUP3 ADD SWAP1 POP SWAP2 SWAP1 POP JUMP JUMPDEST PUSH1 0x0 PUSH1 0x20 DUP3 ADD SWAP1 POP DUP2 DUP2 SUB PUSH1 0x0 DUP4 ADD MSTORE PUSH2 0x2B7B DUP2 PUSH2 0x2B3F JUMP JUMPDEST SWAP1 POP SWAP2 SWAP1 POP JUMP JUMPDEST PUSH1 0x0 PUSH2 0x2B8D DUP3 PUSH2 0x2585 JUMP JUMPDEST SWAP2 POP PUSH2 0x2B98 DUP4 PUSH2 0x2585 JUMP JUMPDEST SWAP3 POP DUP3 DUP3 ADD SWAP1 POP DUP1 DUP3 GT ISZERO PUSH2 0x2BB0 JUMPI PUSH2 0x2BAF PUSH2 0x2A01 JUMP JUMPDEST JUMPDEST SWAP3 SWAP2 POP POP JUMP JUMPDEST PUSH1 0x0 PUSH2 0x2BC1 DUP3 PUSH2 0x2585 JUMP JUMPDEST SWAP2 POP PUSH2 0x2BCC DUP4 PUSH2 0x2585 JUMP JUMPDEST SWAP3 POP DUP3 DUP3 MUL PUSH2 0x2BDA DUP2 PUSH2 0x2585 JUMP JUMPDEST SWAP2 POP DUP3 DUP3 DIV DUP5 EQ DUP4 ISZERO OR PUSH2 0x2BF1 JUMPI PUSH2 0x2BF0 PUSH2 0x2A01 JUMP JUMPDEST JUMPDEST POP SWAP3 SWAP2 POP POP JUMP JUMPDEST PUSH32 0x4E487B7100000000000000000000000000000000000000000000000000000000 PUSH1 0x0 MSTORE PUSH1 0x12 PUSH1 0x4 MSTORE PUSH1 0x24 PUSH1 0x0 REVERT JUMPDEST PUSH1 0x0 PUSH2 0x2C32 DUP3 PUSH2 0x2585 JUMP JUMPDEST SWAP2 POP PUSH2 0x2C3D DUP4 PUSH2 0x2585 JUMP JUMPDEST SWAP3 POP DUP3 PUSH2 0x2C4D JUMPI PUSH2 0x2C4C PUSH2 0x2BF8 JUMP JUMPDEST JUMPDEST DUP3 DUP3 DIV SWAP1 POP SWAP3 SWAP2 POP POP JUMP JUMPDEST PUSH32 0x526566756E64206661696C656400000000000000000000000000000000000000 PUSH1 0x0 DUP3 ADD MSTORE POP JUMP JUMPDEST PUSH1 0x0 PUSH2 0x2C8E PUSH1 0xD DUP4 PUSH2 0x2883 JUMP JUMPDEST SWAP2 POP PUSH2 0x2C99 DUP3 PUSH2 0x2C58 JUMP JUMPDEST PUSH1 0x20 DUP3 ADD SWAP1 POP SWAP2 SWAP1 POP JUMP JUMPDEST PUSH1 0x0 PUSH1 0x20 DUP3 ADD SWAP1 POP DUP2 DUP2 SUB PUSH1 0x0 DUP4 ADD MSTORE PUSH2 0x2CBD DUP2 PUSH2 0x2C81 JUMP JUMPDEST SWAP1 POP SWAP2 SWAP1 POP JUMP JUMPDEST PUSH32 0x52657665616C2074696D656F7574000000000000000000000000000000000000 PUSH1 0x0 DUP3 ADD MSTORE POP JUMP JUMPDEST PUSH1 0x0 PUSH2 0x2CFA PUSH1 0xE DUP4 PUSH2 0x2883 JUMP JUMPDEST SWAP2 POP PUSH2 0x2D05 DUP3 PUSH2 0x2CC4 JUMP JUMPDEST PUSH1 0x20 DUP3 ADD SWAP1 POP SWAP2 SWAP1 POP JUMP JUMPDEST PUSH1 0x0 PUSH1 0x40 DUP3 ADD SWAP1 POP PUSH2 0x2D25 PUSH1 0x0 DUP4 ADD DUP5 PUSH2 0x258F JUMP JUMPDEST DUP2 DUP2 SUB PUSH1 0x20 DUP4 ADD MSTORE PUSH2 0x2D36 DUP2 PUSH2 0x2CED JUMP JUMPDEST SWAP1 POP SWAP3 SWAP2 POP POP JUMP JUMPDEST PUSH32 0x4D7573742073656E642043454C4F000000000000000000000000000000000000 PUSH1 0x0 DUP3 ADD MSTORE POP JUMP JUMPDEST PUSH1 0x0 PUSH2 0x2D74 PUSH1 0xE DUP4 PUSH2 0x2883 JUMP JUMPDEST SWAP2 POP PUSH2 0x2D7F DUP3 PUSH2 0x2D3E JUMP JUMPDEST PUSH1 0x20 DUP3 ADD SWAP1 POP SWAP2 SWAP1 POP JUMP JUMPDEST PUSH1 0x0 PUSH1 0x20 DUP3 ADD SWAP1 POP DUP2 DUP2 SUB PUSH1 0x0 DUP4 ADD MSTORE PUSH2 0x2DA3 DUP2 PUSH2 0x2D67 JUMP JUMPDEST SWAP1 POP SWAP2 SWAP1 POP JUMP JUMPDEST PUSH32 0x4E6F20636F6E74726163742063616C6C73000000000000000000000000000000 PUSH1 0x0 DUP3 ADD MSTORE POP JUMP JUMPDEST PUSH1 0x0 PUSH2 0x2DE0 PUSH1 0x11 DUP4 PUSH2 0x2883 JUMP JUMPDEST SWAP2 POP PUSH2 0x2DEB DUP3 PUSH2 0x2DAA JUMP JUMPDEST PUSH1 0x20 DUP3 ADD SWAP1 POP SWAP2 SWAP1 POP JUMP JUMPDEST PUSH1 0x0 PUSH1 0x20 DUP3 ADD SWAP1 POP DUP2 DUP2 SUB PUSH1 0x0 DUP4 ADD MSTORE PUSH2 0x2E0F DUP2 PUSH2 0x2DD3 JUMP JUMPDEST SWAP1 POP SWAP2 SWAP1 POP JUMP JUMPDEST PUSH32 0x496E73756666696369656E7420686F7573652062616C616E6365000000000000 PUSH1 0x0 DUP3 ADD MSTORE POP JUMP JUMPDEST PUSH1 0x0 PUSH2 0x2E4C PUSH1 0x1A DUP4 PUSH2 0x2883 JUMP JUMPDEST SWAP2 POP PUSH2 0x2E57 DUP3 PUSH2 0x2E16 JUMP JUMPDEST PUSH1 0x20 DUP3 ADD SWAP1 POP SWAP2 SWAP1 POP JUMP JUMPDEST PUSH1 0x0 PUSH1 0x40 DUP3 ADD SWAP1 POP PUSH2 0x2E77 PUSH1 0x0 DUP4 ADD DUP5 PUSH2 0x258F JUMP JUMPDEST DUP2 DUP2 SUB PUSH1 0x20 DUP4 ADD MSTORE PUSH2 0x2E88 DUP2 PUSH2 0x2E3F JUMP JUMPDEST SWAP1 POP SWAP3 SWAP2 POP POP JUMP JUMPDEST PUSH1 0x0 DUP2 SWAP1 POP SWAP2 SWAP1 POP JUMP JUMPDEST PUSH2 0x2EAB PUSH2 0x2EA6 DUP3 PUSH2 0x2585 JUMP JUMPDEST PUSH2 0x2E90 JUMP JUMPDEST DUP3 MSTORE POP POP JUMP JUMPDEST PUSH1 0x0 DUP2 PUSH1 0x60 SHL SWAP1 POP SWAP2 SWAP1 POP JUMP JUMPDEST PUSH1 0x0 PUSH2 0x2EC9 DUP3 PUSH2 0x2EB1 JUMP JUMPDEST SWAP1 POP SWAP2 SWAP1 POP JUMP JUMPDEST PUSH1 0x0 PUSH2 0x2EDB DUP3 PUSH2 0x2EBE JUMP JUMPDEST SWAP1 POP SWAP2 SWAP1 POP JUMP JUMPDEST PUSH2 0x2EF3 PUSH2 0x2EEE DUP3 PUSH2 0x26AE JUMP JUMPDEST PUSH2 0x2ED0 JUMP JUMPDEST DUP3 MSTORE POP POP JUMP JUMPDEST PUSH1 0x0 DUP2 SWAP1 POP SWAP2 SWAP1 POP JUMP JUMPDEST PUSH2 0x2F14 PUSH2 0x2F0F DUP3 PUSH2 0x2719 JUMP JUMPDEST PUSH2 0x2EF9 JUMP JUMPDEST DUP3 MSTORE POP POP JUMP JUMPDEST PUSH1 0x0 PUSH2 0x2F26 DUP3 DUP9 PUSH2 0x2E9A JUMP JUMPDEST PUSH1 0x20 DUP3 ADD SWAP2 POP PUSH2 0x2F36 DUP3 DUP8 PUSH2 0x2E9A JUMP JUMPDEST PUSH1 0x20 DUP3 ADD SWAP2 POP PUSH2 0x2F46 DUP3 DUP7 PUSH2 0x2EE2 JUMP JUMPDEST PUSH1 0x14 DUP3 ADD SWAP2 POP PUSH2 0x2F56 DUP3 DUP6 PUSH2 0x2E9A JUMP JUMPDEST PUSH1 0x20 DUP3 ADD SWAP2 POP PUSH2 0x2F66 DUP3 DUP5 PUSH2 0x2F03 JUMP JUMPDEST PUSH1 0x20 DUP3 ADD SWAP2 POP DUP2 SWAP1 POP SWAP7 SWAP6 POP POP POP POP POP POP JUMP JUMPDEST PUSH1 0x0 PUSH2 0x2F84 DUP3 PUSH2 0x2585 JUMP JUMPDEST SWAP2 POP PUSH2 0x2F8F DUP4 PUSH2 0x2585 JUMP JUMPDEST SWAP3 POP DUP3 PUSH2 0x2F9F JUMPI PUSH2 0x2F9E PUSH2 0x2BF8 JUMP JUMPDEST JUMPDEST DUP3 DUP3 MOD SWAP1 POP SWAP3 SWAP2 POP POP JUMP JUMPDEST PUSH1 0x0 PUSH2 0x2FB5 DUP3 PUSH2 0x2585 JUMP JUMPDEST SWAP2 POP PUSH32 0xFFFFFFFFFFFFFFFFFFFFFFFFFFFFFFFFFFFFFFFFFFFFFFFFFFFFFFFFFFFFFFFF DUP3 SUB PUSH2 0x2FE7 JUMPI PUSH2 0x2FE6 PUSH2 0x2A01 JUMP JUMPDEST JUMPDEST PUSH1 0x1 DUP3 ADD SWAP1 POP SWAP2 SWAP1 POP JUMP JUMPDEST PUSH32 0x5061796F7574206661696C656400000000000000000000000000000000000000 PUSH1 0x0 DUP3 ADD MSTORE POP JUMP JUMPDEST PUSH1 0x0 PUSH2 0x3028 PUSH1 0xD DUP4 PUSH2 0x2883 JUMP JUMPDEST SWAP2 POP PUSH2 0x3033 DUP3 PUSH2 0x2FF2 JUMP JUMPDEST PUSH1 0x20 DUP3 ADD SWAP1 POP SWAP2 SWAP1 POP JUMP JUMPDEST PUSH1 0x0 PUSH1 0x20 DUP3 ADD SWAP1 POP DUP2 DUP2 SUB PUSH1 0x0 DUP4 ADD MSTORE PUSH2 0x3057 DUP2 PUSH2 0x301B JUMP JUMPDEST SWAP1 POP SWAP2 SWAP1 POP JUMP JUMPDEST PUSH1 0x0 PUSH1 0xFF DUP3 AND SWAP1 POP SWAP2 SWAP1 POP JUMP JUMPDEST PUSH2 0x3074 DUP2 PUSH2 0x305E JUMP JUMPDEST DUP3 MSTORE POP POP JUMP JUMPDEST PUSH1 0x0 PUSH1 0x60 DUP3 ADD SWAP1 POP PUSH2 0x308F PUSH1 0x0 DUP4 ADD DUP7 PUSH2 0x258F JUMP JUMPDEST PUSH2 0x309C PUSH1 0x20 DUP4 ADD DUP6 PUSH2 0x306B JUMP JUMPDEST PUSH2 0x30A9 PUSH1 0x40 DUP4 ADD DUP5 PUSH2 0x258F JUMP JUMPDEST SWAP5 SWAP4 POP POP POP POP JUMP JUMPDEST PUSH1 0x0 PUSH2 0x30BD DUP3 DUP6 PUSH2 0x2F03 JUMP JUMPDEST PUSH1 0x20 DUP3 ADD SWAP2 POP PUSH2 0x30CD DUP3 DUP5 PUSH2 0x2EE2 JUMP JUMPDEST PUSH1 0x14 DUP3 ADD SWAP2 POP DUP2 SWAP1 POP SWAP4 SWAP3 POP POP POP JUMP JUMPDEST PUSH1 0x0 PUSH2 0x30E9 DUP3 DUP8 PUSH2 0x2F03 JUMP JUMPDEST PUSH1 0x20 DUP3 ADD SWAP2 POP PUSH2 0x30F9 DUP3 DUP7 PUSH2 0x2F03 JUMP JUMPDEST PUSH1 0x20 DUP3 ADD SWAP2 POP PUSH2 0x3109 DUP3 DUP6 PUSH2 0x2EE2 JUMP JUMPDEST PUSH1 0x14 DUP3 ADD SWAP2 POP PUSH2 0x3119 DUP3 DUP5 PUSH2 0x2E9A JUMP JUMPDEST PUSH1 0x20 DUP3 ADD SWAP2 POP DUP2 SWAP1 POP SWAP6 SWAP5 POP POP POP POP POP JUMP JUMPDEST PUSH1 0x0 PUSH1 0x40 DUP3 ADD SWAP1 POP PUSH2 0x3140 PUSH1 0x0 DUP4 ADD DUP6 PUSH2 0x258F JUMP JUMPDEST PUSH2 0x314D PUSH1 0x20 DUP4 ADD DUP5 PUSH2 0x2723 JUMP JUMPDEST SWAP4 SWAP3 POP POP POP JUMP JUMPDEST PUSH32 0x456D657267656E6379207769746864726177616C206661696C65640000000000 PUSH1 0x0 DUP3 ADD MSTORE POP JUMP JUMPDEST PUSH1 0x0 PUSH2 0x318A PUSH1 0x1B DUP4 PUSH2 0x2883 JUMP JUMPDEST SWAP2 POP PUSH2 0x3195 DUP3 PUSH2 0x3154 JUMP JUMPDEST PUSH1 0x20 DUP3 ADD SWAP1 POP SWAP2 SWAP1 POP JUMP JUMPDEST PUSH1 0x0 PUSH1 0x20 DUP3 ADD SWAP1 POP DUP2 DUP2 SUB PUSH1 0x0 DUP4 ADD MSTORE PUSH2 0x31B9 DUP2 PUSH2 0x317D JUMP JUMPDEST SWAP1 POP SWAP2 SWAP1 POP JUMP INVALID LOG2 PUSH5 0x6970667358 0x22 SLT KECCAK256 0xB2 PUSH3 0xCDAA52 DUP16 CALLCODE SELFBALANCE DUP15 SSTORE SMOD 0xDA SWAP11 0x2C 0xD7 0xFB PUSH4 0x8A495976 TSTORE STOP EXTCODEHASH SWAP2 0xF7 PUSH11 0x1715E5E03A64736F6C6343 STOP ADDMOD XOR STOP CALLER "
        },
        "methodIdentifiers": {
          "HOUSE_EDGE()": "8daaaa2f",
          "MAX_PAYOUT_MULTIPLIER()": "f6546372",
          "MIN_REVEAL_DELAY()": "888eeea6",
          "REVEAL_TIMEOUT()": "3d6ae3a7",
          "STREAK_THRESHOLD()": "4c8530ce",
          "commitBet(bytes32)": "c61a25d4",
          "emergencyWithdraw()": "db2e21bc",
          "fundHouse()": "6afbb01b",
          "getHouseBalance()": "05a8d569",
          "getPendingBet(address)": "b13f52e0",
          "getPlayerStats(address)": "4fd66eae",
          "maxBet()": "2e5b2168",
          "minBet()": "9619367d",
          "owner()": "8da5cb5b",
          "pause()": "8456cb59",
          "paused()": "5c975abb",
          "pendingBets(address)": "44b0b788",
          "playerConsecutiveWins(address)": "a43b90f2",
          "playerGamesPlayed(address)": "c8c1fcaa",
          "playerTotalWagered(address)": "e534f652",
          "playerTotalWon(address)": "8ed2b47e",
          "quickBet()": "722f4a87",
          "refundExpiredBet()": "56b4540f",
          "renounceOwnership()": "715018a6",
          "reserveBalance()": "a10954fe",
          "revealBet(bytes32)": "8713277b",
          "totalGamesPlayed()": "5c492129",
          "totalPayouts()": "4089b170",
          "totalWagered()": "8a14f12c",
          "transferOwnership(address)": "f2fde38b",
          "unpause()": "3f4ba83a",
          "updateBetLimits(uint256,uint256)": "034d3ec2",
          "withdrawHouse(uint256)": "23218411"
        }
      }
    }
  }
}