{
  "_format": "hh-sol-artifact-1",
  "contractName": "ArrowGameSecure",
  "sourceName": "contracts/ArrowGameSecure.sol",
  "abi": [
    {
      "inputs": [],
      "stateMutability": "nonpayable",
      "type": "constructor"
    },
    {
      "inputs": [
        {
          "internalType": "uint256",
          "name": "sent",
          "type": "uint256"
        },
        {
          "internalType": "uint256",
          "name": "maximum",
          "type": "uint256"
        }
      ],
      "name": "BetTooLarge",
      "type": "error"
    },
    {
      "inputs": [
        {
          "internalType": "uint256",
          "name": "sent",
          "type": "uint256"
        },
        {
          "internalType": "uint256",
          "name": "minimum",
          "type": "uint256"
        }
      ],
      "name": "BetTooSmall",
      "type": "error"
    },
    {
      "inputs": [],
      "name": "EnforcedPause",
      "type": "error"
    },
    {
      "inputs": [],
      "name": "ExpectedPause",
      "type": "error"
    },
    {
      "inputs": [
        {
          "internalType": "uint256",
          "name": "available",
          "type": "uint256"
        },
        {
          "internalType": "uint256",
          "name": "required",
          "type": "uint256"
        }
      ],
      "name": "InsufficientHouseBalance",
      "type": "error"
    },
    {
      "inputs": [],
      "name": "InvalidReveal",
      "type": "error"
    },
    {
      "inputs": [],
      "name": "NoPendingBet",
      "type": "error"
    },
    {
      "inputs": [
        {
          "internalType": "address",
          "name": "owner",
          "type": "address"
        }
      ],
      "name": "OwnableInvalidOwner",
      "type": "error"
    },
    {
      "inputs": [
        {
          "internalType": "address",
          "name": "account",
          "type": "address"
        }
      ],
      "name": "OwnableUnauthorizedAccount",
      "type": "error"
    },
    {
      "inputs": [],
      "name": "PendingBetExists",
      "type": "error"
    },
    {
      "inputs": [],
      "name": "ReentrancyGuardReentrantCall",
      "type": "error"
    },
    {
      "inputs": [
        {
          "internalType": "uint256",
          "name": "currentBlock",
          "type": "uint256"
        },
        {
          "internalType": "uint256",
          "name": "requiredBlock",
          "type": "uint256"
        }
      ],
      "name": "RevealTooEarly",
      "type": "error"
    },
    {
      "inputs": [
        {
          "internalType": "uint256",
          "name": "currentBlock",
          "type": "uint256"
        },
        {
          "internalType": "uint256",
          "name": "deadline",
          "type": "uint256"
        }
      ],
      "name": "RevealTooLate",
      "type": "error"
    },
    {
      "anonymous": false,
      "inputs": [
        {
          "indexed": true,
          "internalType": "address",
          "name": "player",
          "type": "address"
        },
        {
          "indexed": false,
          "internalType": "uint256",
          "name": "amount",
          "type": "uint256"
        },
        {
          "indexed": false,
          "internalType": "bytes32",
          "name": "commitHash",
          "type": "bytes32"
        }
      ],
      "name": "BetCommitted",
      "type": "event"
    },
    {
      "anonymous": false,
      "inputs": [
        {
          "indexed": true,
          "internalType": "address",
          "name": "player",
          "type": "address"
        },
        {
          "indexed": false,
          "internalType": "uint256",
          "name": "amount",
          "type": "uint256"
        },
        {
          "indexed": false,
          "internalType": "string",
          "name": "reason",
          "type": "string"
        }
      ],
      "name": "BetRefunded",
      "type": "event"
    },
    {
      "anonymous": false,
      "inputs": [
        {
          "indexed": true,
          "internalType": "address",
          "name": "player",
          "type": "address"
        },
        {
          "indexed": false,
          "internalType": "uint256",
          "name": "amount",
          "type": "uint256"
        },
        {
          "indexed": false,
          "internalType": "uint8",
          "name": "result",
          "type": "uint8"
        },
        {
          "indexed": false,
          "internalType": "uint256",
          "name": "payout",
          "type": "uint256"
        }
      ],
      "name": "BetRevealed",
      "type": "event"
    },
    {
      "anonymous": false,
      "inputs": [
        {
          "indexed": false,
          "internalType": "uint256",
          "name": "minBet",
          "type": "uint256"
        },
        {
          "indexed": false,
          "internalType": "uint256",
          "name": "maxBet",
          "type": "uint256"
        }
      ],
      "name": "ConfigUpdated",
      "type": "event"
    },
    {
      "anonymous": false,
      "inputs": [
        {
          "indexed": true,
          "internalType": "address",
          "name": "owner",
          "type": "address"
        },
        {
          "indexed": false,
          "internalType": "uint256",
          "name": "amount",
          "type": "uint256"
        }
      ],
      "name": "EmergencyWithdraw",
      "type": "event"
    },
    {
      "anonymous": false,
      "inputs": [
        {
          "indexed": true,
          "internalType": "address",
          "name": "funder",
          "type": "address"
        },
        {
          "indexed": false,
          "internalType": "uint256",
          "name": "amount",
          "type": "uint256"
        }
      ],
      "name": "GameFunded",
      "type": "event"
    },
    {
      "anonymous": false,
      "inputs": [
        {
          "indexed": true,
          "internalType": "address",
          "name": "owner",
          "type": "address"
        },
        {
          "indexed": false,
          "internalType": "uint256",
          "name": "amount",
          "type": "uint256"
        },
        {
          "indexed": false,
          "internalType": "uint256",
          "name": "remainingReserve",
          "type": "uint256"
        }
      ],
      "name": "HouseWithdraw",
      "type": "event"
    },
    {
      "anonymous": false,
      "inputs": [
        {
          "indexed": true,
          "internalType": "address",
          "name": "previousOwner",
          "type": "address"
        },
        {
          "indexed": true,
          "internalType": "address",
          "name": "newOwner",
          "type": "address"
        }
      ],
      "name": "OwnershipTransferred",
      "type": "event"
    },
    {
      "anonymous": false,
      "inputs": [
        {
          "indexed": false,
          "internalType": "address",
          "name": "account",
          "type": "address"
        }
      ],
      "name": "Paused",
      "type": "event"
    },
    {
      "anonymous": false,
      "inputs": [
        {
          "indexed": false,
          "internalType": "uint256",
          "name": "newReserve",
          "type": "uint256"
        }
      ],
      "name": "ReserveUpdated",
      "type": "event"
    },
    {
      "anonymous": false,
      "inputs": [
        {
          "indexed": false,
          "internalType": "address",
          "name": "account",
          "type": "address"
        }
      ],
      "name": "Unpaused",
      "type": "event"
    },
    {
      "inputs": [],
      "name": "HOUSE_EDGE",
      "outputs": [
        {
          "internalType": "uint256",
          "name": "",
          "type": "uint256"
        }
      ],
      "stateMutability": "view",
      "type": "function"
    },
    {
      "inputs": [],
      "name": "MAX_PAYOUT_MULTIPLIER",
      "outputs": [
        {
          "internalType": "uint256",
          "name": "",
          "type": "uint256"
        }
      ],
      "stateMutability": "view",
      "type": "function"
    },
    {
      "inputs": [],
      "name": "MIN_REVEAL_DELAY",
      "outputs": [
        {
          "internalType": "uint256",
          "name": "",
          "type": "uint256"
        }
      ],
      "stateMutability": "view",
      "type": "function"
    },
    {
      "inputs": [],
      "name": "REVEAL_TIMEOUT",
      "outputs": [
        {
          "internalType": "uint256",
          "name": "",
          "type": "uint256"
        }
      ],
      "stateMutability": "view",
      "type": "function"
    },
    {
      "inputs": [],
      "name": "STREAK_THRESHOLD",
      "outputs": [
        {
          "internalType": "uint256",
          "name": "",
          "type": "uint256"
        }
      ],
      "stateMutability": "view",
      "type": "function"
    },
    {
      "inputs": [
        {
          "internalType": "bytes32",
          "name": "commitHash",
          "type": "bytes32"
        }
      ],
      "name": "commitBet",
      "outputs": [],
      "stateMutability": "payable",
      "type": "function"
    },
    {
      "inputs": [],
      "name": "emergencyWithdraw",
      "outputs": [],
      "stateMutability": "nonpayable",
      "type": "function"
    },
    {
      "inputs": [],
      "name": "fundHouse",
      "outputs": [],
      "stateMutability": "payable",
      "type": "function"
    },
    {
      "inputs": [],
      "name": "getHouseBalance",
      "outputs": [
        {
          "internalType": "uint256",
          "name": "total",
          "type": "uint256"
        },
        {
          "internalType": "uint256",
          "name": "available",
          "type": "uint256"
        },
        {
          "internalType": "uint256",
          "name": "reserved",
          "type": "uint256"
        }
      ],
      "stateMutability": "view",
      "type": "function"
    },
    {
      "inputs": [
        {
          "internalType": "address",
          "name": "player",
          "type": "address"
        }
      ],
      "name": "getPendingBet",
      "outputs": [
        {
          "internalType": "uint256",
          "name": "amount",
          "type": "uint256"
        },
        {
          "internalType": "uint256",
          "name": "commitBlock",
          "type": "uint256"
        },
        {
          "internalType": "bool",
          "name": "canReveal",
          "type": "bool"
        },
        {
          "internalType": "bool",
          "name": "canRefund",
          "type": "bool"
        },
        {
          "internalType": "bool",
          "name": "resolved",
          "type": "bool"
        }
      ],
      "stateMutability": "view",
      "type": "function"
    },
    {
      "inputs": [
        {
          "internalType": "address",
          "name": "player",
          "type": "address"
        }
      ],
      "name": "getPlayerStats",
      "outputs": [
        {
          "internalType": "uint256",
          "name": "gamesPlayed",
          "type": "uint256"
        },
        {
          "internalType": "uint256",
          "name": "totalWon",
          "type": "uint256"
        },
        {
          "internalType": "uint256",
          "name": "totalWagered_",
          "type": "uint256"
        }
      ],
      "stateMutability": "view",
      "type": "function"
    },
    {
      "inputs": [],
      "name": "maxBet",
      "outputs": [
        {
          "internalType": "uint256",
          "name": "",
          "type": "uint256"
        }
      ],
      "stateMutability": "view",
      "type": "function"
    },
    {
      "inputs": [],
      "name": "minBet",
      "outputs": [
        {
          "internalType": "uint256",
          "name": "",
          "type": "uint256"
        }
      ],
      "stateMutability": "view",
      "type": "function"
    },
    {
      "inputs": [],
      "name": "owner",
      "outputs": [
        {
          "internalType": "address",
          "name": "",
          "type": "address"
        }
      ],
      "stateMutability": "view",
      "type": "function"
    },
    {
      "inputs": [],
      "name": "pause",
      "outputs": [],
      "stateMutability": "nonpayable",
      "type": "function"
    },
    {
      "inputs": [],
      "name": "paused",
      "outputs": [
        {
          "internalType": "bool",
          "name": "",
          "type": "bool"
        }
      ],
      "stateMutability": "view",
      "type": "function"
    },
    {
      "inputs": [
        {
          "internalType": "address",
          "name": "",
          "type": "address"
        }
      ],
      "name": "pendingBets",
      "outputs": [
        {
          "internalType": "uint256",
          "name": "amount",
          "type": "uint256"
        },
        {
          "internalType": "uint256",
          "name": "commitBlock",
          "type": "uint256"
        },
        {
          "internalType": "bytes32",
          "name": "commitHash",
          "type": "bytes32"
        },
        {
          "internalType": "bool",
          "name": "resolved",
          "type": "bool"
        }
      ],
      "stateMutability": "view",
      "type": "function"
    },
    {
      "inputs": [
        {
          "internalType": "address",
          "name": "",
          "type": "address"
        }
      ],
      "name": "playerConsecutiveWins",
      "outputs": [
        {
          "internalType": "uint256",
          "name": "",
          "type": "uint256"
        }
      ],
      "stateMutability": "view",
      "type": "function"
    },
    {
      "inputs": [
        {
          "internalType": "address",
          "name": "",
          "type": "address"
        }
      ],
      "name": "playerGamesPlayed",
      "outputs": [
        {
          "internalType": "uint256",
          "name": "",
          "type": "uint256"
        }
      ],
      "stateMutability": "view",
      "type": "function"
    },
    {
      "inputs": [
        {
          "internalType": "address",
          "name": "",
          "type": "address"
        }
      ],
      "name": "playerTotalWagered",
      "outputs": [
        {
          "internalType": "uint256",
          "name": "",
          "type": "uint256"
        }
      ],
      "stateMutability": "view",
      "type": "function"
    },
    {
      "inputs": [
        {
          "internalType": "address",
          "name": "",
          "type": "address"
        }
      ],
      "name": "playerTotalWon",
      "outputs": [
        {
          "internalType": "uint256",
          "name": "",
          "type": "uint256"
        }
      ],
      "stateMutability": "view",
      "type": "function"
    },
    {
      "inputs": [],
      "name": "quickBet",
      "outputs": [],
      "stateMutability": "payable",
      "type": "function"
    },
    {
      "inputs": [],
      "name": "refundExpiredBet",
      "outputs": [],
      "stateMutability": "nonpayable",
      "type": "function"
    },
    {
      "inputs": [],
      "name": "renounceOwnership",
      "outputs": [],
      "stateMutability": "nonpayable",
      "type": "function"
    },
    {
      "inputs": [],
      "name": "reserveBalance",
      "outputs": [
        {
          "internalType": "uint256",
          "name": "",
          "type": "uint256"
        }
      ],
      "stateMutability": "view",
      "type": "function"
    },
    {
      "inputs": [
        {
          "internalType": "bytes32",
          "name": "secret",
          "type": "bytes32"
        }
      ],
      "name": "revealBet",
      "outputs": [],
      "stateMutability": "nonpayable",
      "type": "function"
    },
    {
      "inputs": [],
      "name": "totalGamesPlayed",
      "outputs": [
        {
          "internalType": "uint256",
          "name": "",
          "type": "uint256"
        }
      ],
      "stateMutability": "view",
      "type": "function"
    },
    {
      "inputs": [],
      "name": "totalPayouts",
      "outputs": [
        {
          "internalType": "uint256",
          "name": "",
          "type": "uint256"
        }
      ],
      "stateMutability": "view",
      "type": "function"
    },
    {
      "inputs": [],
      "name": "totalWagered",
      "outputs": [
        {
          "internalType": "uint256",
          "name": "",
          "type": "uint256"
        }
      ],
      "stateMutability": "view",
      "type": "function"
    },
    {
      "inputs": [
        {
          "internalType": "address",
          "name": "newOwner",
          "type": "address"
        }
      ],
      "name": "transferOwnership",
      "outputs": [],
      "stateMutability": "nonpayable",
      "type": "function"
    },
    {
      "inputs": [],
      "name": "unpause",
      "outputs": [],
      "stateMutability": "nonpayable",
      "type": "function"
    },
    {
      "inputs": [
        {
          "internalType": "uint256",
          "name": "_minBet",
          "type": "uint256"
        },
        {
          "internalType": "uint256",
          "name": "_maxBet",
          "type": "uint256"
        }
      ],
      "name": "updateBetLimits",
      "outputs": [],
      "stateMutability": "nonpayable",
      "type": "function"
    },
    {
      "inputs": [
        {
          "internalType": "uint256",
          "name": "amount",
          "type": "uint256"
        }
      ],
      "name": "withdrawHouse",
      "outputs": [],
      "stateMutability": "nonpayable",
      "type": "function"
    },
    {
      "stateMutability": "payable",
      "type": "receive"
    }
  ],
  "bytecode": "0x60806040526601c6bf526340006003556611c37937e080006004553480156200002757600080fd5b5033600073ffffffffffffffffffffffffffffffffffffffff168173ffffffffffffffffffffffffffffffffffffffff16036200009e5760006040517f1e4fbdf7000000000000000000000000000000000000000000000000000000008152600401620000959190620001ce565b60405180910390fd5b620000af81620000c560201b60201c565b50600180819055506000600581905550620001eb565b60008060009054906101000a900473ffffffffffffffffffffffffffffffffffffffff169050816000806101000a81548173ffffffffffffffffffffffffffffffffffffffff021916908373ffffffffffffffffffffffffffffffffffffffff1602179055508173ffffffffffffffffffffffffffffffffffffffff168173ffffffffffffffffffffffffffffffffffffffff167f8be0079c531659141344cd1fd0a4f28419497f9722a3daafe3b4186f6b6457e060405160405180910390a35050565b600073ffffffffffffffffffffffffffffffffffffffff82169050919050565b6000620001b68262000189565b9050919050565b620001c881620001a9565b82525050565b6000602082019050620001e56000830184620001bd565b92915050565b61311180620001fb6000396000f3fe6080604052600436106101f25760003560e01c80638456cb591161010d578063a10954fe116100a0578063c8c1fcaa1161006f578063c8c1fcaa146106be578063db2e21bc146106fb578063e534f65214610712578063f2fde38b1461074f578063f65463721461077857610247565b8063a10954fe146105f9578063a43b90f214610624578063b13f52e014610661578063c61a25d4146106a257610247565b80638da5cb5b116100dc5780638da5cb5b1461053b5780638daaaa2f146105665780638ed2b47e146105915780639619367d146105ce57610247565b80638456cb59146104a55780638713277b146104bc578063888eeea6146104e55780638a14f12c1461051057610247565b80634c8530ce116101855780635c975abb116101545780635c975abb1461044f5780636afbb01b1461047a578063715018a614610484578063722f4a871461049b57610247565b80634c8530ce146103a35780634fd66eae146103ce57806356b4540f1461040d5780635c4921291461042457610247565b80633d6ae3a7116101c15780633d6ae3a7146102f65780633f4ba83a146103215780634089b1701461033857806344b0b7881461036357610247565b8063034d3ec21461024c57806305a8d5691461027557806323218411146102a25780632e5b2168146102cb57610247565b36610247573373ffffffffffffffffffffffffffffffffffffffff167f5c963fd7fde519af29d56159e6e3e18db4e5d3e4716c39c87958cf9e4862ed583460405161023d9190612525565b60405180910390a2005b600080fd5b34801561025857600080fd5b50610273600480360381019061026e9190612571565b6107a3565b005b34801561028157600080fd5b5061028a6108c5565b604051610299939291906125b1565b60405180910390f35b3480156102ae57600080fd5b506102c960048036038101906102c491906125e8565b6108f4565b005b3480156102d757600080fd5b506102e0610a5b565b6040516102ed9190612525565b60405180910390f35b34801561030257600080fd5b5061030b610a61565b6040516103189190612525565b60405180910390f35b34801561032d57600080fd5b50610336610a67565b005b34801561034457600080fd5b5061034d610a79565b60405161035a9190612525565b60405180910390f35b34801561036f57600080fd5b5061038a60048036038101906103859190612673565b610a7f565b60405161039a94939291906126d4565b60405180910390f35b3480156103af57600080fd5b506103b8610abc565b6040516103c59190612525565b60405180910390f35b3480156103da57600080fd5b506103f560048036038101906103f09190612673565b610ac1565b604051610404939291906125b1565b60405180910390f35b34801561041957600080fd5b50610422610b93565b005b34801561043057600080fd5b50610439610e0e565b6040516104469190612525565b60405180910390f35b34801561045b57600080fd5b50610464610e14565b6040516104719190612719565b60405180910390f35b610482610e2b565b005b34801561049057600080fd5b50610499610ebe565b005b6104a3610ed2565b005b3480156104b157600080fd5b506104ba611510565b005b3480156104c857600080fd5b506104e360048036038101906104de9190612760565b611522565b005b3480156104f157600080fd5b506104fa611bda565b6040516105079190612525565b60405180910390f35b34801561051c57600080fd5b50610525611bdf565b6040516105329190612525565b60405180910390f35b34801561054757600080fd5b50610550611be5565b60405161055d919061279c565b60405180910390f35b34801561057257600080fd5b5061057b611c0e565b6040516105889190612525565b60405180910390f35b34801561059d57600080fd5b506105b860048036038101906105b39190612673565b611c13565b6040516105c59190612525565b60405180910390f35b3480156105da57600080fd5b506105e3611c2b565b6040516105f09190612525565b60405180910390f35b34801561060557600080fd5b5061060e611c31565b60405161061b9190612525565b60405180910390f35b34801561063057600080fd5b5061064b60048036038101906106469190612673565b611c37565b6040516106589190612525565b60405180910390f35b34801561066d57600080fd5b5061068860048036038101906106839190612673565b611c4f565b6040516106999594939291906127b7565b60405180910390f35b6106bc60048036038101906106b79190612760565b611d44565b005b3480156106ca57600080fd5b506106e560048036038101906106e09190612673565b61204e565b6040516106f29190612525565b60405180910390f35b34801561070757600080fd5b50610710612066565b005b34801561071e57600080fd5b5061073960048036038101906107349190612673565b612180565b6040516107469190612525565b60405180910390f35b34801561075b57600080fd5b5061077660048036038101906107719190612673565b612198565b005b34801561078457600080fd5b5061078d61221e565b60405161079a9190612525565b60405180910390f35b6107ab612223565b600082116107ee576040517f08c379a00000000000000000000000000000000000000000000000000000000081526004016107e590612867565b60405180910390fd5b808210610830576040517f08c379a0000000000000000000000000000000000000000000000000000000008152600401610827906128d3565b60405180910390fd5b662386f26fc1000081111561087a576040517f08c379a00000000000000000000000000000000000000000000000000000000081526004016108719061293f565b60405180910390fd5b81600381905550806004819055507f0936b3616d5072fa8f7381ef8e7c35d39bed9ecfb2184e908a56027ad5c0b6bc82826040516108b992919061295f565b60405180910390a15050565b600080600047925060055490508083116108e05760006108ed565b80836108ec91906129b7565b5b9150909192565b6108fc612223565b60006005544761090c91906129b7565b905080821115610951576040517f08c379a000000000000000000000000000000000000000000000000000000000815260040161094890612a37565b60405180910390fd5b600061095b611be5565b73ffffffffffffffffffffffffffffffffffffffff168360405161097e90612a88565b60006040518083038185875af1925050503d80600081146109bb576040519150601f19603f3d011682016040523d82523d6000602084013e6109c0565b606091505b5050905080610a04576040517f08c379a00000000000000000000000000000000000000000000000000000000081526004016109fb90612ae9565b60405180910390fd5b3373ffffffffffffffffffffffffffffffffffffffff167fc1ae3c9b226d59664936fce829386f650f894b9351eec61063245c521161a47384600554604051610a4e92919061295f565b60405180910390a2505050565b60045481565b61010081565b610a6f612223565b610a776122aa565b565b60075481565b600d6020528060005260406000206000915090508060000154908060010154908060020154908060030160009054906101000a900460ff16905084565b600281565b6000806000600960008573ffffffffffffffffffffffffffffffffffffffff1673ffffffffffffffffffffffffffffffffffffffff16815260200190815260200160002054600a60008673ffffffffffffffffffffffffffffffffffffffff1673ffffffffffffffffffffffffffffffffffffffff16815260200190815260200160002054600b60008773ffffffffffffffffffffffffffffffffffffffff1673ffffffffffffffffffffffffffffffffffffffff168152602001908152602001600020549250925092509193909250565b610b9b61230d565b6000600d60003373ffffffffffffffffffffffffffffffffffffffff1673ffffffffffffffffffffffffffffffffffffffff1681526020019081526020016000209050600081600001541480610bff57508060030160009054906101000a900460ff165b15610c36576040517f9d46544500000000000000000000000000000000000000000000000000000000815260040160405180910390fd5b6101008160010154610c489190612b09565b4311610caa574360016101008360010154610c639190612b09565b610c6d9190612b09565b6040517fc167e8fa000000000000000000000000000000000000000000000000000000008152600401610ca192919061295f565b60405180910390fd5b60018160030160006101000a81548160ff0219169083151502179055506000816000015490506000606460be83610ce19190612b3d565b610ceb9190612bae565b90508060056000828254610cff91906129b7565b9250508190555060003373ffffffffffffffffffffffffffffffffffffffff1683604051610d2c90612a88565b60006040518083038185875af1925050503d8060008114610d69576040519150601f19603f3d011682016040523d82523d6000602084013e610d6e565b606091505b5050905080610db2576040517f08c379a0000000000000000000000000000000000000000000000000000000008152600401610da990612c2b565b60405180910390fd5b3373ffffffffffffffffffffffffffffffffffffffff167f39381f757671e194c7c71915e8906307bae612dc6a68af4ff70e8ba61919813f84604051610df89190612c97565b60405180910390a250505050610e0c612353565b565b60065481565b6000600260009054906101000a900460ff16905090565b60003411610e6e576040517f08c379a0000000000000000000000000000000000000000000000000000000008152600401610e6590612d11565b60405180910390fd5b3373ffffffffffffffffffffffffffffffffffffffff167f5c963fd7fde519af29d56159e6e3e18db4e5d3e4716c39c87958cf9e4862ed5834604051610eb49190612525565b60405180910390a2565b610ec6612223565b610ed0600061235c565b565b610eda61230d565b610ee2612420565b600354341015610f2d57346003546040517fac4d5cf8000000000000000000000000000000000000000000000000000000008152600401610f2492919061295f565b60405180910390fd5b600454341115610f7857346004546040517f69da332c000000000000000000000000000000000000000000000000000000008152600401610f6f92919061295f565b60405180910390fd5b6000606460be34610f899190612b3d565b610f939190612bae565b905060003447610fa391906129b7565b9050818110156110af5760003373ffffffffffffffffffffffffffffffffffffffff1634604051610fd390612a88565b60006040518083038185875af1925050503d8060008114611010576040519150601f19603f3d011682016040523d82523d6000602084013e611015565b606091505b5050905080611059576040517f08c379a000000000000000000000000000000000000000000000000000000000815260040161105090612c2b565b60405180910390fd5b3373ffffffffffffffffffffffffffffffffffffffff167f39381f757671e194c7c71915e8906307bae612dc6a68af4ff70e8ba61919813f3460405161109f9190612d7d565b60405180910390a2505050611506565b600060644442336006546001436110c691906129b7565b406040516020016110db959493929190612e35565b6040516020818303038152906040528051906020012060001c6110fe9190612e94565b90506000600c60003373ffffffffffffffffffffffffffffffffffffffff1673ffffffffffffffffffffffffffffffffffffffff1681526020019081526020016000205490506000600a9050600060239050600283106111615760059150601490505b600080838610156111e55760029150606460be3461117f9190612b3d565b6111899190612bae565b9050600c60003373ffffffffffffffffffffffffffffffffffffffff1673ffffffffffffffffffffffffffffffffffffffff16815260200190815260200160002060008154809291906111db90612ec5565b91905055506112a9565b8286101561125a57600191506002346111fe9190612bae565b9050600c60003373ffffffffffffffffffffffffffffffffffffffff1673ffffffffffffffffffffffffffffffffffffffff168152602001908152602001600020600081548092919061125090612ec5565b91905055506112a8565b60009150600090506000600c60003373ffffffffffffffffffffffffffffffffffffffff1673ffffffffffffffffffffffffffffffffffffffff168152602001908152602001600020819055505b5b600660008154809291906112bc90612ec5565b919050555034600860008282546112d39190612b09565b92505081905550600960003373ffffffffffffffffffffffffffffffffffffffff1673ffffffffffffffffffffffffffffffffffffffff168152602001908152602001600020600081548092919061132a90612ec5565b919050555034600b60003373ffffffffffffffffffffffffffffffffffffffff1673ffffffffffffffffffffffffffffffffffffffff168152602001908152602001600020600082825461137e9190612b09565b9250508190555060008111156114ab5780600760008282546113a09190612b09565b9250508190555080600a60003373ffffffffffffffffffffffffffffffffffffffff1673ffffffffffffffffffffffffffffffffffffffff16815260200190815260200160002060008282546113f69190612b09565b9250508190555060003373ffffffffffffffffffffffffffffffffffffffff168260405161142390612a88565b60006040518083038185875af1925050503d8060008114611460576040519150601f19603f3d011682016040523d82523d6000602084013e611465565b606091505b50509050806114a9576040517f08c379a00000000000000000000000000000000000000000000000000000000081526004016114a090612f59565b60405180910390fd5b505b3373ffffffffffffffffffffffffffffffffffffffff167ff5bcda99d24ae05ced738a386eec191fd64e9def75392eb5f4cba1205923bb7c3484846040516114f593929190612f95565b60405180910390a250505050505050505b61150e612353565b565b611518612223565b611520612461565b565b61152a61230d565b611532612420565b6000600d60003373ffffffffffffffffffffffffffffffffffffffff1673ffffffffffffffffffffffffffffffffffffffff168152602001908152602001600020905060008160000154148061159657508060030160009054906101000a900460ff165b156115cd576040517f9d46544500000000000000000000000000000000000000000000000000000000815260040160405180910390fd5b600181600101546115de9190612b09565b431161163e574360018083600101546115f79190612b09565b6116019190612b09565b6040517fc167e8fa00000000000000000000000000000000000000000000000000000000815260040161163592919061295f565b60405180910390fd5b61010081600101546116509190612b09565b4311156116a75743610100826001015461166a9190612b09565b6040517f64175dad00000000000000000000000000000000000000000000000000000000815260040161169e92919061295f565b60405180910390fd5b600082336040516020016116bc929190612fcc565b60405160208183030381529060405280519060200120905081600201548114611711576040517f9ea6d12700000000000000000000000000000000000000000000000000000000815260040160405180910390fd5b60018260030160006101000a81548160ff0219169083151502179055506000826000015490506000606460be836117489190612b3d565b6117529190612bae565b9050806005600082825461176691906129b7565b925050819055506000600185600101546117809190612b09565b4090506000606487833389600101546040516020016117a29493929190612ff8565b6040516020818303038152906040528051906020012060001c6117c59190612e94565b90506000600c60003373ffffffffffffffffffffffffffffffffffffffff1673ffffffffffffffffffffffffffffffffffffffff1681526020019081526020016000205490506000600a9050600060239050600283106118285760059150601490505b600080838610156118ac5760029150606460be8a6118469190612b3d565b6118509190612bae565b9050600c60003373ffffffffffffffffffffffffffffffffffffffff1673ffffffffffffffffffffffffffffffffffffffff16815260200190815260200160002060008154809291906118a290612ec5565b9190505550611970565b8286101561192157600191506002896118c59190612bae565b9050600c60003373ffffffffffffffffffffffffffffffffffffffff1673ffffffffffffffffffffffffffffffffffffffff168152602001908152602001600020600081548092919061191790612ec5565b919050555061196f565b60009150600090506000600c60003373ffffffffffffffffffffffffffffffffffffffff1673ffffffffffffffffffffffffffffffffffffffff168152602001908152602001600020819055505b5b6006600081548092919061198390612ec5565b9190505550886008600082825461199a9190612b09565b92505081905550600960003373ffffffffffffffffffffffffffffffffffffffff1673ffffffffffffffffffffffffffffffffffffffff16815260200190815260200160002060008154809291906119f190612ec5565b919050555088600b60003373ffffffffffffffffffffffffffffffffffffffff1673ffffffffffffffffffffffffffffffffffffffff1681526020019081526020016000206000828254611a459190612b09565b925050819055506000811115611b72578060076000828254611a679190612b09565b9250508190555080600a60003373ffffffffffffffffffffffffffffffffffffffff1673ffffffffffffffffffffffffffffffffffffffff1681526020019081526020016000206000828254611abd9190612b09565b9250508190555060003373ffffffffffffffffffffffffffffffffffffffff1682604051611aea90612a88565b60006040518083038185875af1925050503d8060008114611b27576040519150601f19603f3d011682016040523d82523d6000602084013e611b2c565b606091505b5050905080611b70576040517f08c379a0000000000000000000000000000000000000000000000000000000008152600401611b6790612f59565b60405180910390fd5b505b3373ffffffffffffffffffffffffffffffffffffffff167ff5bcda99d24ae05ced738a386eec191fd64e9def75392eb5f4cba1205923bb7c8a8484604051611bbc93929190612f95565b60405180910390a25050505050505050505050611bd7612353565b50565b600181565b60085481565b60008060009054906101000a900473ffffffffffffffffffffffffffffffffffffffff16905090565b600581565b600a6020528060005260406000206000915090505481565b60035481565b60055481565b600c6020528060005260406000206000915090505481565b600080600080600080600d60008873ffffffffffffffffffffffffffffffffffffffff1673ffffffffffffffffffffffffffffffffffffffff1681526020019081526020016000206040518060800160405290816000820154815260200160018201548152602001600282015481526020016003820160009054906101000a900460ff16151515158152505090508060000151816020015160018360200151611cf89190612b09565b43118015611d1757506101008360200151611d139190612b09565b4311155b6101008460200151611d299190612b09565b43118460600151955095509550955095505091939590929450565b611d4c61230d565b611d54612420565b600354341015611d9f57346003546040517fac4d5cf8000000000000000000000000000000000000000000000000000000008152600401611d9692919061295f565b60405180910390fd5b600454341115611dea57346004546040517f69da332c000000000000000000000000000000000000000000000000000000008152600401611de192919061295f565b60405180910390fd5b6000600d60003373ffffffffffffffffffffffffffffffffffffffff1673ffffffffffffffffffffffffffffffffffffffff16815260200190815260200160002060000154118015611e895750600d60003373ffffffffffffffffffffffffffffffffffffffff1673ffffffffffffffffffffffffffffffffffffffff16815260200190815260200160002060030160009054906101000a900460ff16155b15611ec0576040517f97bcd0a000000000000000000000000000000000000000000000000000000000815260040160405180910390fd5b6000606460be34611ed19190612b3d565b611edb9190612bae565b905060003447611eeb91906129b7565b905081811015611f345780826040517fa54b6dcf000000000000000000000000000000000000000000000000000000008152600401611f2b92919061295f565b60405180910390fd5b604051806080016040528034815260200143815260200184815260200160001515815250600d60003373ffffffffffffffffffffffffffffffffffffffff1673ffffffffffffffffffffffffffffffffffffffff16815260200190815260200160002060008201518160000155602082015181600101556040820151816002015560608201518160030160006101000a81548160ff0219169083151502179055509050508160056000828254611fea9190612b09565b925050819055503373ffffffffffffffffffffffffffffffffffffffff167f08e8ecce9ba6ca1ed63a78aa1d2e9f4099167054afeaa7bae09164774f02640f3485604051612039929190613046565b60405180910390a2505061204b612353565b50565b60096020528060005260406000206000915090505481565b61206e612223565b6120766124c4565b60004790506000612085611be5565b73ffffffffffffffffffffffffffffffffffffffff16826040516120a890612a88565b60006040518083038185875af1925050503d80600081146120e5576040519150601f19603f3d011682016040523d82523d6000602084013e6120ea565b606091505b505090508061212e576040517f08c379a0000000000000000000000000000000000000000000000000000000008152600401612125906130bb565b60405180910390fd5b3373ffffffffffffffffffffffffffffffffffffffff167f5fafa99d0643513820be26656b45130b01e1c03062e1266bf36f88cbd3bd9695836040516121749190612525565b60405180910390a25050565b600b6020528060005260406000206000915090505481565b6121a0612223565b600073ffffffffffffffffffffffffffffffffffffffff168173ffffffffffffffffffffffffffffffffffffffff16036122125760006040517f1e4fbdf7000000000000000000000000000000000000000000000000000000008152600401612209919061279c565b60405180910390fd5b61221b8161235c565b50565b60be81565b61222b612504565b73ffffffffffffffffffffffffffffffffffffffff16612249611be5565b73ffffffffffffffffffffffffffffffffffffffff16146122a85761226c612504565b6040517f118cdaa700000000000000000000000000000000000000000000000000000000815260040161229f919061279c565b60405180910390fd5b565b6122b26124c4565b6000600260006101000a81548160ff0219169083151502179055507f5db9ee0a495bf2e6ff9c91a7834c1ba4fdd244a5e8aa4e537bd38aeae4b073aa6122f6612504565b604051612303919061279c565b60405180910390a1565b600260015403612349576040517f3ee5aeb500000000000000000000000000000000000000000000000000000000815260040160405180910390fd5b6002600181905550565b60018081905550565b60008060009054906101000a900473ffffffffffffffffffffffffffffffffffffffff169050816000806101000a81548173ffffffffffffffffffffffffffffffffffffffff021916908373ffffffffffffffffffffffffffffffffffffffff1602179055508173ffffffffffffffffffffffffffffffffffffffff168173ffffffffffffffffffffffffffffffffffffffff167f8be0079c531659141344cd1fd0a4f28419497f9722a3daafe3b4186f6b6457e060405160405180910390a35050565b612428610e14565b1561245f576040517fd93c066500000000000000000000000000000000000000000000000000000000815260040160405180910390fd5b565b612469612420565b6001600260006101000a81548160ff0219169083151502179055507f62e78cea01bee320cd4e420270b5ea74000d11b0c9f74754ebdbfc544b05a2586124ad612504565b6040516124ba919061279c565b60405180910390a1565b6124cc610e14565b612502576040517f8dfc202b00000000000000000000000000000000000000000000000000000000815260040160405180910390fd5b565b600033905090565b6000819050919050565b61251f8161250c565b82525050565b600060208201905061253a6000830184612516565b92915050565b600080fd5b61254e8161250c565b811461255957600080fd5b50565b60008135905061256b81612545565b92915050565b6000806040838503121561258857612587612540565b5b60006125968582860161255c565b92505060206125a78582860161255c565b9150509250929050565b60006060820190506125c66000830186612516565b6125d36020830185612516565b6125e06040830184612516565b949350505050565b6000602082840312156125fe576125fd612540565b5b600061260c8482850161255c565b91505092915050565b600073ffffffffffffffffffffffffffffffffffffffff82169050919050565b600061264082612615565b9050919050565b61265081612635565b811461265b57600080fd5b50565b60008135905061266d81612647565b92915050565b60006020828403121561268957612688612540565b5b60006126978482850161265e565b91505092915050565b6000819050919050565b6126b3816126a0565b82525050565b60008115159050919050565b6126ce816126b9565b82525050565b60006080820190506126e96000830187612516565b6126f66020830186612516565b61270360408301856126aa565b61271060608301846126c5565b95945050505050565b600060208201905061272e60008301846126c5565b92915050565b61273d816126a0565b811461274857600080fd5b50565b60008135905061275a81612734565b92915050565b60006020828403121561277657612775612540565b5b60006127848482850161274b565b91505092915050565b61279681612635565b82525050565b60006020820190506127b1600083018461278d565b92915050565b600060a0820190506127cc6000830188612516565b6127d96020830187612516565b6127e660408301866126c5565b6127f360608301856126c5565b61280060808301846126c5565b9695505050505050565b600082825260208201905092915050565b7f4d696e20626574206d75737420626520706f7369746976650000000000000000600082015250565b600061285160188361280a565b915061285c8261281b565b602082019050919050565b6000602082019050818103600083015261288081612844565b9050919050565b7f496e76616c6964206265742072616e6765000000000000000000000000000000600082015250565b60006128bd60118361280a565b91506128c882612887565b602082019050919050565b600060208201905081810360008301526128ec816128b0565b9050919050565b7f4d61782062657420746f6f206869676800000000000000000000000000000000600082015250565b600061292960108361280a565b9150612934826128f3565b602082019050919050565b600060208201905081810360008301526129588161291c565b9050919050565b60006040820190506129746000830185612516565b6129816020830184612516565b9392505050565b7f4e487b7100000000000000000000000000000000000000000000000000000000600052601160045260246000fd5b60006129c28261250c565b91506129cd8361250c565b92508282039050818111156129e5576129e4612988565b5b92915050565b7f43616e6e6f742077697468647261772072657365727665642066756e64730000600082015250565b6000612a21601e8361280a565b9150612a2c826129eb565b602082019050919050565b60006020820190508181036000830152612a5081612a14565b9050919050565b600081905092915050565b50565b6000612a72600083612a57565b9150612a7d82612a62565b600082019050919050565b6000612a9382612a65565b9150819050919050565b7f5769746864726177616c206661696c6564000000000000000000000000000000600082015250565b6000612ad360118361280a565b9150612ade82612a9d565b602082019050919050565b60006020820190508181036000830152612b0281612ac6565b9050919050565b6000612b148261250c565b9150612b1f8361250c565b9250828201905080821115612b3757612b36612988565b5b92915050565b6000612b488261250c565b9150612b538361250c565b9250828202612b618161250c565b91508282048414831517612b7857612b77612988565b5b5092915050565b7f4e487b7100000000000000000000000000000000000000000000000000000000600052601260045260246000fd5b6000612bb98261250c565b9150612bc48361250c565b925082612bd457612bd3612b7f565b5b828204905092915050565b7f526566756e64206661696c656400000000000000000000000000000000000000600082015250565b6000612c15600d8361280a565b9150612c2082612bdf565b602082019050919050565b60006020820190508181036000830152612c4481612c08565b9050919050565b7f52657665616c2074696d656f7574000000000000000000000000000000000000600082015250565b6000612c81600e8361280a565b9150612c8c82612c4b565b602082019050919050565b6000604082019050612cac6000830184612516565b8181036020830152612cbd81612c74565b905092915050565b7f4d7573742073656e642043454c4f000000000000000000000000000000000000600082015250565b6000612cfb600e8361280a565b9150612d0682612cc5565b602082019050919050565b60006020820190508181036000830152612d2a81612cee565b9050919050565b7f496e73756666696369656e7420686f7573652062616c616e6365000000000000600082015250565b6000612d67601a8361280a565b9150612d7282612d31565b602082019050919050565b6000604082019050612d926000830184612516565b8181036020830152612da381612d5a565b905092915050565b6000819050919050565b612dc6612dc18261250c565b612dab565b82525050565b60008160601b9050919050565b6000612de482612dcc565b9050919050565b6000612df682612dd9565b9050919050565b612e0e612e0982612635565b612deb565b82525050565b6000819050919050565b612e2f612e2a826126a0565b612e14565b82525050565b6000612e418288612db5565b602082019150612e518287612db5565b602082019150612e618286612dfd565b601482019150612e718285612db5565b602082019150612e818284612e1e565b6020820191508190509695505050505050565b6000612e9f8261250c565b9150612eaa8361250c565b925082612eba57612eb9612b7f565b5b828206905092915050565b6000612ed08261250c565b91507fffffffffffffffffffffffffffffffffffffffffffffffffffffffffffffffff8203612f0257612f01612988565b5b600182019050919050565b7f5061796f7574206661696c656400000000000000000000000000000000000000600082015250565b6000612f43600d8361280a565b9150612f4e82612f0d565b602082019050919050565b60006020820190508181036000830152612f7281612f36565b9050919050565b600060ff82169050919050565b612f8f81612f79565b82525050565b6000606082019050612faa6000830186612516565b612fb76020830185612f86565b612fc46040830184612516565b949350505050565b6000612fd88285612e1e565b602082019150612fe88284612dfd565b6014820191508190509392505050565b60006130048287612e1e565b6020820191506130148286612e1e565b6020820191506130248285612dfd565b6014820191506130348284612db5565b60208201915081905095945050505050565b600060408201905061305b6000830185612516565b61306860208301846126aa565b9392505050565b7f456d657267656e6379207769746864726177616c206661696c65640000000000600082015250565b60006130a5601b8361280a565b91506130b08261306f565b602082019050919050565b600060208201905081810360008301526130d481613098565b905091905056fea2646970667358221220673a225aca2332ecd81c85a992cb9d6f9165c1c1ddec9ed2802dfc787cb1a73064736f6c63430008180033",
  "linkReferences": {},
  "deployedLinkReferences": {}
}