{
  "_format": "hh-sol-artifact-1",
  "contractName": "ArrowGameSecure",
  "sourceName": "contracts/ArrowGameSecure.sol",
  "abi": [
    {
      "inputs": [],
      "stateMutability": "nonpayable",
      "type": "constructor"
    },
    {
      "inputs": [
        {
          "internalType": "uint256",
          "name": "sent",
          "type": "uint256"
        },
        {
          "internalType": "uint256",
          "name": "maximum",
          "type": "uint256"
        }
      ],
      "name": "BetTooLarge",
      "type": "error"
    },
    {
      "inputs": [
        {
          "internalType": "uint256",
          "name": "sent",
          "type": "uint256"
        },
        {
          "internalType": "uint256",
          "name": "minimum",
          "type": "uint256"
        }
      ],
      "name": "BetTooSmall",
      "type": "error"
    },
    {
      "inputs": [],
      "name": "EnforcedPause",
      "type": "error"
    },
    {
      "inputs": [],
      "name": "ExpectedPause",
      "type": "error"
    },
    {
      "inputs": [
        {
          "internalType": "uint256",
          "name": "available",
          "type": "uint256"
        },
        {
          "internalType": "uint256",
          "name": "required",
          "type": "uint256"
        }
      ],
      "name": "InsufficientHouseBalance",
      "type": "error"
    },
    {
      "inputs": [],
      "name": "InvalidReveal",
      "type": "error"
    },
    {
      "inputs": [],
      "name": "NoPendingBet",
      "type": "error"
    },
    {
      "inputs": [
        {
          "internalType": "address",
          "name": "owner",
          "type": "address"
        }
      ],
      "name": "OwnableInvalidOwner",
      "type": "error"
    },
    {
      "inputs": [
        {
          "internalType": "address",
          "name": "account",
          "type": "address"
        }
      ],
      "name": "OwnableUnauthorizedAccount",
      "type": "error"
    },
    {
      "inputs": [],
      "name": "PendingBetExists",
      "type": "error"
    },
    {
      "inputs": [],
      "name": "ReentrancyGuardReentrantCall",
      "type": "error"
    },
    {
      "inputs": [
        {
          "internalType": "uint256",
          "name": "currentBlock",
          "type": "uint256"
        },
        {
          "internalType": "uint256",
          "name": "requiredBlock",
          "type": "uint256"
        }
      ],
      "name": "RevealTooEarly",
      "type": "error"
    },
    {
      "inputs": [
        {
          "internalType": "uint256",
          "name": "currentBlock",
          "type": "uint256"
        },
        {
          "internalType": "uint256",
          "name": "deadline",
          "type": "uint256"
        }
      ],
      "name": "RevealTooLate",
      "type": "error"
    },
    {
      "anonymous": false,
      "inputs": [
        {
          "indexed": true,
          "internalType": "address",
          "name": "player",
          "type": "address"
        },
        {
          "indexed": false,
          "internalType": "uint256",
          "name": "amount",
          "type": "uint256"
        },
        {
          "indexed": false,
          "internalType": "bytes32",
          "name": "commitHash",
          "type": "bytes32"
        }
      ],
      "name": "BetCommitted",
      "type": "event"
    },
    {
      "anonymous": false,
      "inputs": [
        {
          "indexed": true,
          "internalType": "address",
          "name": "player",
          "type": "address"
        },
        {
          "indexed": false,
          "internalType": "uint256",
          "name": "amount",
          "type": "uint256"
        },
        {
          "indexed": false,
          "internalType": "string",
          "name": "reason",
          "type": "string"
        }
      ],
      "name": "BetRefunded",
      "type": "event"
    },
    {
      "anonymous": false,
      "inputs": [
        {
          "indexed": true,
          "internalType": "address",
          "name": "player",
          "type": "address"
        },
        {
          "indexed": false,
          "internalType": "uint256",
          "name": "amount",
          "type": "uint256"
        },
        {
          "indexed": false,
          "internalType": "uint8",
          "name": "result",
          "type": "uint8"
        },
        {
          "indexed": false,
          "internalType": "uint256",
          "name": "payout",
          "type": "uint256"
        }
      ],
      "name": "BetRevealed",
      "type": "event"
    },
    {
      "anonymous": false,
      "inputs": [
        {
          "indexed": false,
          "internalType": "uint256",
          "name": "minBet",
          "type": "uint256"
        },
        {
          "indexed": false,
          "internalType": "uint256",
          "name": "maxBet",
          "type": "uint256"
        }
      ],
      "name": "ConfigUpdated",
      "type": "event"
    },
    {
      "anonymous": false,
      "inputs": [
        {
          "indexed": true,
          "internalType": "address",
          "name": "owner",
          "type": "address"
        },
        {
          "indexed": false,
          "internalType": "uint256",
          "name": "amount",
          "type": "uint256"
        }
      ],
      "name": "EmergencyWithdraw",
      "type": "event"
    },
    {
      "anonymous": false,
      "inputs": [
        {
          "indexed": true,
          "internalType": "address",
          "name": "funder",
          "type": "address"
        },
        {
          "indexed": false,
          "internalType": "uint256",
          "name": "amount",
          "type": "uint256"
        }
      ],
      "name": "GameFunded",
      "type": "event"
    },
    {
      "anonymous": false,
      "inputs": [
        {
          "indexed": true,
          "internalType": "address",
          "name": "owner",
          "type": "address"
        },
        {
          "indexed": false,
          "internalType": "uint256",
          "name": "amount",
          "type": "uint256"
        },
        {
          "indexed": false,
          "internalType": "uint256",
          "name": "remainingReserve",
          "type": "uint256"
        }
      ],
      "name": "HouseWithdraw",
      "type": "event"
    },
    {
      "anonymous": false,
      "inputs": [
        {
          "indexed": true,
          "internalType": "address",
          "name": "previousOwner",
          "type": "address"
        },
        {
          "indexed": true,
          "internalType": "address",
          "name": "newOwner",
          "type": "address"
        }
      ],
      "name": "OwnershipTransferred",
      "type": "event"
    },
    {
      "anonymous": false,
      "inputs": [
        {
          "indexed": false,
          "internalType": "address",
          "name": "account",
          "type": "address"
        }
      ],
      "name": "Paused",
      "type": "event"
    },
    {
      "anonymous": false,
      "inputs": [
        {
          "indexed": false,
          "internalType": "uint256",
          "name": "newReserve",
          "type": "uint256"
        }
      ],
      "name": "ReserveUpdated",
      "type": "event"
    },
    {
      "anonymous": false,
      "inputs": [
        {
          "indexed": false,
          "internalType": "address",
          "name": "account",
          "type": "address"
        }
      ],
      "name": "Unpaused",
      "type": "event"
    },
    {
      "inputs": [],
      "name": "HOUSE_EDGE",
      "outputs": [
        {
          "internalType": "uint256",
          "name": "",
          "type": "uint256"
        }
      ],
      "stateMutability": "view",
      "type": "function"
    },
    {
      "inputs": [],
      "name": "MAX_PAYOUT_MULTIPLIER",
      "outputs": [
        {
          "internalType": "uint256",
          "name": "",
          "type": "uint256"
        }
      ],
      "stateMutability": "view",
      "type": "function"
    },
    {
      "inputs": [],
      "name": "MIN_REVEAL_DELAY",
      "outputs": [
        {
          "internalType": "uint256",
          "name": "",
          "type": "uint256"
        }
      ],
      "stateMutability": "view",
      "type": "function"
    },
    {
      "inputs": [],
      "name": "REVEAL_TIMEOUT",
      "outputs": [
        {
          "internalType": "uint256",
          "name": "",
          "type": "uint256"
        }
      ],
      "stateMutability": "view",
      "type": "function"
    },
    {
      "inputs": [],
      "name": "STREAK_THRESHOLD",
      "outputs": [
        {
          "internalType": "uint256",
          "name": "",
          "type": "uint256"
        }
      ],
      "stateMutability": "view",
      "type": "function"
    },
    {
      "inputs": [
        {
          "internalType": "bytes32",
          "name": "commitHash",
          "type": "bytes32"
        }
      ],
      "name": "commitBet",
      "outputs": [],
      "stateMutability": "payable",
      "type": "function"
    },
    {
      "inputs": [],
      "name": "emergencyWithdraw",
      "outputs": [],
      "stateMutability": "nonpayable",
      "type": "function"
    },
    {
      "inputs": [],
      "name": "fundHouse",
      "outputs": [],
      "stateMutability": "payable",
      "type": "function"
    },
    {
      "inputs": [],
      "name": "getHouseBalance",
      "outputs": [
        {
          "internalType": "uint256",
          "name": "total",
          "type": "uint256"
        },
        {
          "internalType": "uint256",
          "name": "available",
          "type": "uint256"
        },
        {
          "internalType": "uint256",
          "name": "reserved",
          "type": "uint256"
        }
      ],
      "stateMutability": "view",
      "type": "function"
    },
    {
      "inputs": [
        {
          "internalType": "address",
          "name": "player",
          "type": "address"
        }
      ],
      "name": "getPendingBet",
      "outputs": [
        {
          "internalType": "uint256",
          "name": "amount",
          "type": "uint256"
        },
        {
          "internalType": "uint256",
          "name": "commitBlock",
          "type": "uint256"
        },
        {
          "internalType": "bool",
          "name": "canReveal",
          "type": "bool"
        },
        {
          "internalType": "bool",
          "name": "canRefund",
          "type": "bool"
        },
        {
          "internalType": "bool",
          "name": "resolved",
          "type": "bool"
        }
      ],
      "stateMutability": "view",
      "type": "function"
    },
    {
      "inputs": [
        {
          "internalType": "address",
          "name": "player",
          "type": "address"
        }
      ],
      "name": "getPlayerStats",
      "outputs": [
        {
          "internalType": "uint256",
          "name": "gamesPlayed",
          "type": "uint256"
        },
        {
          "internalType": "uint256",
          "name": "totalWon",
          "type": "uint256"
        },
        {
          "internalType": "uint256",
          "name": "totalWagered_",
          "type": "uint256"
        }
      ],
      "stateMutability": "view",
      "type": "function"
    },
    {
      "inputs": [],
      "name": "maxBet",
      "outputs": [
        {
          "internalType": "uint256",
          "name": "",
          "type": "uint256"
        }
      ],
      "stateMutability": "view",
      "type": "function"
    },
    {
      "inputs": [],
      "name": "minBet",
      "outputs": [
        {
          "internalType": "uint256",
          "name": "",
          "type": "uint256"
        }
      ],
      "stateMutability": "view",
      "type": "function"
    },
    {
      "inputs": [],
      "name": "owner",
      "outputs": [
        {
          "internalType": "address",
          "name": "",
          "type": "address"
        }
      ],
      "stateMutability": "view",
      "type": "function"
    },
    {
      "inputs": [],
      "name": "pause",
      "outputs": [],
      "stateMutability": "nonpayable",
      "type": "function"
    },
    {
      "inputs": [],
      "name": "paused",
      "outputs": [
        {
          "internalType": "bool",
          "name": "",
          "type": "bool"
        }
      ],
      "stateMutability": "view",
      "type": "function"
    },
    {
      "inputs": [
        {
          "internalType": "address",
          "name": "",
          "type": "address"
        }
      ],
      "name": "pendingBets",
      "outputs": [
        {
          "internalType": "uint256",
          "name": "amount",
          "type": "uint256"
        },
        {
          "internalType": "uint256",
          "name": "commitBlock",
          "type": "uint256"
        },
        {
          "internalType": "bytes32",
          "name": "commitHash",
          "type": "bytes32"
        },
        {
          "internalType": "bool",
          "name": "resolved",
          "type": "bool"
        }
      ],
      "stateMutability": "view",
      "type": "function"
    },
    {
      "inputs": [
        {
          "internalType": "address",
          "name": "",
          "type": "address"
        }
      ],
      "name": "playerConsecutiveWins",
      "outputs": [
        {
          "internalType": "uint256",
          "name": "",
          "type": "uint256"
        }
      ],
      "stateMutability": "view",
      "type": "function"
    },
    {
      "inputs": [
        {
          "internalType": "address",
          "name": "",
          "type": "address"
        }
      ],
      "name": "playerGamesPlayed",
      "outputs": [
        {
          "internalType": "uint256",
          "name": "",
          "type": "uint256"
        }
      ],
      "stateMutability": "view",
      "type": "function"
    },
    {
      "inputs": [
        {
          "internalType": "address",
          "name": "",
          "type": "address"
        }
      ],
      "name": "playerTotalWagered",
      "outputs": [
        {
          "internalType": "uint256",
          "name": "",
          "type": "uint256"
        }
      ],
      "stateMutability": "view",
      "type": "function"
    },
    {
      "inputs": [
        {
          "internalType": "address",
          "name": "",
          "type": "address"
        }
      ],
      "name": "playerTotalWon",
      "outputs": [
        {
          "internalType": "uint256",
          "name": "",
          "type": "uint256"
        }
      ],
      "stateMutability": "view",
      "type": "function"
    },
    {
      "inputs": [],
      "name": "quickBet",
      "outputs": [],
      "stateMutability": "payable",
      "type": "function"
    },
    {
      "inputs": [],
      "name": "refundExpiredBet",
      "outputs": [],
      "stateMutability": "nonpayable",
      "type": "function"
    },
    {
      "inputs": [],
      "name": "renounceOwnership",
      "outputs": [],
      "stateMutability": "nonpayable",
      "type": "function"
    },
    {
      "inputs": [],
      "name": "reserveBalance",
      "outputs": [
        {
          "internalType": "uint256",
          "name": "",
          "type": "uint256"
        }
      ],
      "stateMutability": "view",
      "type": "function"
    },
    {
      "inputs": [
        {
          "internalType": "bytes32",
          "name": "secret",
          "type": "bytes32"
        }
      ],
      "name": "revealBet",
      "outputs": [],
      "stateMutability": "nonpayable",
      "type": "function"
    },
    {
      "inputs": [],
      "name": "totalGamesPlayed",
      "outputs": [
        {
          "internalType": "uint256",
          "name": "",
          "type": "uint256"
        }
      ],
      "stateMutability": "view",
      "type": "function"
    },
    {
      "inputs": [],
      "name": "totalPayouts",
      "outputs": [
        {
          "internalType": "uint256",
          "name": "",
          "type": "uint256"
        }
      ],
      "stateMutability": "view",
      "type": "function"
    },
    {
      "inputs": [],
      "name": "totalWagered",
      "outputs": [
        {
          "internalType": "uint256",
          "name": "",
          "type": "uint256"
        }
      ],
      "stateMutability": "view",
      "type": "function"
    },
    {
      "inputs": [
        {
          "internalType": "address",
          "name": "newOwner",
          "type": "address"
        }
      ],
      "name": "transferOwnership",
      "outputs": [],
      "stateMutability": "nonpayable",
      "type": "function"
    },
    {
      "inputs": [],
      "name": "unpause",
      "outputs": [],
      "stateMutability": "nonpayable",
      "type": "function"
    },
    {
      "inputs": [
        {
          "internalType": "uint256",
          "name": "_minBet",
          "type": "uint256"
        },
        {
          "internalType": "uint256",
          "name": "_maxBet",
          "type": "uint256"
        }
      ],
      "name": "updateBetLimits",
      "outputs": [],
      "stateMutability": "nonpayable",
      "type": "function"
    },
    {
      "inputs": [
        {
          "internalType": "uint256",
          "name": "amount",
          "type": "uint256"
        }
      ],
      "name": "withdrawHouse",
      "outputs": [],
      "stateMutability": "nonpayable",
      "type": "function"
    },
    {
      "stateMutability": "payable",
      "type": "receive"
    }
  ],
  "bytecode": "0x60806040526601c6bf526340006003556611c37937e080006004553480156200002757600080fd5b5033600073ffffffffffffffffffffffffffffffffffffffff168173ffffffffffffffffffffffffffffffffffffffff16036200009e5760006040517f1e4fbdf7000000000000000000000000000000000000000000000000000000008152600401620000959190620001ce565b60405180910390fd5b620000af81620000c560201b60201c565b50600180819055506000600581905550620001eb565b60008060009054906101000a900473ffffffffffffffffffffffffffffffffffffffff169050816000806101000a81548173ffffffffffffffffffffffffffffffffffffffff021916908373ffffffffffffffffffffffffffffffffffffffff1602179055508173ffffffffffffffffffffffffffffffffffffffff168173ffffffffffffffffffffffffffffffffffffffff167f8be0079c531659141344cd1fd0a4f28419497f9722a3daafe3b4186f6b6457e060405160405180910390a35050565b600073ffffffffffffffffffffffffffffffffffffffff82169050919050565b6000620001b68262000189565b9050919050565b620001c881620001a9565b82525050565b6000602082019050620001e56000830184620001bd565b92915050565b6131f680620001fb6000396000f3fe6080604052600436106101f25760003560e01c80638456cb591161010d578063a10954fe116100a0578063c8c1fcaa1161006f578063c8c1fcaa146106be578063db2e21bc146106fb578063e534f65214610712578063f2fde38b1461074f578063f65463721461077857610247565b8063a10954fe146105f9578063a43b90f214610624578063b13f52e014610661578063c61a25d4146106a257610247565b80638da5cb5b116100dc5780638da5cb5b1461053b5780638daaaa2f146105665780638ed2b47e146105915780639619367d146105ce57610247565b80638456cb59146104a55780638713277b146104bc578063888eeea6146104e55780638a14f12c1461051057610247565b80634c8530ce116101855780635c975abb116101545780635c975abb1461044f5780636afbb01b1461047a578063715018a614610484578063722f4a871461049b57610247565b80634c8530ce146103a35780634fd66eae146103ce57806356b4540f1461040d5780635c4921291461042457610247565b80633d6ae3a7116101c15780633d6ae3a7146102f65780633f4ba83a146103215780634089b1701461033857806344b0b7881461036357610247565b8063034d3ec21461024c57806305a8d5691461027557806323218411146102a25780632e5b2168146102cb57610247565b36610247573373ffffffffffffffffffffffffffffffffffffffff167f5c963fd7fde519af29d56159e6e3e18db4e5d3e4716c39c87958cf9e4862ed583460405161023d919061259e565b60405180910390a2005b600080fd5b34801561025857600080fd5b50610273600480360381019061026e91906125ea565b6107a3565b005b34801561028157600080fd5b5061028a6108c5565b6040516102999392919061262a565b60405180910390f35b3480156102ae57600080fd5b506102c960048036038101906102c49190612661565b6108f4565b005b3480156102d757600080fd5b506102e0610a5b565b6040516102ed919061259e565b60405180910390f35b34801561030257600080fd5b5061030b610a61565b604051610318919061259e565b60405180910390f35b34801561032d57600080fd5b50610336610a67565b005b34801561034457600080fd5b5061034d610a79565b60405161035a919061259e565b60405180910390f35b34801561036f57600080fd5b5061038a600480360381019061038591906126ec565b610a7f565b60405161039a949392919061274d565b60405180910390f35b3480156103af57600080fd5b506103b8610abc565b6040516103c5919061259e565b60405180910390f35b3480156103da57600080fd5b506103f560048036038101906103f091906126ec565b610ac1565b6040516104049392919061262a565b60405180910390f35b34801561041957600080fd5b50610422610b93565b005b34801561043057600080fd5b50610439610e0e565b604051610446919061259e565b60405180910390f35b34801561045b57600080fd5b50610464610e14565b6040516104719190612792565b60405180910390f35b610482610e2b565b005b34801561049057600080fd5b50610499610ebe565b005b6104a3610ed2565b005b3480156104b157600080fd5b506104ba61156e565b005b3480156104c857600080fd5b506104e360048036038101906104de91906127d9565b611580565b005b3480156104f157600080fd5b506104fa611c28565b604051610507919061259e565b60405180910390f35b34801561051c57600080fd5b50610525611c2d565b604051610532919061259e565b60405180910390f35b34801561054757600080fd5b50610550611c33565b60405161055d9190612815565b60405180910390f35b34801561057257600080fd5b5061057b611c5c565b604051610588919061259e565b60405180910390f35b34801561059d57600080fd5b506105b860048036038101906105b391906126ec565b611c61565b6040516105c5919061259e565b60405180910390f35b3480156105da57600080fd5b506105e3611c79565b6040516105f0919061259e565b60405180910390f35b34801561060557600080fd5b5061060e611c7f565b60405161061b919061259e565b60405180910390f35b34801561063057600080fd5b5061064b600480360381019061064691906126ec565b611c85565b604051610658919061259e565b60405180910390f35b34801561066d57600080fd5b50610688600480360381019061068391906126ec565b611c9d565b604051610699959493929190612830565b60405180910390f35b6106bc60048036038101906106b791906127d9565b611d92565b005b3480156106ca57600080fd5b506106e560048036038101906106e091906126ec565b61209c565b6040516106f2919061259e565b60405180910390f35b34801561070757600080fd5b506107106120b4565b005b34801561071e57600080fd5b50610739600480360381019061073491906126ec565b6121f9565b604051610746919061259e565b60405180910390f35b34801561075b57600080fd5b50610776600480360381019061077191906126ec565b612211565b005b34801561078457600080fd5b5061078d612297565b60405161079a919061259e565b60405180910390f35b6107ab61229c565b600082116107ee576040517f08c379a00000000000000000000000000000000000000000000000000000000081526004016107e5906128e0565b60405180910390fd5b808210610830576040517f08c379a00000000000000000000000000000000000000000000000000000000081526004016108279061294c565b60405180910390fd5b662386f26fc1000081111561087a576040517f08c379a0000000000000000000000000000000000000000000000000000000008152600401610871906129b8565b60405180910390fd5b81600381905550806004819055507f0936b3616d5072fa8f7381ef8e7c35d39bed9ecfb2184e908a56027ad5c0b6bc82826040516108b99291906129d8565b60405180910390a15050565b600080600047925060055490508083116108e05760006108ed565b80836108ec9190612a30565b5b9150909192565b6108fc61229c565b60006005544761090c9190612a30565b905080821115610951576040517f08c379a000000000000000000000000000000000000000000000000000000000815260040161094890612ab0565b60405180910390fd5b600061095b611c33565b73ffffffffffffffffffffffffffffffffffffffff168360405161097e90612b01565b60006040518083038185875af1925050503d80600081146109bb576040519150601f19603f3d011682016040523d82523d6000602084013e6109c0565b606091505b5050905080610a04576040517f08c379a00000000000000000000000000000000000000000000000000000000081526004016109fb90612b62565b60405180910390fd5b3373ffffffffffffffffffffffffffffffffffffffff167fc1ae3c9b226d59664936fce829386f650f894b9351eec61063245c521161a47384600554604051610a4e9291906129d8565b60405180910390a2505050565b60045481565b61010081565b610a6f61229c565b610a77612323565b565b60075481565b600d6020528060005260406000206000915090508060000154908060010154908060020154908060030160009054906101000a900460ff16905084565b600281565b6000806000600960008573ffffffffffffffffffffffffffffffffffffffff1673ffffffffffffffffffffffffffffffffffffffff16815260200190815260200160002054600a60008673ffffffffffffffffffffffffffffffffffffffff1673ffffffffffffffffffffffffffffffffffffffff16815260200190815260200160002054600b60008773ffffffffffffffffffffffffffffffffffffffff1673ffffffffffffffffffffffffffffffffffffffff168152602001908152602001600020549250925092509193909250565b610b9b612386565b6000600d60003373ffffffffffffffffffffffffffffffffffffffff1673ffffffffffffffffffffffffffffffffffffffff1681526020019081526020016000209050600081600001541480610bff57508060030160009054906101000a900460ff165b15610c36576040517f9d46544500000000000000000000000000000000000000000000000000000000815260040160405180910390fd5b6101008160010154610c489190612b82565b4311610caa574360016101008360010154610c639190612b82565b610c6d9190612b82565b6040517fc167e8fa000000000000000000000000000000000000000000000000000000008152600401610ca19291906129d8565b60405180910390fd5b60018160030160006101000a81548160ff0219169083151502179055506000816000015490506000606460be83610ce19190612bb6565b610ceb9190612c27565b90508060056000828254610cff9190612a30565b9250508190555060003373ffffffffffffffffffffffffffffffffffffffff1683604051610d2c90612b01565b60006040518083038185875af1925050503d8060008114610d69576040519150601f19603f3d011682016040523d82523d6000602084013e610d6e565b606091505b5050905080610db2576040517f08c379a0000000000000000000000000000000000000000000000000000000008152600401610da990612ca4565b60405180910390fd5b3373ffffffffffffffffffffffffffffffffffffffff167f39381f757671e194c7c71915e8906307bae612dc6a68af4ff70e8ba61919813f84604051610df89190612d10565b60405180910390a250505050610e0c6123cc565b565b60065481565b6000600260009054906101000a900460ff16905090565b60003411610e6e576040517f08c379a0000000000000000000000000000000000000000000000000000000008152600401610e6590612d8a565b60405180910390fd5b3373ffffffffffffffffffffffffffffffffffffffff167f5c963fd7fde519af29d56159e6e3e18db4e5d3e4716c39c87958cf9e4862ed5834604051610eb4919061259e565b60405180910390a2565b610ec661229c565b610ed060006123d5565b565b610eda612386565b610ee2612499565b3273ffffffffffffffffffffffffffffffffffffffff163373ffffffffffffffffffffffffffffffffffffffff1614610f50576040517f08c379a0000000000000000000000000000000000000000000000000000000008152600401610f4790612df6565b60405180910390fd5b600354341015610f9b57346003546040517fac4d5cf8000000000000000000000000000000000000000000000000000000008152600401610f929291906129d8565b60405180910390fd5b600454341115610fe657346004546040517f69da332c000000000000000000000000000000000000000000000000000000008152600401610fdd9291906129d8565b60405180910390fd5b6000606460be34610ff79190612bb6565b6110019190612c27565b9050600034476110119190612a30565b90508181101561111d5760003373ffffffffffffffffffffffffffffffffffffffff163460405161104190612b01565b60006040518083038185875af1925050503d806000811461107e576040519150601f19603f3d011682016040523d82523d6000602084013e611083565b606091505b50509050806110c7576040517f08c379a00000000000000000000000000000000000000000000000000000000081526004016110be90612ca4565b60405180910390fd5b3373ffffffffffffffffffffffffffffffffffffffff167f39381f757671e194c7c71915e8906307bae612dc6a68af4ff70e8ba61919813f3460405161110d9190612e62565b60405180910390a2505050611564565b600060644442336006546001436111349190612a30565b40604051602001611149959493929190612f1a565b6040516020818303038152906040528051906020012060001c61116c9190612f79565b90506000600c60003373ffffffffffffffffffffffffffffffffffffffff1673ffffffffffffffffffffffffffffffffffffffff1681526020019081526020016000205490506000600a9050600060239050600283106111cf5760059150601490505b600080838610156112535760029150606460be346111ed9190612bb6565b6111f79190612c27565b9050600c60003373ffffffffffffffffffffffffffffffffffffffff1673ffffffffffffffffffffffffffffffffffffffff168152602001908152602001600020600081548092919061124990612faa565b9190505550611307565b828610156112b8576001915060023461126c9190612c27565b90506000600c60003373ffffffffffffffffffffffffffffffffffffffff1673ffffffffffffffffffffffffffffffffffffffff16815260200190815260200160002081905550611306565b60009150600090506000600c60003373ffffffffffffffffffffffffffffffffffffffff1673ffffffffffffffffffffffffffffffffffffffff168152602001908152602001600020819055505b5b6006600081548092919061131a90612faa565b919050555034600860008282546113319190612b82565b92505081905550600960003373ffffffffffffffffffffffffffffffffffffffff1673ffffffffffffffffffffffffffffffffffffffff168152602001908152602001600020600081548092919061138890612faa565b919050555034600b60003373ffffffffffffffffffffffffffffffffffffffff1673ffffffffffffffffffffffffffffffffffffffff16815260200190815260200160002060008282546113dc9190612b82565b9250508190555060008111156115095780600760008282546113fe9190612b82565b9250508190555080600a60003373ffffffffffffffffffffffffffffffffffffffff1673ffffffffffffffffffffffffffffffffffffffff16815260200190815260200160002060008282546114549190612b82565b9250508190555060003373ffffffffffffffffffffffffffffffffffffffff168260405161148190612b01565b60006040518083038185875af1925050503d80600081146114be576040519150601f19603f3d011682016040523d82523d6000602084013e6114c3565b606091505b5050905080611507576040517f08c379a00000000000000000000000000000000000000000000000000000000081526004016114fe9061303e565b60405180910390fd5b505b3373ffffffffffffffffffffffffffffffffffffffff167ff5bcda99d24ae05ced738a386eec191fd64e9def75392eb5f4cba1205923bb7c3484846040516115539392919061307a565b60405180910390a250505050505050505b61156c6123cc565b565b61157661229c565b61157e6124da565b565b611588612386565b611590612499565b6000600d60003373ffffffffffffffffffffffffffffffffffffffff1673ffffffffffffffffffffffffffffffffffffffff16815260200190815260200160002090506000816000015414806115f457508060030160009054906101000a900460ff165b1561162b576040517f9d46544500000000000000000000000000000000000000000000000000000000815260040160405180910390fd5b6001816001015461163c9190612b82565b431161169c574360018083600101546116559190612b82565b61165f9190612b82565b6040517fc167e8fa0000000000000000000000000000000000000000000000000000000081526004016116939291906129d8565b60405180910390fd5b61010081600101546116ae9190612b82565b431115611705574361010082600101546116c89190612b82565b6040517f64175dad0000000000000000000000000000000000000000000000000000000081526004016116fc9291906129d8565b60405180910390fd5b6000823360405160200161171a9291906130b1565b6040516020818303038152906040528051906020012090508160020154811461176f576040517f9ea6d12700000000000000000000000000000000000000000000000000000000815260040160405180910390fd5b60018260030160006101000a81548160ff0219169083151502179055506000826000015490506000606460be836117a69190612bb6565b6117b09190612c27565b905080600560008282546117c49190612a30565b925050819055506000600185600101546117de9190612b82565b40905060006064878333896001015460405160200161180094939291906130dd565b6040516020818303038152906040528051906020012060001c6118239190612f79565b90506000600c60003373ffffffffffffffffffffffffffffffffffffffff1673ffffffffffffffffffffffffffffffffffffffff1681526020019081526020016000205490506000600a9050600060239050600283106118865760059150601490505b6000808386101561190a5760029150606460be8a6118a49190612bb6565b6118ae9190612c27565b9050600c60003373ffffffffffffffffffffffffffffffffffffffff1673ffffffffffffffffffffffffffffffffffffffff168152602001908152602001600020600081548092919061190090612faa565b91905055506119be565b8286101561196f57600191506002896119239190612c27565b90506000600c60003373ffffffffffffffffffffffffffffffffffffffff1673ffffffffffffffffffffffffffffffffffffffff168152602001908152602001600020819055506119bd565b60009150600090506000600c60003373ffffffffffffffffffffffffffffffffffffffff1673ffffffffffffffffffffffffffffffffffffffff168152602001908152602001600020819055505b5b600660008154809291906119d190612faa565b919050555088600860008282546119e89190612b82565b92505081905550600960003373ffffffffffffffffffffffffffffffffffffffff1673ffffffffffffffffffffffffffffffffffffffff1681526020019081526020016000206000815480929190611a3f90612faa565b919050555088600b60003373ffffffffffffffffffffffffffffffffffffffff1673ffffffffffffffffffffffffffffffffffffffff1681526020019081526020016000206000828254611a939190612b82565b925050819055506000811115611bc0578060076000828254611ab59190612b82565b9250508190555080600a60003373ffffffffffffffffffffffffffffffffffffffff1673ffffffffffffffffffffffffffffffffffffffff1681526020019081526020016000206000828254611b0b9190612b82565b9250508190555060003373ffffffffffffffffffffffffffffffffffffffff1682604051611b3890612b01565b60006040518083038185875af1925050503d8060008114611b75576040519150601f19603f3d011682016040523d82523d6000602084013e611b7a565b606091505b5050905080611bbe576040517f08c379a0000000000000000000000000000000000000000000000000000000008152600401611bb59061303e565b60405180910390fd5b505b3373ffffffffffffffffffffffffffffffffffffffff167ff5bcda99d24ae05ced738a386eec191fd64e9def75392eb5f4cba1205923bb7c8a8484604051611c0a9392919061307a565b60405180910390a25050505050505050505050611c256123cc565b50565b600181565b60085481565b60008060009054906101000a900473ffffffffffffffffffffffffffffffffffffffff16905090565b600581565b600a6020528060005260406000206000915090505481565b60035481565b60055481565b600c6020528060005260406000206000915090505481565b600080600080600080600d60008873ffffffffffffffffffffffffffffffffffffffff1673ffffffffffffffffffffffffffffffffffffffff1681526020019081526020016000206040518060800160405290816000820154815260200160018201548152602001600282015481526020016003820160009054906101000a900460ff16151515158152505090508060000151816020015160018360200151611d469190612b82565b43118015611d6557506101008360200151611d619190612b82565b4311155b6101008460200151611d779190612b82565b43118460600151955095509550955095505091939590929450565b611d9a612386565b611da2612499565b600354341015611ded57346003546040517fac4d5cf8000000000000000000000000000000000000000000000000000000008152600401611de49291906129d8565b60405180910390fd5b600454341115611e3857346004546040517f69da332c000000000000000000000000000000000000000000000000000000008152600401611e2f9291906129d8565b60405180910390fd5b6000600d60003373ffffffffffffffffffffffffffffffffffffffff1673ffffffffffffffffffffffffffffffffffffffff16815260200190815260200160002060000154118015611ed75750600d60003373ffffffffffffffffffffffffffffffffffffffff1673ffffffffffffffffffffffffffffffffffffffff16815260200190815260200160002060030160009054906101000a900460ff16155b15611f0e576040517f97bcd0a000000000000000000000000000000000000000000000000000000000815260040160405180910390fd5b6000606460be34611f1f9190612bb6565b611f299190612c27565b905060003447611f399190612a30565b905081811015611f825780826040517fa54b6dcf000000000000000000000000000000000000000000000000000000008152600401611f799291906129d8565b60405180910390fd5b604051806080016040528034815260200143815260200184815260200160001515815250600d60003373ffffffffffffffffffffffffffffffffffffffff1673ffffffffffffffffffffffffffffffffffffffff16815260200190815260200160002060008201518160000155602082015181600101556040820151816002015560608201518160030160006101000a81548160ff02191690831515021790555090505081600560008282546120389190612b82565b925050819055503373ffffffffffffffffffffffffffffffffffffffff167f08e8ecce9ba6ca1ed63a78aa1d2e9f4099167054afeaa7bae09164774f02640f348560405161208792919061312b565b60405180910390a250506120996123cc565b50565b60096020528060005260406000206000915090505481565b6120bc61229c565b6120c461253d565b6000479050600060055482116120da57816120e9565b600554826120e89190612a30565b5b9050600060058190555060006120fd611c33565b73ffffffffffffffffffffffffffffffffffffffff168260405161212090612b01565b60006040518083038185875af1925050503d806000811461215d576040519150601f19603f3d011682016040523d82523d6000602084013e612162565b606091505b50509050806121a6576040517f08c379a000000000000000000000000000000000000000000000000000000000815260040161219d906131a0565b60405180910390fd5b3373ffffffffffffffffffffffffffffffffffffffff167f5fafa99d0643513820be26656b45130b01e1c03062e1266bf36f88cbd3bd9695836040516121ec919061259e565b60405180910390a2505050565b600b6020528060005260406000206000915090505481565b61221961229c565b600073ffffffffffffffffffffffffffffffffffffffff168173ffffffffffffffffffffffffffffffffffffffff160361228b5760006040517f1e4fbdf70000000000000000000000000000000000000000000000000000000081526004016122829190612815565b60405180910390fd5b612294816123d5565b50565b60be81565b6122a461257d565b73ffffffffffffffffffffffffffffffffffffffff166122c2611c33565b73ffffffffffffffffffffffffffffffffffffffff1614612321576122e561257d565b6040517f118cdaa70000000000000000000000000000000000000000000000000000000081526004016123189190612815565b60405180910390fd5b565b61232b61253d565b6000600260006101000a81548160ff0219169083151502179055507f5db9ee0a495bf2e6ff9c91a7834c1ba4fdd244a5e8aa4e537bd38aeae4b073aa61236f61257d565b60405161237c9190612815565b60405180910390a1565b6002600154036123c2576040517f3ee5aeb500000000000000000000000000000000000000000000000000000000815260040160405180910390fd5b6002600181905550565b60018081905550565b60008060009054906101000a900473ffffffffffffffffffffffffffffffffffffffff169050816000806101000a81548173ffffffffffffffffffffffffffffffffffffffff021916908373ffffffffffffffffffffffffffffffffffffffff1602179055508173ffffffffffffffffffffffffffffffffffffffff168173ffffffffffffffffffffffffffffffffffffffff167f8be0079c531659141344cd1fd0a4f28419497f9722a3daafe3b4186f6b6457e060405160405180910390a35050565b6124a1610e14565b156124d8576040517fd93c066500000000000000000000000000000000000000000000000000000000815260040160405180910390fd5b565b6124e2612499565b6001600260006101000a81548160ff0219169083151502179055507f62e78cea01bee320cd4e420270b5ea74000d11b0c9f74754ebdbfc544b05a25861252661257d565b6040516125339190612815565b60405180910390a1565b612545610e14565b61257b576040517f8dfc202b00000000000000000000000000000000000000000000000000000000815260040160405180910390fd5b565b600033905090565b6000819050919050565b61259881612585565b82525050565b60006020820190506125b3600083018461258f565b92915050565b600080fd5b6125c781612585565b81146125d257600080fd5b50565b6000813590506125e4816125be565b92915050565b60008060408385031215612601576126006125b9565b5b600061260f858286016125d5565b9250506020612620858286016125d5565b9150509250929050565b600060608201905061263f600083018661258f565b61264c602083018561258f565b612659604083018461258f565b949350505050565b600060208284031215612677576126766125b9565b5b6000612685848285016125d5565b91505092915050565b600073ffffffffffffffffffffffffffffffffffffffff82169050919050565b60006126b98261268e565b9050919050565b6126c9816126ae565b81146126d457600080fd5b50565b6000813590506126e6816126c0565b92915050565b600060208284031215612702576127016125b9565b5b6000612710848285016126d7565b91505092915050565b6000819050919050565b61272c81612719565b82525050565b60008115159050919050565b61274781612732565b82525050565b6000608082019050612762600083018761258f565b61276f602083018661258f565b61277c6040830185612723565b612789606083018461273e565b95945050505050565b60006020820190506127a7600083018461273e565b92915050565b6127b681612719565b81146127c157600080fd5b50565b6000813590506127d3816127ad565b92915050565b6000602082840312156127ef576127ee6125b9565b5b60006127fd848285016127c4565b91505092915050565b61280f816126ae565b82525050565b600060208201905061282a6000830184612806565b92915050565b600060a082019050612845600083018861258f565b612852602083018761258f565b61285f604083018661273e565b61286c606083018561273e565b612879608083018461273e565b9695505050505050565b600082825260208201905092915050565b7f4d696e20626574206d75737420626520706f7369746976650000000000000000600082015250565b60006128ca601883612883565b91506128d582612894565b602082019050919050565b600060208201905081810360008301526128f9816128bd565b9050919050565b7f496e76616c6964206265742072616e6765000000000000000000000000000000600082015250565b6000612936601183612883565b915061294182612900565b602082019050919050565b6000602082019050818103600083015261296581612929565b9050919050565b7f4d61782062657420746f6f206869676800000000000000000000000000000000600082015250565b60006129a2601083612883565b91506129ad8261296c565b602082019050919050565b600060208201905081810360008301526129d181612995565b9050919050565b60006040820190506129ed600083018561258f565b6129fa602083018461258f565b9392505050565b7f4e487b7100000000000000000000000000000000000000000000000000000000600052601160045260246000fd5b6000612a3b82612585565b9150612a4683612585565b9250828203905081811115612a5e57612a5d612a01565b5b92915050565b7f43616e6e6f742077697468647261772072657365727665642066756e64730000600082015250565b6000612a9a601e83612883565b9150612aa582612a64565b602082019050919050565b60006020820190508181036000830152612ac981612a8d565b9050919050565b600081905092915050565b50565b6000612aeb600083612ad0565b9150612af682612adb565b600082019050919050565b6000612b0c82612ade565b9150819050919050565b7f5769746864726177616c206661696c6564000000000000000000000000000000600082015250565b6000612b4c601183612883565b9150612b5782612b16565b602082019050919050565b60006020820190508181036000830152612b7b81612b3f565b9050919050565b6000612b8d82612585565b9150612b9883612585565b9250828201905080821115612bb057612baf612a01565b5b92915050565b6000612bc182612585565b9150612bcc83612585565b9250828202612bda81612585565b91508282048414831517612bf157612bf0612a01565b5b5092915050565b7f4e487b7100000000000000000000000000000000000000000000000000000000600052601260045260246000fd5b6000612c3282612585565b9150612c3d83612585565b925082612c4d57612c4c612bf8565b5b828204905092915050565b7f526566756e64206661696c656400000000000000000000000000000000000000600082015250565b6000612c8e600d83612883565b9150612c9982612c58565b602082019050919050565b60006020820190508181036000830152612cbd81612c81565b9050919050565b7f52657665616c2074696d656f7574000000000000000000000000000000000000600082015250565b6000612cfa600e83612883565b9150612d0582612cc4565b602082019050919050565b6000604082019050612d25600083018461258f565b8181036020830152612d3681612ced565b905092915050565b7f4d7573742073656e642043454c4f000000000000000000000000000000000000600082015250565b6000612d74600e83612883565b9150612d7f82612d3e565b602082019050919050565b60006020820190508181036000830152612da381612d67565b9050919050565b7f4e6f20636f6e74726163742063616c6c73000000000000000000000000000000600082015250565b6000612de0601183612883565b9150612deb82612daa565b602082019050919050565b60006020820190508181036000830152612e0f81612dd3565b9050919050565b7f496e73756666696369656e7420686f7573652062616c616e6365000000000000600082015250565b6000612e4c601a83612883565b9150612e5782612e16565b602082019050919050565b6000604082019050612e77600083018461258f565b8181036020830152612e8881612e3f565b905092915050565b6000819050919050565b612eab612ea682612585565b612e90565b82525050565b60008160601b9050919050565b6000612ec982612eb1565b9050919050565b6000612edb82612ebe565b9050919050565b612ef3612eee826126ae565b612ed0565b82525050565b6000819050919050565b612f14612f0f82612719565b612ef9565b82525050565b6000612f268288612e9a565b602082019150612f368287612e9a565b602082019150612f468286612ee2565b601482019150612f568285612e9a565b602082019150612f668284612f03565b6020820191508190509695505050505050565b6000612f8482612585565b9150612f8f83612585565b925082612f9f57612f9e612bf8565b5b828206905092915050565b6000612fb582612585565b91507fffffffffffffffffffffffffffffffffffffffffffffffffffffffffffffffff8203612fe757612fe6612a01565b5b600182019050919050565b7f5061796f7574206661696c656400000000000000000000000000000000000000600082015250565b6000613028600d83612883565b915061303382612ff2565b602082019050919050565b600060208201905081810360008301526130578161301b565b9050919050565b600060ff82169050919050565b6130748161305e565b82525050565b600060608201905061308f600083018661258f565b61309c602083018561306b565b6130a9604083018461258f565b949350505050565b60006130bd8285612f03565b6020820191506130cd8284612ee2565b6014820191508190509392505050565b60006130e98287612f03565b6020820191506130f98286612f03565b6020820191506131098285612ee2565b6014820191506131198284612e9a565b60208201915081905095945050505050565b6000604082019050613140600083018561258f565b61314d6020830184612723565b9392505050565b7f456d657267656e6379207769746864726177616c206661696c65640000000000600082015250565b600061318a601b83612883565b915061319582613154565b602082019050919050565b600060208201905081810360008301526131b98161317d565b905091905056fea2646970667358221220b262cdaa528ff2478e5507da9a2cd7fb638a4959765d003f91f76a1715e5e03a64736f6c63430008180033",
  "linkReferences": {},
  "deployedLinkReferences": {}
}