{
  "_format": "hh-sol-artifact-1",
  "contractName": "ArrowGameSecure",
  "sourceName": "contracts/ArrowGameSecure.sol",
  "abi": [
    {
      "inputs": [],
      "stateMutability": "nonpayable",
      "type": "constructor"
    },
    {
      "inputs": [
        {
          "internalType": "uint256",
          "name": "sent",
          "type": "uint256"
        },
        {
          "internalType": "uint256",
          "name": "maximum",
          "type": "uint256"
        }
      ],
      "name": "BetTooLarge",
      "type": "error"
    },
    {
      "inputs": [
        {
          "internalType": "uint256",
          "name": "sent",
          "type": "uint256"
        },
        {
          "internalType": "uint256",
          "name": "minimum",
          "type": "uint256"
        }
      ],
      "name": "BetTooSmall",
      "type": "error"
    },
    {
      "inputs": [],
      "name": "EnforcedPause",
      "type": "error"
    },
    {
      "inputs": [],
      "name": "ExpectedPause",
      "type": "error"
    },
    {
      "inputs": [
        {
          "internalType": "uint256",
          "name": "available",
          "type": "uint256"
        },
        {
          "internalType": "uint256",
          "name": "required",
          "type": "uint256"
        }
      ],
      "name": "InsufficientHouseBalance",
      "type": "error"
    },
    {
      "inputs": [],
      "name": "InvalidReveal",
      "type": "error"
    },
    {
      "inputs": [],
      "name": "NoPendingBet",
      "type": "error"
    },
    {
      "inputs": [
        {
          "internalType": "address",
          "name": "owner",
          "type": "address"
        }
      ],
      "name": "OwnableInvalidOwner",
      "type": "error"
    },
    {
      "inputs": [
        {
          "internalType": "address",
          "name": "account",
          "type": "address"
        }
      ],
      "name": "OwnableUnauthorizedAccount",
      "type": "error"
    },
    {
      "inputs": [],
      "name": "PendingBetExists",
      "type": "error"
    },
    {
      "inputs": [],
      "name": "ReentrancyGuardReentrantCall",
      "type": "error"
    },
    {
      "inputs": [
        {
          "internalType": "uint256",
          "name": "currentBlock",
          "type": "uint256"
        },
        {
          "internalType": "uint256",
          "name": "requiredBlock",
          "type": "uint256"
        }
      ],
      "name": "RevealTooEarly",
      "type": "error"
    },
    {
      "inputs": [
        {
          "internalType": "uint256",
          "name": "currentBlock",
          "type": "uint256"
        },
        {
          "internalType": "uint256",
          "name": "deadline",
          "type": "uint256"
        }
      ],
      "name": "RevealTooLate",
      "type": "error"
    },
    {
      "anonymous": false,
      "inputs": [
        {
          "indexed": true,
          "internalType": "address",
          "name": "player",
          "type": "address"
        },
        {
          "indexed": false,
          "internalType": "uint256",
          "name": "amount",
          "type": "uint256"
        },
        {
          "indexed": false,
          "internalType": "bytes32",
          "name": "commitHash",
          "type": "bytes32"
        }
      ],
      "name": "BetCommitted",
      "type": "event"
    },
    {
      "anonymous": false,
      "inputs": [
        {
          "indexed": true,
          "internalType": "address",
          "name": "player",
          "type": "address"
        },
        {
          "indexed": false,
          "internalType": "uint256",
          "name": "amount",
          "type": "uint256"
        },
        {
          "indexed": false,
          "internalType": "string",
          "name": "reason",
          "type": "string"
        }
      ],
      "name": "BetRefunded",
      "type": "event"
    },
    {
      "anonymous": false,
      "inputs": [
        {
          "indexed": true,
          "internalType": "address",
          "name": "player",
          "type": "address"
        },
        {
          "indexed": false,
          "internalType": "uint256",
          "name": "amount",
          "type": "uint256"
        },
        {
          "indexed": false,
          "internalType": "uint8",
          "name": "result",
          "type": "uint8"
        },
        {
          "indexed": false,
          "internalType": "uint256",
          "name": "payout",
          "type": "uint256"
        }
      ],
      "name": "BetRevealed",
      "type": "event"
    },
    {
      "anonymous": false,
      "inputs": [
        {
          "indexed": false,
          "internalType": "uint256",
          "name": "minBet",
          "type": "uint256"
        },
        {
          "indexed": false,
          "internalType": "uint256",
          "name": "maxBet",
          "type": "uint256"
        }
      ],
      "name": "ConfigUpdated",
      "type": "event"
    },
    {
      "anonymous": false,
      "inputs": [
        {
          "indexed": true,
          "internalType": "address",
          "name": "owner",
          "type": "address"
        },
        {
          "indexed": false,
          "internalType": "uint256",
          "name": "amount",
          "type": "uint256"
        }
      ],
      "name": "EmergencyWithdraw",
      "type": "event"
    },
    {
      "anonymous": false,
      "inputs": [
        {
          "indexed": true,
          "internalType": "address",
          "name": "funder",
          "type": "address"
        },
        {
          "indexed": false,
          "internalType": "uint256",
          "name": "amount",
          "type": "uint256"
        }
      ],
      "name": "GameFunded",
      "type": "event"
    },
    {
      "anonymous": false,
      "inputs": [
        {
          "indexed": true,
          "internalType": "address",
          "name": "owner",
          "type": "address"
        },
        {
          "indexed": false,
          "internalType": "uint256",
          "name": "amount",
          "type": "uint256"
        },
        {
          "indexed": false,
          "internalType": "uint256",
          "name": "remainingReserve",
          "type": "uint256"
        }
      ],
      "name": "HouseWithdraw",
      "type": "event"
    },
    {
      "anonymous": false,
      "inputs": [
        {
          "indexed": true,
          "internalType": "address",
          "name": "previousOwner",
          "type": "address"
        },
        {
          "indexed": true,
          "internalType": "address",
          "name": "newOwner",
          "type": "address"
        }
      ],
      "name": "OwnershipTransferred",
      "type": "event"
    },
    {
      "anonymous": false,
      "inputs": [
        {
          "indexed": false,
          "internalType": "address",
          "name": "account",
          "type": "address"
        }
      ],
      "name": "Paused",
      "type": "event"
    },
    {
      "anonymous": false,
      "inputs": [
        {
          "indexed": false,
          "internalType": "uint256",
          "name": "newReserve",
          "type": "uint256"
        }
      ],
      "name": "ReserveUpdated",
      "type": "event"
    },
    {
      "anonymous": false,
      "inputs": [
        {
          "indexed": false,
          "internalType": "address",
          "name": "account",
          "type": "address"
        }
      ],
      "name": "Unpaused",
      "type": "event"
    },
    {
      "inputs": [],
      "name": "HOUSE_EDGE",
      "outputs": [
        {
          "internalType": "uint256",
          "name": "",
          "type": "uint256"
        }
      ],
      "stateMutability": "view",
      "type": "function"
    },
    {
      "inputs": [],
      "name": "MAX_PAYOUT_MULTIPLIER",
      "outputs": [
        {
          "internalType": "uint256",
          "name": "",
          "type": "uint256"
        }
      ],
      "stateMutability": "view",
      "type": "function"
    },
    {
      "inputs": [],
      "name": "MIN_REVEAL_DELAY",
      "outputs": [
        {
          "internalType": "uint256",
          "name": "",
          "type": "uint256"
        }
      ],
      "stateMutability": "view",
      "type": "function"
    },
    {
      "inputs": [],
      "name": "REVEAL_TIMEOUT",
      "outputs": [
        {
          "internalType": "uint256",
          "name": "",
          "type": "uint256"
        }
      ],
      "stateMutability": "view",
      "type": "function"
    },
    {
      "inputs": [
        {
          "internalType": "bytes32",
          "name": "commitHash",
          "type": "bytes32"
        }
      ],
      "name": "commitBet",
      "outputs": [],
      "stateMutability": "payable",
      "type": "function"
    },
    {
      "inputs": [],
      "name": "emergencyWithdraw",
      "outputs": [],
      "stateMutability": "nonpayable",
      "type": "function"
    },
    {
      "inputs": [],
      "name": "fundHouse",
      "outputs": [],
      "stateMutability": "payable",
      "type": "function"
    },
    {
      "inputs": [],
      "name": "getHouseBalance",
      "outputs": [
        {
          "internalType": "uint256",
          "name": "total",
          "type": "uint256"
        },
        {
          "internalType": "uint256",
          "name": "available",
          "type": "uint256"
        },
        {
          "internalType": "uint256",
          "name": "reserved",
          "type": "uint256"
        }
      ],
      "stateMutability": "view",
      "type": "function"
    },
    {
      "inputs": [
        {
          "internalType": "address",
          "name": "player",
          "type": "address"
        }
      ],
      "name": "getPendingBet",
      "outputs": [
        {
          "internalType": "uint256",
          "name": "amount",
          "type": "uint256"
        },
        {
          "internalType": "uint256",
          "name": "commitBlock",
          "type": "uint256"
        },
        {
          "internalType": "bool",
          "name": "canReveal",
          "type": "bool"
        },
        {
          "internalType": "bool",
          "name": "canRefund",
          "type": "bool"
        },
        {
          "internalType": "bool",
          "name": "resolved",
          "type": "bool"
        }
      ],
      "stateMutability": "view",
      "type": "function"
    },
    {
      "inputs": [
        {
          "internalType": "address",
          "name": "player",
          "type": "address"
        }
      ],
      "name": "getPlayerStats",
      "outputs": [
        {
          "internalType": "uint256",
          "name": "gamesPlayed",
          "type": "uint256"
        },
        {
          "internalType": "uint256",
          "name": "totalWon",
          "type": "uint256"
        },
        {
          "internalType": "uint256",
          "name": "totalWagered_",
          "type": "uint256"
        }
      ],
      "stateMutability": "view",
      "type": "function"
    },
    {
      "inputs": [],
      "name": "maxBet",
      "outputs": [
        {
          "internalType": "uint256",
          "name": "",
          "type": "uint256"
        }
      ],
      "stateMutability": "view",
      "type": "function"
    },
    {
      "inputs": [],
      "name": "minBet",
      "outputs": [
        {
          "internalType": "uint256",
          "name": "",
          "type": "uint256"
        }
      ],
      "stateMutability": "view",
      "type": "function"
    },
    {
      "inputs": [],
      "name": "owner",
      "outputs": [
        {
          "internalType": "address",
          "name": "",
          "type": "address"
        }
      ],
      "stateMutability": "view",
      "type": "function"
    },
    {
      "inputs": [],
      "name": "pause",
      "outputs": [],
      "stateMutability": "nonpayable",
      "type": "function"
    },
    {
      "inputs": [],
      "name": "paused",
      "outputs": [
        {
          "internalType": "bool",
          "name": "",
          "type": "bool"
        }
      ],
      "stateMutability": "view",
      "type": "function"
    },
    {
      "inputs": [
        {
          "internalType": "address",
          "name": "",
          "type": "address"
        }
      ],
      "name": "pendingBets",
      "outputs": [
        {
          "internalType": "uint256",
          "name": "amount",
          "type": "uint256"
        },
        {
          "internalType": "uint256",
          "name": "commitBlock",
          "type": "uint256"
        },
        {
          "internalType": "bytes32",
          "name": "commitHash",
          "type": "bytes32"
        },
        {
          "internalType": "bool",
          "name": "resolved",
          "type": "bool"
        }
      ],
      "stateMutability": "view",
      "type": "function"
    },
    {
      "inputs": [
        {
          "internalType": "address",
          "name": "",
          "type": "address"
        }
      ],
      "name": "playerGamesPlayed",
      "outputs": [
        {
          "internalType": "uint256",
          "name": "",
          "type": "uint256"
        }
      ],
      "stateMutability": "view",
      "type": "function"
    },
    {
      "inputs": [
        {
          "internalType": "address",
          "name": "",
          "type": "address"
        }
      ],
      "name": "playerTotalWagered",
      "outputs": [
        {
          "internalType": "uint256",
          "name": "",
          "type": "uint256"
        }
      ],
      "stateMutability": "view",
      "type": "function"
    },
    {
      "inputs": [
        {
          "internalType": "address",
          "name": "",
          "type": "address"
        }
      ],
      "name": "playerTotalWon",
      "outputs": [
        {
          "internalType": "uint256",
          "name": "",
          "type": "uint256"
        }
      ],
      "stateMutability": "view",
      "type": "function"
    },
    {
      "inputs": [],
      "name": "quickBet",
      "outputs": [],
      "stateMutability": "payable",
      "type": "function"
    },
    {
      "inputs": [],
      "name": "refundExpiredBet",
      "outputs": [],
      "stateMutability": "nonpayable",
      "type": "function"
    },
    {
      "inputs": [],
      "name": "renounceOwnership",
      "outputs": [],
      "stateMutability": "nonpayable",
      "type": "function"
    },
    {
      "inputs": [],
      "name": "reserveBalance",
      "outputs": [
        {
          "internalType": "uint256",
          "name": "",
          "type": "uint256"
        }
      ],
      "stateMutability": "view",
      "type": "function"
    },
    {
      "inputs": [
        {
          "internalType": "bytes32",
          "name": "secret",
          "type": "bytes32"
        }
      ],
      "name": "revealBet",
      "outputs": [],
      "stateMutability": "nonpayable",
      "type": "function"
    },
    {
      "inputs": [],
      "name": "totalGamesPlayed",
      "outputs": [
        {
          "internalType": "uint256",
          "name": "",
          "type": "uint256"
        }
      ],
      "stateMutability": "view",
      "type": "function"
    },
    {
      "inputs": [],
      "name": "totalPayouts",
      "outputs": [
        {
          "internalType": "uint256",
          "name": "",
          "type": "uint256"
        }
      ],
      "stateMutability": "view",
      "type": "function"
    },
    {
      "inputs": [],
      "name": "totalWagered",
      "outputs": [
        {
          "internalType": "uint256",
          "name": "",
          "type": "uint256"
        }
      ],
      "stateMutability": "view",
      "type": "function"
    },
    {
      "inputs": [
        {
          "internalType": "address",
          "name": "newOwner",
          "type": "address"
        }
      ],
      "name": "transferOwnership",
      "outputs": [],
      "stateMutability": "nonpayable",
      "type": "function"
    },
    {
      "inputs": [],
      "name": "unpause",
      "outputs": [],
      "stateMutability": "nonpayable",
      "type": "function"
    },
    {
      "inputs": [
        {
          "internalType": "uint256",
          "name": "_minBet",
          "type": "uint256"
        },
        {
          "internalType": "uint256",
          "name": "_maxBet",
          "type": "uint256"
        }
      ],
      "name": "updateBetLimits",
      "outputs": [],
      "stateMutability": "nonpayable",
      "type": "function"
    },
    {
      "inputs": [
        {
          "internalType": "uint256",
          "name": "amount",
          "type": "uint256"
        }
      ],
      "name": "withdrawHouse",
      "outputs": [],
      "stateMutability": "nonpayable",
      "type": "function"
    },
    {
      "stateMutability": "payable",
      "type": "receive"
    }
  ],
  "bytecode": "0x60806040526601c6bf526340006003556611c37937e080006004553480156200002757600080fd5b5033600073ffffffffffffffffffffffffffffffffffffffff168173ffffffffffffffffffffffffffffffffffffffff16036200009e5760006040517f1e4fbdf7000000000000000000000000000000000000000000000000000000008152600401620000959190620001ce565b60405180910390fd5b620000af81620000c560201b60201c565b50600180819055506000600581905550620001eb565b60008060009054906101000a900473ffffffffffffffffffffffffffffffffffffffff169050816000806101000a81548173ffffffffffffffffffffffffffffffffffffffff021916908373ffffffffffffffffffffffffffffffffffffffff1602179055508173ffffffffffffffffffffffffffffffffffffffff168173ffffffffffffffffffffffffffffffffffffffff167f8be0079c531659141344cd1fd0a4f28419497f9722a3daafe3b4186f6b6457e060405160405180910390a35050565b600073ffffffffffffffffffffffffffffffffffffffff82169050919050565b6000620001b68262000189565b9050919050565b620001c881620001a9565b82525050565b6000602082019050620001e56000830184620001bd565b92915050565b612dd480620001fb6000396000f3fe6080604052600436106101dc5760003560e01c80638456cb5911610102578063a10954fe11610095578063db2e21bc11610064578063db2e21bc1461067d578063e534f65214610694578063f2fde38b146106d1578063f6546372146106fa57610231565b8063a10954fe146105b8578063b13f52e0146105e3578063c61a25d414610624578063c8c1fcaa1461064057610231565b80638da5cb5b116100d15780638da5cb5b146104fa5780638daaaa2f146105255780638ed2b47e146105505780639619367d1461058d57610231565b80638456cb59146104645780638713277b1461047b578063888eeea6146104a45780638a14f12c146104cf57610231565b806344b0b7881161017a5780635c975abb116101495780635c975abb1461040e5780636afbb01b14610439578063715018a614610443578063722f4a871461045a57610231565b806344b0b7881461034d5780634fd66eae1461038d57806356b4540f146103cc5780635c492129146103e357610231565b80632e5b2168116101b65780632e5b2168146102b55780633d6ae3a7146102e05780633f4ba83a1461030b5780634089b1701461032257610231565b8063034d3ec21461023657806305a8d5691461025f578063232184111461028c57610231565b36610231573373ffffffffffffffffffffffffffffffffffffffff167f5c963fd7fde519af29d56159e6e3e18db4e5d3e4716c39c87958cf9e4862ed583460405161022791906121e8565b60405180910390a2005b600080fd5b34801561024257600080fd5b5061025d60048036038101906102589190612234565b610725565b005b34801561026b57600080fd5b50610274610847565b60405161028393929190612274565b60405180910390f35b34801561029857600080fd5b506102b360048036038101906102ae91906122ab565b610876565b005b3480156102c157600080fd5b506102ca6109dd565b6040516102d791906121e8565b60405180910390f35b3480156102ec57600080fd5b506102f56109e3565b60405161030291906121e8565b60405180910390f35b34801561031757600080fd5b506103206109e9565b005b34801561032e57600080fd5b506103376109fb565b60405161034491906121e8565b60405180910390f35b34801561035957600080fd5b50610374600480360381019061036f9190612336565b610a01565b6040516103849493929190612397565b60405180910390f35b34801561039957600080fd5b506103b460048036038101906103af9190612336565b610a3e565b6040516103c393929190612274565b60405180910390f35b3480156103d857600080fd5b506103e1610b10565b005b3480156103ef57600080fd5b506103f8610d8b565b60405161040591906121e8565b60405180910390f35b34801561041a57600080fd5b50610423610d91565b60405161043091906123dc565b60405180910390f35b610441610da8565b005b34801561044f57600080fd5b50610458610e3b565b005b610462610e4f565b005b34801561047057600080fd5b5061047961133c565b005b34801561048757600080fd5b506104a2600480360381019061049d9190612423565b61134e565b005b3480156104b057600080fd5b506104b96118b5565b6040516104c691906121e8565b60405180910390f35b3480156104db57600080fd5b506104e46118ba565b6040516104f191906121e8565b60405180910390f35b34801561050657600080fd5b5061050f6118c0565b60405161051c919061245f565b60405180910390f35b34801561053157600080fd5b5061053a6118e9565b60405161054791906121e8565b60405180910390f35b34801561055c57600080fd5b5061057760048036038101906105729190612336565b6118ee565b60405161058491906121e8565b60405180910390f35b34801561059957600080fd5b506105a2611906565b6040516105af91906121e8565b60405180910390f35b3480156105c457600080fd5b506105cd61190c565b6040516105da91906121e8565b60405180910390f35b3480156105ef57600080fd5b5061060a60048036038101906106059190612336565b611912565b60405161061b95949392919061247a565b60405180910390f35b61063e60048036038101906106399190612423565b611a07565b005b34801561064c57600080fd5b5061066760048036038101906106629190612336565b611d11565b60405161067491906121e8565b60405180910390f35b34801561068957600080fd5b50610692611d29565b005b3480156106a057600080fd5b506106bb60048036038101906106b69190612336565b611e43565b6040516106c891906121e8565b60405180910390f35b3480156106dd57600080fd5b506106f860048036038101906106f39190612336565b611e5b565b005b34801561070657600080fd5b5061070f611ee1565b60405161071c91906121e8565b60405180910390f35b61072d611ee6565b60008211610770576040517f08c379a00000000000000000000000000000000000000000000000000000000081526004016107679061252a565b60405180910390fd5b8082106107b2576040517f08c379a00000000000000000000000000000000000000000000000000000000081526004016107a990612596565b60405180910390fd5b662386f26fc100008111156107fc576040517f08c379a00000000000000000000000000000000000000000000000000000000081526004016107f390612602565b60405180910390fd5b81600381905550806004819055507f0936b3616d5072fa8f7381ef8e7c35d39bed9ecfb2184e908a56027ad5c0b6bc828260405161083b929190612622565b60405180910390a15050565b6000806000479250600554905080831161086257600061086f565b808361086e919061267a565b5b9150909192565b61087e611ee6565b60006005544761088e919061267a565b9050808211156108d3576040517f08c379a00000000000000000000000000000000000000000000000000000000081526004016108ca906126fa565b60405180910390fd5b60006108dd6118c0565b73ffffffffffffffffffffffffffffffffffffffff16836040516109009061274b565b60006040518083038185875af1925050503d806000811461093d576040519150601f19603f3d011682016040523d82523d6000602084013e610942565b606091505b5050905080610986576040517f08c379a000000000000000000000000000000000000000000000000000000000815260040161097d906127ac565b60405180910390fd5b3373ffffffffffffffffffffffffffffffffffffffff167fc1ae3c9b226d59664936fce829386f650f894b9351eec61063245c521161a473846005546040516109d0929190612622565b60405180910390a2505050565b60045481565b61010081565b6109f1611ee6565b6109f9611f6d565b565b60075481565b600c6020528060005260406000206000915090508060000154908060010154908060020154908060030160009054906101000a900460ff16905084565b6000806000600960008573ffffffffffffffffffffffffffffffffffffffff1673ffffffffffffffffffffffffffffffffffffffff16815260200190815260200160002054600a60008673ffffffffffffffffffffffffffffffffffffffff1673ffffffffffffffffffffffffffffffffffffffff16815260200190815260200160002054600b60008773ffffffffffffffffffffffffffffffffffffffff1673ffffffffffffffffffffffffffffffffffffffff168152602001908152602001600020549250925092509193909250565b610b18611fd0565b6000600c60003373ffffffffffffffffffffffffffffffffffffffff1673ffffffffffffffffffffffffffffffffffffffff1681526020019081526020016000209050600081600001541480610b7c57508060030160009054906101000a900460ff165b15610bb3576040517f9d46544500000000000000000000000000000000000000000000000000000000815260040160405180910390fd5b6101008160010154610bc591906127cc565b4311610c27574360016101008360010154610be091906127cc565b610bea91906127cc565b6040517fc167e8fa000000000000000000000000000000000000000000000000000000008152600401610c1e929190612622565b60405180910390fd5b60018160030160006101000a81548160ff0219169083151502179055506000816000015490506000606460be83610c5e9190612800565b610c689190612871565b90508060056000828254610c7c919061267a565b9250508190555060003373ffffffffffffffffffffffffffffffffffffffff1683604051610ca99061274b565b60006040518083038185875af1925050503d8060008114610ce6576040519150601f19603f3d011682016040523d82523d6000602084013e610ceb565b606091505b5050905080610d2f576040517f08c379a0000000000000000000000000000000000000000000000000000000008152600401610d26906128ee565b60405180910390fd5b3373ffffffffffffffffffffffffffffffffffffffff167f39381f757671e194c7c71915e8906307bae612dc6a68af4ff70e8ba61919813f84604051610d75919061295a565b60405180910390a250505050610d89612016565b565b60065481565b6000600260009054906101000a900460ff16905090565b60003411610deb576040517f08c379a0000000000000000000000000000000000000000000000000000000008152600401610de2906129d4565b60405180910390fd5b3373ffffffffffffffffffffffffffffffffffffffff167f5c963fd7fde519af29d56159e6e3e18db4e5d3e4716c39c87958cf9e4862ed5834604051610e3191906121e8565b60405180910390a2565b610e43611ee6565b610e4d600061201f565b565b610e57611fd0565b610e5f6120e3565b600354341015610eaa57346003546040517fac4d5cf8000000000000000000000000000000000000000000000000000000008152600401610ea1929190612622565b60405180910390fd5b600454341115610ef557346004546040517f69da332c000000000000000000000000000000000000000000000000000000008152600401610eec929190612622565b60405180910390fd5b6000606460be34610f069190612800565b610f109190612871565b905060003447610f20919061267a565b90508181101561102c5760003373ffffffffffffffffffffffffffffffffffffffff1634604051610f509061274b565b60006040518083038185875af1925050503d8060008114610f8d576040519150601f19603f3d011682016040523d82523d6000602084013e610f92565b606091505b5050905080610fd6576040517f08c379a0000000000000000000000000000000000000000000000000000000008152600401610fcd906128ee565b60405180910390fd5b3373ffffffffffffffffffffffffffffffffffffffff167f39381f757671e194c7c71915e8906307bae612dc6a68af4ff70e8ba61919813f3460405161101c9190612a40565b60405180910390a2505050611332565b60006064444233600654600143611043919061267a565b40604051602001611058959493929190612af8565b6040516020818303038152906040528051906020012060001c61107b9190612b57565b9050600080600f8310156110ad5760029150606460be3461109c9190612800565b6110a69190612871565b90506110d8565b60328310156110ce57600191506002346110c79190612871565b90506110d7565b60009150600090505b5b600660008154809291906110eb90612b88565b9190505550346008600082825461110291906127cc565b92505081905550600960003373ffffffffffffffffffffffffffffffffffffffff1673ffffffffffffffffffffffffffffffffffffffff168152602001908152602001600020600081548092919061115990612b88565b919050555034600b60003373ffffffffffffffffffffffffffffffffffffffff1673ffffffffffffffffffffffffffffffffffffffff16815260200190815260200160002060008282546111ad91906127cc565b9250508190555060008111156112da5780600760008282546111cf91906127cc565b9250508190555080600a60003373ffffffffffffffffffffffffffffffffffffffff1673ffffffffffffffffffffffffffffffffffffffff168152602001908152602001600020600082825461122591906127cc565b9250508190555060003373ffffffffffffffffffffffffffffffffffffffff16826040516112529061274b565b60006040518083038185875af1925050503d806000811461128f576040519150601f19603f3d011682016040523d82523d6000602084013e611294565b606091505b50509050806112d8576040517f08c379a00000000000000000000000000000000000000000000000000000000081526004016112cf90612c1c565b60405180910390fd5b505b3373ffffffffffffffffffffffffffffffffffffffff167ff5bcda99d24ae05ced738a386eec191fd64e9def75392eb5f4cba1205923bb7c34848460405161132493929190612c58565b60405180910390a250505050505b61133a612016565b565b611344611ee6565b61134c612124565b565b611356611fd0565b61135e6120e3565b6000600c60003373ffffffffffffffffffffffffffffffffffffffff1673ffffffffffffffffffffffffffffffffffffffff16815260200190815260200160002090506000816000015414806113c257508060030160009054906101000a900460ff165b156113f9576040517f9d46544500000000000000000000000000000000000000000000000000000000815260040160405180910390fd5b6001816001015461140a91906127cc565b431161146a5743600180836001015461142391906127cc565b61142d91906127cc565b6040517fc167e8fa000000000000000000000000000000000000000000000000000000008152600401611461929190612622565b60405180910390fd5b610100816001015461147c91906127cc565b4311156114d35743610100826001015461149691906127cc565b6040517f64175dad0000000000000000000000000000000000000000000000000000000081526004016114ca929190612622565b60405180910390fd5b600082336040516020016114e8929190612c8f565b6040516020818303038152906040528051906020012090508160020154811461153d576040517f9ea6d12700000000000000000000000000000000000000000000000000000000815260040160405180910390fd5b60018260030160006101000a81548160ff0219169083151502179055506000826000015490506000606460be836115749190612800565b61157e9190612871565b90508060056000828254611592919061267a565b925050819055506000600185600101546115ac91906127cc565b4090506000606487833389600101546040516020016115ce9493929190612cbb565b6040516020818303038152906040528051906020012060001c6115f19190612b57565b9050600080600f8310156116235760029150606460be876116129190612800565b61161c9190612871565b905061164e565b6032831015611644576001915060028661163d9190612871565b905061164d565b60009150600090505b5b6006600081548092919061166190612b88565b9190505550856008600082825461167891906127cc565b92505081905550600960003373ffffffffffffffffffffffffffffffffffffffff1673ffffffffffffffffffffffffffffffffffffffff16815260200190815260200160002060008154809291906116cf90612b88565b919050555085600b60003373ffffffffffffffffffffffffffffffffffffffff1673ffffffffffffffffffffffffffffffffffffffff168152602001908152602001600020600082825461172391906127cc565b92505081905550600081111561185057806007600082825461174591906127cc565b9250508190555080600a60003373ffffffffffffffffffffffffffffffffffffffff1673ffffffffffffffffffffffffffffffffffffffff168152602001908152602001600020600082825461179b91906127cc565b9250508190555060003373ffffffffffffffffffffffffffffffffffffffff16826040516117c89061274b565b60006040518083038185875af1925050503d8060008114611805576040519150601f19603f3d011682016040523d82523d6000602084013e61180a565b606091505b505090508061184e576040517f08c379a000000000000000000000000000000000000000000000000000000000815260040161184590612c1c565b60405180910390fd5b505b3373ffffffffffffffffffffffffffffffffffffffff167ff5bcda99d24ae05ced738a386eec191fd64e9def75392eb5f4cba1205923bb7c87848460405161189a93929190612c58565b60405180910390a250505050505050506118b2612016565b50565b600181565b60085481565b60008060009054906101000a900473ffffffffffffffffffffffffffffffffffffffff16905090565b600581565b600a6020528060005260406000206000915090505481565b60035481565b60055481565b600080600080600080600c60008873ffffffffffffffffffffffffffffffffffffffff1673ffffffffffffffffffffffffffffffffffffffff1681526020019081526020016000206040518060800160405290816000820154815260200160018201548152602001600282015481526020016003820160009054906101000a900460ff161515151581525050905080600001518160200151600183602001516119bb91906127cc565b431180156119da575061010083602001516119d691906127cc565b4311155b61010084602001516119ec91906127cc565b43118460600151955095509550955095505091939590929450565b611a0f611fd0565b611a176120e3565b600354341015611a6257346003546040517fac4d5cf8000000000000000000000000000000000000000000000000000000008152600401611a59929190612622565b60405180910390fd5b600454341115611aad57346004546040517f69da332c000000000000000000000000000000000000000000000000000000008152600401611aa4929190612622565b60405180910390fd5b6000600c60003373ffffffffffffffffffffffffffffffffffffffff1673ffffffffffffffffffffffffffffffffffffffff16815260200190815260200160002060000154118015611b4c5750600c60003373ffffffffffffffffffffffffffffffffffffffff1673ffffffffffffffffffffffffffffffffffffffff16815260200190815260200160002060030160009054906101000a900460ff16155b15611b83576040517f97bcd0a000000000000000000000000000000000000000000000000000000000815260040160405180910390fd5b6000606460be34611b949190612800565b611b9e9190612871565b905060003447611bae919061267a565b905081811015611bf75780826040517fa54b6dcf000000000000000000000000000000000000000000000000000000008152600401611bee929190612622565b60405180910390fd5b604051806080016040528034815260200143815260200184815260200160001515815250600c60003373ffffffffffffffffffffffffffffffffffffffff1673ffffffffffffffffffffffffffffffffffffffff16815260200190815260200160002060008201518160000155602082015181600101556040820151816002015560608201518160030160006101000a81548160ff0219169083151502179055509050508160056000828254611cad91906127cc565b925050819055503373ffffffffffffffffffffffffffffffffffffffff167f08e8ecce9ba6ca1ed63a78aa1d2e9f4099167054afeaa7bae09164774f02640f3485604051611cfc929190612d09565b60405180910390a25050611d0e612016565b50565b60096020528060005260406000206000915090505481565b611d31611ee6565b611d39612187565b60004790506000611d486118c0565b73ffffffffffffffffffffffffffffffffffffffff1682604051611d6b9061274b565b60006040518083038185875af1925050503d8060008114611da8576040519150601f19603f3d011682016040523d82523d6000602084013e611dad565b606091505b5050905080611df1576040517f08c379a0000000000000000000000000000000000000000000000000000000008152600401611de890612d7e565b60405180910390fd5b3373ffffffffffffffffffffffffffffffffffffffff167f5fafa99d0643513820be26656b45130b01e1c03062e1266bf36f88cbd3bd969583604051611e3791906121e8565b60405180910390a25050565b600b6020528060005260406000206000915090505481565b611e63611ee6565b600073ffffffffffffffffffffffffffffffffffffffff168173ffffffffffffffffffffffffffffffffffffffff1603611ed55760006040517f1e4fbdf7000000000000000000000000000000000000000000000000000000008152600401611ecc919061245f565b60405180910390fd5b611ede8161201f565b50565b60be81565b611eee6121c7565b73ffffffffffffffffffffffffffffffffffffffff16611f0c6118c0565b73ffffffffffffffffffffffffffffffffffffffff1614611f6b57611f2f6121c7565b6040517f118cdaa7000000000000000000000000000000000000000000000000000000008152600401611f62919061245f565b60405180910390fd5b565b611f75612187565b6000600260006101000a81548160ff0219169083151502179055507f5db9ee0a495bf2e6ff9c91a7834c1ba4fdd244a5e8aa4e537bd38aeae4b073aa611fb96121c7565b604051611fc6919061245f565b60405180910390a1565b60026001540361200c576040517f3ee5aeb500000000000000000000000000000000000000000000000000000000815260040160405180910390fd5b6002600181905550565b60018081905550565b60008060009054906101000a900473ffffffffffffffffffffffffffffffffffffffff169050816000806101000a81548173ffffffffffffffffffffffffffffffffffffffff021916908373ffffffffffffffffffffffffffffffffffffffff1602179055508173ffffffffffffffffffffffffffffffffffffffff168173ffffffffffffffffffffffffffffffffffffffff167f8be0079c531659141344cd1fd0a4f28419497f9722a3daafe3b4186f6b6457e060405160405180910390a35050565b6120eb610d91565b15612122576040517fd93c066500000000000000000000000000000000000000000000000000000000815260040160405180910390fd5b565b61212c6120e3565b6001600260006101000a81548160ff0219169083151502179055507f62e78cea01bee320cd4e420270b5ea74000d11b0c9f74754ebdbfc544b05a2586121706121c7565b60405161217d919061245f565b60405180910390a1565b61218f610d91565b6121c5576040517f8dfc202b00000000000000000000000000000000000000000000000000000000815260040160405180910390fd5b565b600033905090565b6000819050919050565b6121e2816121cf565b82525050565b60006020820190506121fd60008301846121d9565b92915050565b600080fd5b612211816121cf565b811461221c57600080fd5b50565b60008135905061222e81612208565b92915050565b6000806040838503121561224b5761224a612203565b5b60006122598582860161221f565b925050602061226a8582860161221f565b9150509250929050565b600060608201905061228960008301866121d9565b61229660208301856121d9565b6122a360408301846121d9565b949350505050565b6000602082840312156122c1576122c0612203565b5b60006122cf8482850161221f565b91505092915050565b600073ffffffffffffffffffffffffffffffffffffffff82169050919050565b6000612303826122d8565b9050919050565b612313816122f8565b811461231e57600080fd5b50565b6000813590506123308161230a565b92915050565b60006020828403121561234c5761234b612203565b5b600061235a84828501612321565b91505092915050565b6000819050919050565b61237681612363565b82525050565b60008115159050919050565b6123918161237c565b82525050565b60006080820190506123ac60008301876121d9565b6123b960208301866121d9565b6123c6604083018561236d565b6123d36060830184612388565b95945050505050565b60006020820190506123f16000830184612388565b92915050565b61240081612363565b811461240b57600080fd5b50565b60008135905061241d816123f7565b92915050565b60006020828403121561243957612438612203565b5b60006124478482850161240e565b91505092915050565b612459816122f8565b82525050565b60006020820190506124746000830184612450565b92915050565b600060a08201905061248f60008301886121d9565b61249c60208301876121d9565b6124a96040830186612388565b6124b66060830185612388565b6124c36080830184612388565b9695505050505050565b600082825260208201905092915050565b7f4d696e20626574206d75737420626520706f7369746976650000000000000000600082015250565b60006125146018836124cd565b915061251f826124de565b602082019050919050565b6000602082019050818103600083015261254381612507565b9050919050565b7f496e76616c6964206265742072616e6765000000000000000000000000000000600082015250565b60006125806011836124cd565b915061258b8261254a565b602082019050919050565b600060208201905081810360008301526125af81612573565b9050919050565b7f4d61782062657420746f6f206869676800000000000000000000000000000000600082015250565b60006125ec6010836124cd565b91506125f7826125b6565b602082019050919050565b6000602082019050818103600083015261261b816125df565b9050919050565b600060408201905061263760008301856121d9565b61264460208301846121d9565b9392505050565b7f4e487b7100000000000000000000000000000000000000000000000000000000600052601160045260246000fd5b6000612685826121cf565b9150612690836121cf565b92508282039050818111156126a8576126a761264b565b5b92915050565b7f43616e6e6f742077697468647261772072657365727665642066756e64730000600082015250565b60006126e4601e836124cd565b91506126ef826126ae565b602082019050919050565b60006020820190508181036000830152612713816126d7565b9050919050565b600081905092915050565b50565b600061273560008361271a565b915061274082612725565b600082019050919050565b600061275682612728565b9150819050919050565b7f5769746864726177616c206661696c6564000000000000000000000000000000600082015250565b60006127966011836124cd565b91506127a182612760565b602082019050919050565b600060208201905081810360008301526127c581612789565b9050919050565b60006127d7826121cf565b91506127e2836121cf565b92508282019050808211156127fa576127f961264b565b5b92915050565b600061280b826121cf565b9150612816836121cf565b9250828202612824816121cf565b9150828204841483151761283b5761283a61264b565b5b5092915050565b7f4e487b7100000000000000000000000000000000000000000000000000000000600052601260045260246000fd5b600061287c826121cf565b9150612887836121cf565b92508261289757612896612842565b5b828204905092915050565b7f526566756e64206661696c656400000000000000000000000000000000000000600082015250565b60006128d8600d836124cd565b91506128e3826128a2565b602082019050919050565b60006020820190508181036000830152612907816128cb565b9050919050565b7f52657665616c2074696d656f7574000000000000000000000000000000000000600082015250565b6000612944600e836124cd565b915061294f8261290e565b602082019050919050565b600060408201905061296f60008301846121d9565b818103602083015261298081612937565b905092915050565b7f4d7573742073656e642043454c4f000000000000000000000000000000000000600082015250565b60006129be600e836124cd565b91506129c982612988565b602082019050919050565b600060208201905081810360008301526129ed816129b1565b9050919050565b7f496e73756666696369656e7420686f7573652062616c616e6365000000000000600082015250565b6000612a2a601a836124cd565b9150612a35826129f4565b602082019050919050565b6000604082019050612a5560008301846121d9565b8181036020830152612a6681612a1d565b905092915050565b6000819050919050565b612a89612a84826121cf565b612a6e565b82525050565b60008160601b9050919050565b6000612aa782612a8f565b9050919050565b6000612ab982612a9c565b9050919050565b612ad1612acc826122f8565b612aae565b82525050565b6000819050919050565b612af2612aed82612363565b612ad7565b82525050565b6000612b048288612a78565b602082019150612b148287612a78565b602082019150612b248286612ac0565b601482019150612b348285612a78565b602082019150612b448284612ae1565b6020820191508190509695505050505050565b6000612b62826121cf565b9150612b6d836121cf565b925082612b7d57612b7c612842565b5b828206905092915050565b6000612b93826121cf565b91507fffffffffffffffffffffffffffffffffffffffffffffffffffffffffffffffff8203612bc557612bc461264b565b5b600182019050919050565b7f5061796f7574206661696c656400000000000000000000000000000000000000600082015250565b6000612c06600d836124cd565b9150612c1182612bd0565b602082019050919050565b60006020820190508181036000830152612c3581612bf9565b9050919050565b600060ff82169050919050565b612c5281612c3c565b82525050565b6000606082019050612c6d60008301866121d9565b612c7a6020830185612c49565b612c8760408301846121d9565b949350505050565b6000612c9b8285612ae1565b602082019150612cab8284612ac0565b6014820191508190509392505050565b6000612cc78287612ae1565b602082019150612cd78286612ae1565b602082019150612ce78285612ac0565b601482019150612cf78284612a78565b60208201915081905095945050505050565b6000604082019050612d1e60008301856121d9565b612d2b602083018461236d565b9392505050565b7f456d657267656e6379207769746864726177616c206661696c65640000000000600082015250565b6000612d68601b836124cd565b9150612d7382612d32565b602082019050919050565b60006020820190508181036000830152612d9781612d5b565b905091905056fea2646970667358221220d116258a5c516d0bf4e9c32f1120360fe973c10c9ae7a6cdb1b1c378f01703d364736f6c63430008180033",
  "linkReferences": {},
  "deployedLinkReferences": {}
}